{
  "_format": "hh-sol-artifact-1",
  "contractName": "TheSourceMarketPlace",
  "sourceName": "contracts/TheSourceMarketPlace.sol",
  "abi": [
    {
      "inputs": [],
      "stateMutability": "nonpayable",
      "type": "constructor"
    },
    {
      "anonymous": false,
      "inputs": [
        {
          "indexed": true,
          "internalType": "address",
          "name": "previousOwner",
          "type": "address"
        },
        {
          "indexed": true,
          "internalType": "address",
          "name": "newOwner",
          "type": "address"
        }
      ],
      "name": "OwnershipTransferred",
      "type": "event"
    },
    {
      "anonymous": false,
      "inputs": [
        {
          "indexed": false,
          "internalType": "uint256",
          "name": "newPrice",
          "type": "uint256"
        }
      ],
      "name": "articlePrice",
      "type": "event"
    },
    {
      "anonymous": false,
      "inputs": [
        {
          "indexed": false,
          "internalType": "address",
          "name": "from",
          "type": "address"
        },
        {
          "indexed": false,
          "internalType": "uint256",
          "name": "memberTokenId",
          "type": "uint256"
        },
        {
          "indexed": false,
          "internalType": "uint256",
          "name": "articleId",
          "type": "uint256"
        }
      ],
      "name": "createArticle",
      "type": "event"
    },
    {
      "anonymous": false,
      "inputs": [
        {
          "indexed": false,
          "internalType": "uint256",
          "name": "newPrice",
          "type": "uint256"
        }
      ],
      "name": "membershipPrice",
      "type": "event"
    },
    {
      "inputs": [],
      "name": "balanceOfMemberToken",
      "outputs": [
        {
          "internalType": "uint256",
          "name": "",
          "type": "uint256"
        }
      ],
      "stateMutability": "view",
      "type": "function"
    },
    {
      "inputs": [
        {
          "internalType": "uint256",
          "name": "_articleId",
          "type": "uint256"
        }
      ],
      "name": "buyArticle",
      "outputs": [
        {
          "internalType": "bool",
          "name": "",
          "type": "bool"
        }
      ],
      "stateMutability": "payable",
      "type": "function"
    },
    {
      "inputs": [],
      "name": "buyMembreToken",
      "outputs": [
        {
          "internalType": "uint256",
          "name": "",
          "type": "uint256"
        }
      ],
      "stateMutability": "payable",
      "type": "function"
    },
    {
      "inputs": [],
      "name": "getArticlePriceInFinney",
      "outputs": [
        {
          "internalType": "uint256",
          "name": "",
          "type": "uint256"
        }
      ],
      "stateMutability": "view",
      "type": "function"
    },
    {
      "inputs": [],
      "name": "getMemberTokenPriceInFinney",
      "outputs": [
        {
          "internalType": "uint256",
          "name": "",
          "type": "uint256"
        }
      ],
      "stateMutability": "view",
      "type": "function"
    },
    {
      "inputs": [
        {
          "internalType": "address",
          "name": "_memberTokenAddr",
          "type": "address"
        },
        {
          "internalType": "uint256",
          "name": "_memberTokenPriceInFinney",
          "type": "uint256"
        },
        {
          "internalType": "address",
          "name": "_articleContract",
          "type": "address"
        },
        {
          "internalType": "uint256",
          "name": "_articlePriceInFinney",
          "type": "uint256"
        }
      ],
      "name": "init",
      "outputs": [],
      "stateMutability": "nonpayable",
      "type": "function"
    },
    {
      "inputs": [
        {
          "internalType": "uint256",
          "name": "_memberTokenId",
          "type": "uint256"
        },
        {
          "internalType": "string",
          "name": "_title",
          "type": "string"
        },
        {
          "internalType": "string",
          "name": "_description",
          "type": "string"
        },
        {
          "internalType": "string",
          "name": "_authorName",
          "type": "string"
        },
        {
          "internalType": "uint256",
          "name": "_supply",
          "type": "uint256"
        },
        {
          "internalType": "uint256",
          "name": "_priceInFinney",
          "type": "uint256"
        },
        {
          "internalType": "string",
          "name": "URI",
          "type": "string"
        }
      ],
      "name": "mintArticle",
      "outputs": [
        {
          "internalType": "uint256",
          "name": "",
          "type": "uint256"
        }
      ],
      "stateMutability": "payable",
      "type": "function"
    },
    {
      "inputs": [],
      "name": "owner",
      "outputs": [
        {
          "internalType": "address",
          "name": "",
          "type": "address"
        }
      ],
      "stateMutability": "view",
      "type": "function"
    },
    {
      "inputs": [],
      "name": "renounceOwnership",
      "outputs": [],
      "stateMutability": "nonpayable",
      "type": "function"
    },
    {
      "inputs": [
        {
          "internalType": "uint256",
          "name": "_newPrice",
          "type": "uint256"
        }
      ],
      "name": "setArticlePriceInFinney",
      "outputs": [],
      "stateMutability": "nonpayable",
      "type": "function"
    },
    {
      "inputs": [
        {
          "internalType": "uint256",
          "name": "_newPrice",
          "type": "uint256"
        }
      ],
      "name": "setMemberTokenPriceInFinney",
      "outputs": [],
      "stateMutability": "nonpayable",
      "type": "function"
    },
    {
      "inputs": [
        {
          "internalType": "address",
          "name": "newOwner",
          "type": "address"
        }
      ],
      "name": "transferOwnership",
      "outputs": [],
      "stateMutability": "nonpayable",
      "type": "function"
    },
    {
      "inputs": [
        {
          "internalType": "uint256",
          "name": "amount",
          "type": "uint256"
        }
      ],
      "name": "withdrawInFinney",
      "outputs": [],
      "stateMutability": "nonpayable",
      "type": "function"
    }
  ],
  "bytecode": "0x60806040523480156200001157600080fd5b5062000032620000266200005b60201b60201c565b6200006360201b60201c565b600180819055506200005567f418b56a513a354860c01b6200012760201b60201c565b6200012a565b600033905090565b60008060009054906101000a900473ffffffffffffffffffffffffffffffffffffffff169050816000806101000a81548173ffffffffffffffffffffffffffffffffffffffff021916908373ffffffffffffffffffffffffffffffffffffffff1602179055508173ffffffffffffffffffffffffffffffffffffffff168173ffffffffffffffffffffffffffffffffffffffff167f8be0079c531659141344cd1fd0a4f28419497f9722a3daafe3b4186f6b6457e060405160405180910390a35050565b50565b612402806200013a6000396000f3fe6080604052600436106100c25760003560e01c806395c95eb01161007f578063de7e114611610059578063de7e11461461022f578063ed5a24f41461025a578063f2227ae414610283578063f2fde38b146102ac576100c2565b806395c95eb0146101b05780639657d727146101db578063c961518b14610206576100c2565b80631cc4baa8146100c7578063486f059d146100f7578063602bead514610115578063715018a61461013e57806378b7c66f146101555780638da5cb5b14610185575b600080fd5b6100e160048036038101906100dc9190611838565b6102d5565b6040516100ee9190611880565b60405180910390f35b6100ff610520565b60405161010c91906118aa565b60405180910390f35b34801561012157600080fd5b5061013c60048036038101906101379190611923565b610781565b005b34801561014a57600080fd5b506101536108ab565b005b61016f600480360381019061016a9190611b30565b6108bf565b60405161017c91906118aa565b60405180910390f35b34801561019157600080fd5b5061019a610cf8565b6040516101a79190611c5e565b60405180910390f35b3480156101bc57600080fd5b506101c5610d21565b6040516101d291906118aa565b60405180910390f35b3480156101e757600080fd5b506101f0610e00565b6040516101fd91906118aa565b60405180910390f35b34801561021257600080fd5b5061022d60048036038101906102289190611838565b610e46565b005b34801561023b57600080fd5b50610244610f9a565b60405161025191906118aa565b60405180910390f35b34801561026657600080fd5b50610281600480360381019061027c9190611838565b610fe0565b005b34801561028f57600080fd5b506102aa60048036038101906102a59190611838565b611134565b005b3480156102b857600080fd5b506102d360048036038101906102ce9190611c79565b611484565b005b60006102eb67fe1fdc09054cb67960c01b611633565b6102ff673d9af25cb3ee9bba60c01b611633565b610313672f0415f1b34dc04160c01b611633565b600460009054906101000a900473ffffffffffffffffffffffffffffffffffffffff1673ffffffffffffffffffffffffffffffffffffffff16636aa5c35283346040518363ffffffff1660e01b8152600401610370929190611ca6565b600060405180830381600087803b15801561038a57600080fd5b505af115801561039e573d6000803e3d6000fd5b505050506103b6676255b1a995400e7960c01b611633565b6103ca67a02b9214211eedcd60c01b611633565b60006103e860196103e8346103df9190611cfe565b6103e99190611cfe565b6103f39190611d6f565b9050610409670a885d6652655c2860c01b611633565b806103e8346104189190611cfe565b6104229190611da0565b6002600061042e610cf8565b73ffffffffffffffffffffffffffffffffffffffff1673ffffffffffffffffffffffffffffffffffffffff16815260200190815260200160002060008282546104779190611dd4565b92505081905550610492671e6cdada035f270460c01b611633565b806002600061049f610cf8565b73ffffffffffffffffffffffffffffffffffffffff1673ffffffffffffffffffffffffffffffffffffffff16815260200190815260200160002060008282546104e89190611dd4565b9250508190555061050367c43e3b70cb6bb37a60c01b611633565b61051666c8b0fe94a61dd260c01b611633565b6001915050919050565b6000610536676f282524c4eef3e560c01b611633565b61054a67409cb0602a8439d760c01b611633565b61055e6772fe9a38328e0a5e60c01b611633565b61057267565378c45453c7b560c01b611633565b6007546103e8346105839190611cfe565b10156105c4576040517f08c379a00000000000000000000000000000000000000000000000000000000081526004016105bb90611e65565b60405180910390fd5b6105d867e6c526ef7289f97b60c01b611633565b6105ec6721368d41aca9d9a060c01b611633565b610600677f65171e9a4741df60c01b611633565b61060a6005611636565b61061e67630a13c72757467460c01b611633565b6106326754c5cf3714c0656860c01b611633565b6000600360009054906101000a900473ffffffffffffffffffffffffffffffffffffffff1673ffffffffffffffffffffffffffffffffffffffff166340d097c3336040518263ffffffff1660e01b815260040161068f9190611c5e565b6020604051808303816000875af11580156106ae573d6000803e3d6000fd5b505050506040513d601f19601f820116820180604052508101906106d29190611e9a565b90506106e8671389fa5bab4271b160c01b611633565b6103e8346106f69190611cfe565b60026000610702610cf8565b73ffffffffffffffffffffffffffffffffffffffff1673ffffffffffffffffffffffffffffffffffffffff168152602001908152602001600020600082825461074b9190611dd4565b9250508190555061076667d726f047bb6c4e6060c01b611633565b61077a675c3a29a972ff668460c01b611633565b8091505090565b61079567470e0c904c4856a060c01b611633565b61079d61164c565b6107b167389d2f97b90ae3e260c01b611633565b6107c567df6d312d1b4819c360c01b611633565b6107d967d850cf5ade82791f60c01b611633565b83600360006101000a81548173ffffffffffffffffffffffffffffffffffffffff021916908373ffffffffffffffffffffffffffffffffffffffff16021790555061082e67d7377f5fefafe3c860c01b611633565b8260078190555061084967fa7565688688b6c160c01b611633565b81600460006101000a81548173ffffffffffffffffffffffffffffffffffffffff021916908373ffffffffffffffffffffffffffffffffffffffff16021790555061089e67493d5b31df1b6ee060c01b611633565b8060088190555050505050565b6108b361164c565b6108bd60006116ca565b565b60006108d567fa8e4e9cff93e23660c01b611633565b6108e967ed33982faed9a44f60c01b611633565b6108fd67bffebb52a4bd88e560c01b611633565b61091167441e2437072423ac60c01b611633565b3373ffffffffffffffffffffffffffffffffffffffff16600360009054906101000a900473ffffffffffffffffffffffffffffffffffffffff1673ffffffffffffffffffffffffffffffffffffffff16636352211e8d6040518263ffffffff1660e01b815260040161098391906118aa565b602060405180830381865afa1580156109a0573d6000803e3d6000fd5b505050506040513d601f19601f820116820180604052508101906109c49190611edc565b73ffffffffffffffffffffffffffffffffffffffff1614610a1a576040517f08c379a0000000000000000000000000000000000000000000000000000000008152600401610a1190611f7b565b60405180910390fd5b610a2e672c5126b1b4a0e6b060c01b611633565b610a426761757acb432354a560c01b611633565b610a5667e106cc89b6d5757360c01b611633565b610a6a67a3d2c931ee85e12660c01b611633565b6008546103e834610a7b9190611cfe565b1015610abc576040517f08c379a0000000000000000000000000000000000000000000000000000000008152600401610ab390611e65565b60405180910390fd5b610ad0673cc8f668e279ea8b60c01b611633565b610ae46778016f3b69911bde60c01b611633565b610af867669ade57aa10c5fe60c01b611633565b610b026006611636565b610b16673066a75d28b37d7260c01b611633565b610b2a67ae505b71f55c4a6360c01b611633565b6000600460009054906101000a900473ffffffffffffffffffffffffffffffffffffffff1673ffffffffffffffffffffffffffffffffffffffff16636cc80e56338d8d8d8d8d8d8d8d8d6040518b63ffffffff1660e01b8152600401610b999a99989796959493929190612036565b6020604051808303816000875af1158015610bb8573d6000803e3d6000fd5b505050506040513d601f19601f82011682018060405250810190610bdc9190611e9a565b9050610bf26724de257645d602b260c01b611633565b6103e834610c009190611cfe565b60026000610c0c610cf8565b73ffffffffffffffffffffffffffffffffffffffff1673ffffffffffffffffffffffffffffffffffffffff1681526020019081526020016000206000828254610c559190611dd4565b92505081905550610c7067ded1654b9046c8c160c01b611633565b610c8467f8ebdd9abe8b667e60c01b611633565b7fdaf695c1b04d7651b51a60d7390d40e64840134c0943db129871d2ef48401a0b338d83604051610cb7939291906120c7565b60405180910390a1610cd3679225a9104d204ced60c01b611633565b610ce66664e5749e46407860c01b611633565b809150509a9950505050505050505050565b60008060009054906101000a900473ffffffffffffffffffffffffffffffffffffffff16905090565b6000610d3767f4d044943dd2bee660c01b611633565b610d4b675305a6bb719c59dc60c01b611633565b610d5f67efeb2c758bf7014460c01b611633565b600360009054906101000a900473ffffffffffffffffffffffffffffffffffffffff1673ffffffffffffffffffffffffffffffffffffffff166370a08231336040518263ffffffff1660e01b8152600401610dba9190611c5e565b602060405180830381865afa158015610dd7573d6000803e3d6000fd5b505050506040513d601f19601f82011682018060405250810190610dfb9190611e9a565b905090565b6000610e166733b846cacec8962b60c01b611633565b610e2a67d976a8a9bb00ceff60c01b611633565b610e3e676b8b0395f34695dc60c01b611633565b600754905090565b610e5a675b824d5570f6e92660c01b611633565b610e6261164c565b610e7667a92965fe8d3854dc60c01b611633565b610e8a674327a9a51040120260c01b611633565b610e9e67d1735420d70fa90c60c01b611633565b610eb267e38f5b9b09bdd34160c01b611633565b610ec6672e300c0e1911762660c01b611633565b60008111610f09576040517f08c379a0000000000000000000000000000000000000000000000000000000008152600401610f009061214a565b60405180910390fd5b610f1d678b7bcee7293d5bf560c01b611633565b610f3167f87f9a0846ce8b4360c01b611633565b80600881905550610f4c6742c0680991590b4d60c01b611633565b610f6067baeefc89e949905260c01b611633565b7f1e6215b19e44d8f89c3188407efc6e39f5e1d64361016fa8d3102641dc9f519a81604051610f8f91906118aa565b60405180910390a150565b6000610fb0673aa05f5b6b10faeb60c01b611633565b610fc46783be7f38da1723ec60c01b611633565b610fd867ed414e3bff38e9f560c01b611633565b600854905090565b610ff4675d337a728b24903160c01b611633565b610ffc61164c565b611010673a202cf9cf6f88d060c01b611633565b61102467b5af00fe873780d860c01b611633565b611038674c7d7ea8d35a885160c01b611633565b61104c672a864fe4bcf7201f60c01b611633565b611060679686a84410f4588d60c01b611633565b600081116110a3576040517f08c379a000000000000000000000000000000000000000000000000000000000815260040161109a9061214a565b60405180910390fd5b6110b76728e651347df6e28060c01b611633565b6110cb670db966c6133a258d60c01b611633565b806007819055506110e667aa893940370c4e8d60c01b611633565b6110fa676105fb704ebd538160c01b611633565b7f66d54ee5dfff9d1ed5d04b3a2f79d518d69956edbbb843cdcf4f816efb1120428160405161112991906118aa565b60405180910390a150565b61114867eda002064dabbba660c01b611633565b61115061178e565b61116467d0da163aad041c6d60c01b611633565b61117867cefc70c0493c78fc60c01b611633565b61118c6728656e794bcdfcc960c01b611633565b6111a067a8a5e5e8ac7281c060c01b611633565b6111b467889d939283a57ab660c01b611633565b600081116111f7576040517f08c379a00000000000000000000000000000000000000000000000000000000081526004016111ee906121b6565b60405180910390fd5b61120b6710ee8001d062569f60c01b611633565b61121f67f63c7b97cdb0f80160c01b611633565b6112336793acd241e37fd8c760c01b611633565b61124767639d16b5f61bcf9b60c01b611633565b80600260003373ffffffffffffffffffffffffffffffffffffffff1673ffffffffffffffffffffffffffffffffffffffff1681526020019081526020016000205410156112c9576040517f08c379a00000000000000000000000000000000000000000000000000000000081526004016112c090612222565b60405180910390fd5b6112dd6790f7f0b970c6309060c01b611633565b6112f167ec6dcbe4e520a82a60c01b611633565b80600260003373ffffffffffffffffffffffffffffffffffffffff1673ffffffffffffffffffffffffffffffffffffffff16815260200190815260200160002060008282546113409190611da0565b9250508190555061135b67e77990efbc83ff4960c01b611633565b61136f671a4bc36fb4234f1d60c01b611633565b60003373ffffffffffffffffffffffffffffffffffffffff166103e8836113969190611d6f565b6040516113a290612273565b60006040518083038185875af1925050503d80600081146113df576040519150601f19603f3d011682016040523d82523d6000602084013e6113e4565b606091505b505090506113fc67eaa25de548a5efe260c01b611633565b61141067b836201e875bcf4660c01b611633565b61142467b75ffaa66c17d3d660c01b611633565b80611464576040517f08c379a000000000000000000000000000000000000000000000000000000000815260040161145b906122d4565b60405180910390fd5b61147867a546300dfec051f960c01b611633565b506114816117dd565b50565b61149867942e1ce2a737545760c01b611633565b6114a061164c565b6114b46784367d1ad8c1ed8160c01b611633565b6114c867266b7da5a800741260c01b611633565b6114dc67f9d1f120e8506bbb60c01b611633565b6114f06717e01a048bdea42460c01b611633565b60006114fa610cf8565b90506115106751cd2a579edccd7b60c01b611633565b61152467bce6e5cc9becec9260c01b611633565b61152d826116ca565b611541673d701a7afc5b65d960c01b611633565b600260008273ffffffffffffffffffffffffffffffffffffffff1673ffffffffffffffffffffffffffffffffffffffff16815260200190815260200160002054600260008473ffffffffffffffffffffffffffffffffffffffff1673ffffffffffffffffffffffffffffffffffffffff16815260200190815260200160002060008282546115cf9190611dd4565b925050819055506115ea676c58f8f5e02d4f1460c01b611633565b6000600260008373ffffffffffffffffffffffffffffffffffffffff1673ffffffffffffffffffffffffffffffffffffffff168152602001908152602001600020819055505050565b50565b6001816000016000828254019250508190555050565b6116546117e6565b73ffffffffffffffffffffffffffffffffffffffff16611672610cf8565b73ffffffffffffffffffffffffffffffffffffffff16146116c8576040517f08c379a00000000000000000000000000000000000000000000000000000000081526004016116bf90612340565b60405180910390fd5b565b60008060009054906101000a900473ffffffffffffffffffffffffffffffffffffffff169050816000806101000a81548173ffffffffffffffffffffffffffffffffffffffff021916908373ffffffffffffffffffffffffffffffffffffffff1602179055508173ffffffffffffffffffffffffffffffffffffffff168173ffffffffffffffffffffffffffffffffffffffff167f8be0079c531659141344cd1fd0a4f28419497f9722a3daafe3b4186f6b6457e060405160405180910390a35050565b6002600154036117d3576040517f08c379a00000000000000000000000000000000000000000000000000000000081526004016117ca906123ac565b60405180910390fd5b6002600181905550565b60018081905550565b600033905090565b6000604051905090565b600080fd5b600080fd5b6000819050919050565b61181581611802565b811461182057600080fd5b50565b6000813590506118328161180c565b92915050565b60006020828403121561184e5761184d6117f8565b5b600061185c84828501611823565b91505092915050565b60008115159050919050565b61187a81611865565b82525050565b60006020820190506118956000830184611871565b92915050565b6118a481611802565b82525050565b60006020820190506118bf600083018461189b565b92915050565b600073ffffffffffffffffffffffffffffffffffffffff82169050919050565b60006118f0826118c5565b9050919050565b611900816118e5565b811461190b57600080fd5b50565b60008135905061191d816118f7565b92915050565b6000806000806080858703121561193d5761193c6117f8565b5b600061194b8782880161190e565b945050602061195c87828801611823565b935050604061196d8782880161190e565b925050606061197e87828801611823565b91505092959194509250565b600080fd5b600080fd5b600080fd5b60008083601f8401126119af576119ae61198a565b5b8235905067ffffffffffffffff8111156119cc576119cb61198f565b5b6020830191508360018202830111156119e8576119e7611994565b5b9250929050565b600080fd5b6000601f19601f8301169050919050565b7f4e487b7100000000000000000000000000000000000000000000000000000000600052604160045260246000fd5b611a3d826119f4565b810181811067ffffffffffffffff82111715611a5c57611a5b611a05565b5b80604052505050565b6000611a6f6117ee565b9050611a7b8282611a34565b919050565b600067ffffffffffffffff821115611a9b57611a9a611a05565b5b611aa4826119f4565b9050602081019050919050565b82818337600083830152505050565b6000611ad3611ace84611a80565b611a65565b905082815260208101848484011115611aef57611aee6119ef565b5b611afa848285611ab1565b509392505050565b600082601f830112611b1757611b1661198a565b5b8135611b27848260208601611ac0565b91505092915050565b60008060008060008060008060008060e08b8d031215611b5357611b526117f8565b5b6000611b618d828e01611823565b9a505060208b013567ffffffffffffffff811115611b8257611b816117fd565b5b611b8e8d828e01611999565b995099505060408b013567ffffffffffffffff811115611bb157611bb06117fd565b5b611bbd8d828e01611999565b975097505060608b013567ffffffffffffffff811115611be057611bdf6117fd565b5b611bec8d828e01611999565b95509550506080611bff8d828e01611823565b93505060a0611c108d828e01611823565b92505060c08b013567ffffffffffffffff811115611c3157611c306117fd565b5b611c3d8d828e01611b02565b9150509295989b9194979a5092959850565b611c58816118e5565b82525050565b6000602082019050611c736000830184611c4f565b92915050565b600060208284031215611c8f57611c8e6117f8565b5b6000611c9d8482850161190e565b91505092915050565b6000604082019050611cbb600083018561189b565b611cc8602083018461189b565b9392505050565b7f4e487b7100000000000000000000000000000000000000000000000000000000600052601160045260246000fd5b6000611d0982611802565b9150611d1483611802565b9250828202611d2281611802565b91508282048414831517611d3957611d38611ccf565b5b5092915050565b7f4e487b7100000000000000000000000000000000000000000000000000000000600052601260045260246000fd5b6000611d7a82611802565b9150611d8583611802565b925082611d9557611d94611d40565b5b828204905092915050565b6000611dab82611802565b9150611db683611802565b9250828203905081811115611dce57611dcd611ccf565b5b92915050565b6000611ddf82611802565b9150611dea83611802565b9250828201905080821115611e0257611e01611ccf565b5b92915050565b600082825260208201905092915050565b7f4e6f7420656e6f75676800000000000000000000000000000000000000000000600082015250565b6000611e4f600a83611e08565b9150611e5a82611e19565b602082019050919050565b60006020820190508181036000830152611e7e81611e42565b9050919050565b600081519050611e948161180c565b92915050565b600060208284031215611eb057611eaf6117f8565b5b6000611ebe84828501611e85565b91505092915050565b600081519050611ed6816118f7565b92915050565b600060208284031215611ef257611ef16117f8565b5b6000611f0084828501611ec7565b91505092915050565b7f446f6e27742068617665206163636573732c20627579206f72206368616e676560008201527f204d656d626572546f6b656e0000000000000000000000000000000000000000602082015250565b6000611f65602c83611e08565b9150611f7082611f09565b604082019050919050565b60006020820190508181036000830152611f9481611f58565b9050919050565b6000611fa78385611e08565b9350611fb4838584611ab1565b611fbd836119f4565b840190509392505050565b600081519050919050565b60005b83811015611ff1578082015181840152602081019050611fd6565b60008484015250505050565b600061200882611fc8565b6120128185611e08565b9350612022818560208601611fd3565b61202b816119f4565b840191505092915050565b600060e08201905061204b600083018d611c4f565b818103602083015261205e818b8d611f9b565b9050818103604083015261207381898b611f9b565b90508181036060830152612088818789611f9b565b9050612097608083018661189b565b6120a460a083018561189b565b81810360c08301526120b68184611ffd565b90509b9a5050505050505050505050565b60006060820190506120dc6000830186611c4f565b6120e9602083018561189b565b6120f6604083018461189b565b949350505050565b7f507269636520696e636f72726563740000000000000000000000000000000000600082015250565b6000612134600f83611e08565b915061213f826120fe565b602082019050919050565b6000602082019050818103600083015261216381612127565b9050919050565b7f416d6f756e74206d7573742062652067726561746572207468616e207a65726f600082015250565b60006121a0602083611e08565b91506121ab8261216a565b602082019050919050565b600060208201905081810360008301526121cf81612193565b9050919050565b7f496e73756666696369656e742062616c616e636520696e20636f6e7472616374600082015250565b600061220c602083611e08565b9150612217826121d6565b602082019050919050565b6000602082019050818103600083015261223b816121ff565b9050919050565b600081905092915050565b50565b600061225d600083612242565b91506122688261224d565b600082019050919050565b600061227e82612250565b9150819050919050565b7f5472616e73666572206661696c65642e00000000000000000000000000000000600082015250565b60006122be601083611e08565b91506122c982612288565b602082019050919050565b600060208201905081810360008301526122ed816122b1565b9050919050565b7f4f776e61626c653a2063616c6c6572206973206e6f7420746865206f776e6572600082015250565b600061232a602083611e08565b9150612335826122f4565b602082019050919050565b600060208201905081810360008301526123598161231d565b9050919050565b7f5265656e7472616e637947756172643a207265656e7472616e742063616c6c00600082015250565b6000612396601f83611e08565b91506123a182612360565b602082019050919050565b600060208201905081810360008301526123c581612389565b905091905056fea264697066735822122012890f10df5a005db0178ae592adc339bdf3ff5994159f12917d6947f04d093264736f6c63430008130033",
  "linkReferences": {},
  "deployedLinkReferences": {}
}