{
  "_format": "hh-sol-artifact-1",
  "contractName": "TheSourceMarketPlace",
  "sourceName": "contracts/TheSourceMarketPlace.sol",
  "abi": [
    {
      "inputs": [],
      "stateMutability": "nonpayable",
      "type": "constructor"
    },
    {
      "anonymous": false,
      "inputs": [
        {
          "indexed": true,
          "internalType": "address",
          "name": "previousOwner",
          "type": "address"
        },
        {
          "indexed": true,
          "internalType": "address",
          "name": "newOwner",
          "type": "address"
        }
      ],
      "name": "OwnershipTransferred",
      "type": "event"
    },
    {
      "anonymous": false,
      "inputs": [
        {
          "indexed": false,
          "internalType": "address",
          "name": "from",
          "type": "address"
        },
        {
          "indexed": false,
          "internalType": "uint256",
          "name": "memberTokenId",
          "type": "uint256"
        },
        {
          "indexed": false,
          "internalType": "uint256",
          "name": "articleId",
          "type": "uint256"
        }
      ],
      "name": "createArticle",
      "type": "event"
    },
    {
      "anonymous": false,
      "inputs": [
        {
          "indexed": false,
          "internalType": "uint256",
          "name": "newPrice",
          "type": "uint256"
        }
      ],
      "name": "membershipPrice",
      "type": "event"
    },
    {
      "anonymous": false,
      "inputs": [
        {
          "indexed": false,
          "internalType": "uint256",
          "name": "newPrice",
          "type": "uint256"
        }
      ],
      "name": "newArticlePrice",
      "type": "event"
    },
    {
      "inputs": [],
      "name": "balanceOfMemberToken",
      "outputs": [
        {
          "internalType": "uint256",
          "name": "",
          "type": "uint256"
        }
      ],
      "stateMutability": "view",
      "type": "function"
    },
    {
      "inputs": [
        {
          "internalType": "uint256",
          "name": "_articleId",
          "type": "uint256"
        }
      ],
      "name": "buyArticle",
      "outputs": [
        {
          "internalType": "bool",
          "name": "",
          "type": "bool"
        }
      ],
      "stateMutability": "payable",
      "type": "function"
    },
    {
      "inputs": [],
      "name": "buyMemberToken",
      "outputs": [
        {
          "internalType": "uint256",
          "name": "",
          "type": "uint256"
        }
      ],
      "stateMutability": "payable",
      "type": "function"
    },
    {
      "inputs": [],
      "name": "getArticlePrice",
      "outputs": [
        {
          "internalType": "uint256",
          "name": "",
          "type": "uint256"
        }
      ],
      "stateMutability": "view",
      "type": "function"
    },
    {
      "inputs": [],
      "name": "getMemberTokenPrice",
      "outputs": [
        {
          "internalType": "uint256",
          "name": "",
          "type": "uint256"
        }
      ],
      "stateMutability": "view",
      "type": "function"
    },
    {
      "inputs": [
        {
          "internalType": "address",
          "name": "_memberTokenAddr",
          "type": "address"
        },
        {
          "internalType": "uint256",
          "name": "_memberTokenPrice",
          "type": "uint256"
        },
        {
          "internalType": "address",
          "name": "_articleContract",
          "type": "address"
        },
        {
          "internalType": "uint256",
          "name": "_articlePrice",
          "type": "uint256"
        }
      ],
      "name": "init",
      "outputs": [],
      "stateMutability": "nonpayable",
      "type": "function"
    },
    {
      "inputs": [
        {
          "internalType": "uint256",
          "name": "_memberTokenId",
          "type": "uint256"
        },
        {
          "internalType": "string",
          "name": "_title",
          "type": "string"
        },
        {
          "internalType": "string",
          "name": "_description",
          "type": "string"
        },
        {
          "internalType": "string",
          "name": "_authorName",
          "type": "string"
        },
        {
          "internalType": "uint256",
          "name": "_supply",
          "type": "uint256"
        },
        {
          "internalType": "uint256",
          "name": "_price",
          "type": "uint256"
        },
        {
          "internalType": "string",
          "name": "URI",
          "type": "string"
        }
      ],
      "name": "mintArticle",
      "outputs": [
        {
          "internalType": "uint256",
          "name": "",
          "type": "uint256"
        }
      ],
      "stateMutability": "payable",
      "type": "function"
    },
    {
      "inputs": [],
      "name": "owner",
      "outputs": [
        {
          "internalType": "address",
          "name": "",
          "type": "address"
        }
      ],
      "stateMutability": "view",
      "type": "function"
    },
    {
      "inputs": [],
      "name": "renounceOwnership",
      "outputs": [],
      "stateMutability": "nonpayable",
      "type": "function"
    },
    {
      "inputs": [
        {
          "internalType": "uint256",
          "name": "_newPrice",
          "type": "uint256"
        }
      ],
      "name": "setArticlePrice",
      "outputs": [],
      "stateMutability": "nonpayable",
      "type": "function"
    },
    {
      "inputs": [
        {
          "internalType": "uint256",
          "name": "_newPrice",
          "type": "uint256"
        }
      ],
      "name": "setMemberTokenPrice",
      "outputs": [],
      "stateMutability": "nonpayable",
      "type": "function"
    },
    {
      "inputs": [
        {
          "internalType": "address",
          "name": "newOwner",
          "type": "address"
        }
      ],
      "name": "transferOwnership",
      "outputs": [],
      "stateMutability": "nonpayable",
      "type": "function"
    },
    {
      "inputs": [
        {
          "internalType": "uint256",
          "name": "amount",
          "type": "uint256"
        }
      ],
      "name": "withdraw",
      "outputs": [],
      "stateMutability": "nonpayable",
      "type": "function"
    },
    {
      "stateMutability": "payable",
      "type": "receive"
    }
  ],
  "bytecode": "0x60806040523480156200001157600080fd5b5062000032620000266200005b60201b60201c565b6200006360201b60201c565b60018081905550620000556754c5cf3714c0656860c01b6200012760201b60201c565b6200012a565b600033905090565b60008060009054906101000a900473ffffffffffffffffffffffffffffffffffffffff169050816000806101000a81548173ffffffffffffffffffffffffffffffffffffffff021916908373ffffffffffffffffffffffffffffffffffffffff1602179055508173ffffffffffffffffffffffffffffffffffffffff168173ffffffffffffffffffffffffffffffffffffffff167f8be0079c531659141344cd1fd0a4f28419497f9722a3daafe3b4186f6b6457e060405160405180910390a35050565b50565b6123a9806200013a6000396000f3fe6080604052600436106100c65760003560e01c806378b7c66f1161007f578063ac9ce66e11610059578063ac9ce66e146102b5578063ce215c56146102e0578063f2fde38b14610309578063ff2b1190146103325761013d565b806378b7c66f1461022f5780638da5cb5b1461025f57806395c95eb01461028a5761013d565b806310599c16146101425780631cc4baa81461016b5780632e1a7d4d1461019b5780634ed5d0c6146101c4578063602bead5146101ef578063715018a6146102185761013d565b3661013d576100df67b5f471ab5513501560c01b610350565b34600260006100ec610353565b73ffffffffffffffffffffffffffffffffffffffff1673ffffffffffffffffffffffffffffffffffffffff168152602001908152602001600020600082825461013591906117ce565b925050819055005b600080fd5b34801561014e57600080fd5b5061016960048036038101906101649190611842565b61037c565b005b61018560048036038101906101809190611842565b6104d0565b604051610192919061188a565b60405180910390f35b3480156101a757600080fd5b506101c260048036038101906101bd9190611842565b610702565b005b3480156101d057600080fd5b506101d9610a45565b6040516101e691906118b4565b60405180910390f35b3480156101fb57600080fd5b506102166004803603810190610211919061192d565b610a8b565b005b34801561022457600080fd5b5061022d610bb5565b005b61024960048036038101906102449190611b3a565b610bc9565b60405161025691906118b4565b60405180910390f35b34801561026b57600080fd5b50610274610353565b6040516102819190611c68565b60405180910390f35b34801561029657600080fd5b5061029f610fb7565b6040516102ac91906118b4565b60405180910390f35b3480156102c157600080fd5b506102ca611096565b6040516102d791906118b4565b60405180910390f35b3480156102ec57600080fd5b5061030760048036038101906103029190611842565b6110dc565b005b34801561031557600080fd5b50610330600480360381019061032b9190611c83565b61122f565b005b61033a6113de565b60405161034791906118b4565b60405180910390f35b50565b60008060009054906101000a900473ffffffffffffffffffffffffffffffffffffffff16905090565b61039067d12130ef1199583660c01b610350565b6103986115f3565b6103ac6706a8b0adfd96637b60c01b610350565b6103c067d1735420d70fa90c60c01b610350565b6103d467e38f5b9b09bdd34160c01b610350565b6103e8672e300c0e1911762660c01b610350565b6103fc678b7bcee7293d5bf560c01b610350565b6000811161043f576040517f08c379a000000000000000000000000000000000000000000000000000000000815260040161043690611d0d565b60405180910390fd5b61045367f87f9a0846ce8b4360c01b610350565b6104676742c0680991590b4d60c01b610350565b8060058190555061048267baeefc89e949905260c01b610350565b61049667fa8e4e9cff93e23660c01b610350565b7f66d54ee5dfff9d1ed5d04b3a2f79d518d69956edbbb843cdcf4f816efb112042816040516104c591906118b4565b60405180910390a150565b60006104e667b75ffaa66c17d3d660c01b610350565b6104fa67a546300dfec051f960c01b610350565b61050e674ddfa74237807a5260c01b610350565b600460009054906101000a900473ffffffffffffffffffffffffffffffffffffffff1673ffffffffffffffffffffffffffffffffffffffff16636aa5c35283346040518363ffffffff1660e01b815260040161056b929190611d2d565b600060405180830381600087803b15801561058557600080fd5b505af1158015610599573d6000803e3d6000fd5b505050506105b16757661543b4d3c85e60c01b610350565b6105c567266b7da5a800741260c01b610350565b60006103e86019346105d79190611d56565b6105e19190611dc7565b90506105f767f9d1f120e8506bbb60c01b610350565b80346106039190611df8565b6002600061060f610353565b73ffffffffffffffffffffffffffffffffffffffff1673ffffffffffffffffffffffffffffffffffffffff168152602001908152602001600020600082825461065891906117ce565b925050819055506106736717e01a048bdea42460c01b610350565b8060026000610680610353565b73ffffffffffffffffffffffffffffffffffffffff1673ffffffffffffffffffffffffffffffffffffffff16815260200190815260200160002060008282546106c991906117ce565b925050819055506106e46751cd2a579edccd7b60c01b610350565b6106f867bce6e5cc9becec9260c01b610350565b6001915050919050565b61071667d0e50b2acbf9a79360c01b610350565b61071e611671565b61073267e8e9d1716f4fd07a60c01b610350565b610746673fbed2fc8b75cd7260c01b610350565b61075a677b8547c6225484de60c01b610350565b61076e67982e563ede42e3e460c01b610350565b6107826793739fedb4bad4b760c01b610350565b600081116107c5576040517f08c379a00000000000000000000000000000000000000000000000000000000081526004016107bc90611e78565b60405180910390fd5b6107d967979a7f438f9f356f60c01b610350565b6107ed6720aac95f3ee88a4460c01b610350565b610801672b0a34df9e2f298660c01b610350565b61081567135f2e6af2800fd060c01b610350565b80600260003373ffffffffffffffffffffffffffffffffffffffff1673ffffffffffffffffffffffffffffffffffffffff168152602001908152602001600020541015610897576040517f08c379a000000000000000000000000000000000000000000000000000000000815260040161088e90611ee4565b60405180910390fd5b6108ab679998cd4ee0857f5560c01b610350565b6108bf67b2b7fc53ee2fd98d60c01b610350565b80600260003373ffffffffffffffffffffffffffffffffffffffff1673ffffffffffffffffffffffffffffffffffffffff168152602001908152602001600020600082825461090e9190611df8565b9250508190555061092967082110597a40429760c01b610350565b61093d67ae06f6f6709f264d60c01b610350565b60003373ffffffffffffffffffffffffffffffffffffffff168260405161096390611f35565b60006040518083038185875af1925050503d80600081146109a0576040519150601f19603f3d011682016040523d82523d6000602084013e6109a5565b606091505b505090506109bd67f5367b2c2cf396e860c01b610350565b6109d1679fdcf6c07b002acf60c01b610350565b6109e56782a9704b2bd8ae8260c01b610350565b80610a25576040517f08c379a0000000000000000000000000000000000000000000000000000000008152600401610a1c90611f96565b60405180910390fd5b610a39670a60cc44159de67d60c01b610350565b50610a426116c0565b50565b6000610a5b6783be7f38da1723ec60c01b610350565b610a6f67ed414e3bff38e9f560c01b610350565b610a8367079cb2a8651ad37760c01b610350565b600554905090565b610a9f67886380309b7061af60c01b610350565b610aa76115f3565b610abb678a2585f280cc8bf960c01b610350565b610acf675c3a29a972ff668460c01b610350565b610ae367f4d044943dd2bee660c01b610350565b83600360006101000a81548173ffffffffffffffffffffffffffffffffffffffff021916908373ffffffffffffffffffffffffffffffffffffffff160217905550610b38675305a6bb719c59dc60c01b610350565b82600581905550610b5367efeb2c758bf7014460c01b610350565b81600460006101000a81548173ffffffffffffffffffffffffffffffffffffffff021916908373ffffffffffffffffffffffffffffffffffffffff160217905550610ba8673aa05f5b6b10faeb60c01b610350565b8060068190555050505050565b610bbd6115f3565b610bc760006116c9565b565b6000610bdf672ff7d1d4f4b0477760c01b610350565b610bf36729e7b2f895ed36f460c01b610350565b610c0767cefc70c0493c78fc60c01b610350565b610c1b6728656e794bcdfcc960c01b610350565b3373ffffffffffffffffffffffffffffffffffffffff16600360009054906101000a900473ffffffffffffffffffffffffffffffffffffffff1673ffffffffffffffffffffffffffffffffffffffff16636352211e8d6040518263ffffffff1660e01b8152600401610c8d91906118b4565b602060405180830381865afa158015610caa573d6000803e3d6000fd5b505050506040513d601f19601f82011682018060405250810190610cce9190611fcb565b73ffffffffffffffffffffffffffffffffffffffff1614610d24576040517f08c379a0000000000000000000000000000000000000000000000000000000008152600401610d1b9061206a565b60405180910390fd5b610d3867a8a5e5e8ac7281c060c01b610350565b610d4c67889d939283a57ab660c01b610350565b610d606710ee8001d062569f60c01b610350565b610d7467f63c7b97cdb0f80160c01b610350565b600654341015610db9576040517f08c379a0000000000000000000000000000000000000000000000000000000008152600401610db0906120d6565b60405180910390fd5b610dcd6793acd241e37fd8c760c01b610350565b610de167639d16b5f61bcf9b60c01b610350565b610df56790f7f0b970c6309060c01b610350565b6000600460009054906101000a900473ffffffffffffffffffffffffffffffffffffffff1673ffffffffffffffffffffffffffffffffffffffff16636cc80e56338d8d8d8d8d8d8d8d8d6040518b63ffffffff1660e01b8152600401610e649a99989796959493929190612191565b6020604051808303816000875af1158015610e83573d6000803e3d6000fd5b505050506040513d601f19601f82011682018060405250810190610ea79190612237565b9050610ebd67ec6dcbe4e520a82a60c01b610350565b3460026000610eca610353565b73ffffffffffffffffffffffffffffffffffffffff1673ffffffffffffffffffffffffffffffffffffffff1681526020019081526020016000206000828254610f1391906117ce565b92505081905550610f2e67e77990efbc83ff4960c01b610350565b610f42671a4bc36fb4234f1d60c01b610350565b7fdaf695c1b04d7651b51a60d7390d40e64840134c0943db129871d2ef48401a0b338d83604051610f7593929190612264565b60405180910390a1610f9167eaa25de548a5efe260c01b610350565b610fa567b836201e875bcf4660c01b610350565b809150509a9950505050505050505050565b6000610fcd673066a75d28b37d7260c01b610350565b610fe167ae505b71f55c4a6360c01b610350565b610ff56724de257645d602b260c01b610350565b600360009054906101000a900473ffffffffffffffffffffffffffffffffffffffff1673ffffffffffffffffffffffffffffffffffffffff166370a08231336040518263ffffffff1660e01b81526004016110509190611c68565b602060405180830381865afa15801561106d573d6000803e3d6000fd5b505050506040513d601f19601f820116820180604052508101906110919190612237565b905090565b60006110ac67ded1654b9046c8c160c01b610350565b6110c067f8ebdd9abe8b667e60c01b610350565b6110d4679225a9104d204ced60c01b610350565b600654905090565b6110f0673003ba64ca00e9cd60c01b610350565b6110f86115f3565b61110c672280a1afa66f206960c01b610350565b611120673d9af25cb3ee9bba60c01b610350565b611134672f0415f1b34dc04160c01b610350565b611148676255b1a995400e7960c01b610350565b61115c67a02b9214211eedcd60c01b610350565b6000811161119f576040517f08c379a000000000000000000000000000000000000000000000000000000000815260040161119690611d0d565b60405180910390fd5b6111b3670a885d6652655c2860c01b610350565b6111c7671e6cdada035f270460c01b610350565b806006819055506111e267c43e3b70cb6bb37a60c01b610350565b6111f566c8b0fe94a61dd260c01b610350565b7fe27a05367ae9096f97930b7212cac84e666eff0b4327729d27775049d2451db18160405161122491906118b4565b60405180910390a150565b611243676cc7262f3d27582560c01b610350565b61124b6115f3565b61125f670c9652fef0ec61a360c01b610350565b611273677908457b0fe5120060c01b610350565b61128767ab9d66100fbf523760c01b610350565b61129b67c2f85cccada8ba4460c01b610350565b60006112a5610353565b90506112bb67d4f3b1b7fef6c8d660c01b610350565b6112cf67863bfde186c0a78d60c01b610350565b6112d8826116c9565b6112ec675d0072a8842405d960c01b610350565b600260008273ffffffffffffffffffffffffffffffffffffffff1673ffffffffffffffffffffffffffffffffffffffff16815260200190815260200160002054600260008473ffffffffffffffffffffffffffffffffffffffff1673ffffffffffffffffffffffffffffffffffffffff168152602001908152602001600020600082825461137a91906117ce565b9250508190555061139567cb7fc67fd3010beb60c01b610350565b6000600260008373ffffffffffffffffffffffffffffffffffffffff1673ffffffffffffffffffffffffffffffffffffffff168152602001908152602001600020819055505050565b60006113f467ed33982faed9a44f60c01b610350565b61140867bffebb52a4bd88e560c01b610350565b61141c67441e2437072423ac60c01b610350565b611430672c5126b1b4a0e6b060c01b610350565b600554341015611475576040517f08c379a000000000000000000000000000000000000000000000000000000000815260040161146c906120d6565b60405180910390fd5b6114896761757acb432354a560c01b610350565b61149d67e106cc89b6d5757360c01b610350565b6114b167a3d2c931ee85e12660c01b610350565b6000600360009054906101000a900473ffffffffffffffffffffffffffffffffffffffff1673ffffffffffffffffffffffffffffffffffffffff166340d097c3336040518263ffffffff1660e01b815260040161150e9190611c68565b6020604051808303816000875af115801561152d573d6000803e3d6000fd5b505050506040513d601f19601f820116820180604052508101906115519190612237565b9050611567673cc8f668e279ea8b60c01b610350565b3460026000611574610353565b73ffffffffffffffffffffffffffffffffffffffff1673ffffffffffffffffffffffffffffffffffffffff16815260200190815260200160002060008282546115bd91906117ce565b925050819055506115d86778016f3b69911bde60c01b610350565b6115ec67669ade57aa10c5fe60c01b610350565b8091505090565b6115fb61178d565b73ffffffffffffffffffffffffffffffffffffffff16611619610353565b73ffffffffffffffffffffffffffffffffffffffff161461166f576040517f08c379a0000000000000000000000000000000000000000000000000000000008152600401611666906122e7565b60405180910390fd5b565b6002600154036116b6576040517f08c379a00000000000000000000000000000000000000000000000000000000081526004016116ad90612353565b60405180910390fd5b6002600181905550565b60018081905550565b60008060009054906101000a900473ffffffffffffffffffffffffffffffffffffffff169050816000806101000a81548173ffffffffffffffffffffffffffffffffffffffff021916908373ffffffffffffffffffffffffffffffffffffffff1602179055508173ffffffffffffffffffffffffffffffffffffffff168173ffffffffffffffffffffffffffffffffffffffff167f8be0079c531659141344cd1fd0a4f28419497f9722a3daafe3b4186f6b6457e060405160405180910390a35050565b600033905090565b6000819050919050565b7f4e487b7100000000000000000000000000000000000000000000000000000000600052601160045260246000fd5b60006117d982611795565b91506117e483611795565b92508282019050808211156117fc576117fb61179f565b5b92915050565b6000604051905090565b600080fd5b600080fd5b61181f81611795565b811461182a57600080fd5b50565b60008135905061183c81611816565b92915050565b6000602082840312156118585761185761180c565b5b60006118668482850161182d565b91505092915050565b60008115159050919050565b6118848161186f565b82525050565b600060208201905061189f600083018461187b565b92915050565b6118ae81611795565b82525050565b60006020820190506118c960008301846118a5565b92915050565b600073ffffffffffffffffffffffffffffffffffffffff82169050919050565b60006118fa826118cf565b9050919050565b61190a816118ef565b811461191557600080fd5b50565b60008135905061192781611901565b92915050565b600080600080608085870312156119475761194661180c565b5b600061195587828801611918565b94505060206119668782880161182d565b935050604061197787828801611918565b92505060606119888782880161182d565b91505092959194509250565b600080fd5b600080fd5b600080fd5b60008083601f8401126119b9576119b8611994565b5b8235905067ffffffffffffffff8111156119d6576119d5611999565b5b6020830191508360018202830111156119f2576119f161199e565b5b9250929050565b600080fd5b6000601f19601f8301169050919050565b7f4e487b7100000000000000000000000000000000000000000000000000000000600052604160045260246000fd5b611a47826119fe565b810181811067ffffffffffffffff82111715611a6657611a65611a0f565b5b80604052505050565b6000611a79611802565b9050611a858282611a3e565b919050565b600067ffffffffffffffff821115611aa557611aa4611a0f565b5b611aae826119fe565b9050602081019050919050565b82818337600083830152505050565b6000611add611ad884611a8a565b611a6f565b905082815260208101848484011115611af957611af86119f9565b5b611b04848285611abb565b509392505050565b600082601f830112611b2157611b20611994565b5b8135611b31848260208601611aca565b91505092915050565b60008060008060008060008060008060e08b8d031215611b5d57611b5c61180c565b5b6000611b6b8d828e0161182d565b9a505060208b013567ffffffffffffffff811115611b8c57611b8b611811565b5b611b988d828e016119a3565b995099505060408b013567ffffffffffffffff811115611bbb57611bba611811565b5b611bc78d828e016119a3565b975097505060608b013567ffffffffffffffff811115611bea57611be9611811565b5b611bf68d828e016119a3565b95509550506080611c098d828e0161182d565b93505060a0611c1a8d828e0161182d565b92505060c08b013567ffffffffffffffff811115611c3b57611c3a611811565b5b611c478d828e01611b0c565b9150509295989b9194979a5092959850565b611c62816118ef565b82525050565b6000602082019050611c7d6000830184611c59565b92915050565b600060208284031215611c9957611c9861180c565b5b6000611ca784828501611918565b91505092915050565b600082825260208201905092915050565b7f507269636520696e636f72726563740000000000000000000000000000000000600082015250565b6000611cf7600f83611cb0565b9150611d0282611cc1565b602082019050919050565b60006020820190508181036000830152611d2681611cea565b9050919050565b6000604082019050611d4260008301856118a5565b611d4f60208301846118a5565b9392505050565b6000611d6182611795565b9150611d6c83611795565b9250828202611d7a81611795565b91508282048414831517611d9157611d9061179f565b5b5092915050565b7f4e487b7100000000000000000000000000000000000000000000000000000000600052601260045260246000fd5b6000611dd282611795565b9150611ddd83611795565b925082611ded57611dec611d98565b5b828204905092915050565b6000611e0382611795565b9150611e0e83611795565b9250828203905081811115611e2657611e2561179f565b5b92915050565b7f416d6f756e74206d7573742062652067726561746572207468616e207a65726f600082015250565b6000611e62602083611cb0565b9150611e6d82611e2c565b602082019050919050565b60006020820190508181036000830152611e9181611e55565b9050919050565b7f496e73756666696369656e742062616c616e636520696e20636f6e7472616374600082015250565b6000611ece602083611cb0565b9150611ed982611e98565b602082019050919050565b60006020820190508181036000830152611efd81611ec1565b9050919050565b600081905092915050565b50565b6000611f1f600083611f04565b9150611f2a82611f0f565b600082019050919050565b6000611f4082611f12565b9150819050919050565b7f5472616e73666572206661696c65642e00000000000000000000000000000000600082015250565b6000611f80601083611cb0565b9150611f8b82611f4a565b602082019050919050565b60006020820190508181036000830152611faf81611f73565b9050919050565b600081519050611fc581611901565b92915050565b600060208284031215611fe157611fe061180c565b5b6000611fef84828501611fb6565b91505092915050565b7f446f6e27742068617665206163636573732c20627579206f72206368616e676560008201527f204d656d626572546f6b656e0000000000000000000000000000000000000000602082015250565b6000612054602c83611cb0565b915061205f82611ff8565b604082019050919050565b6000602082019050818103600083015261208381612047565b9050919050565b7f4e6f7420656e6f75676800000000000000000000000000000000000000000000600082015250565b60006120c0600a83611cb0565b91506120cb8261208a565b602082019050919050565b600060208201905081810360008301526120ef816120b3565b9050919050565b60006121028385611cb0565b935061210f838584611abb565b612118836119fe565b840190509392505050565b600081519050919050565b60005b8381101561214c578082015181840152602081019050612131565b60008484015250505050565b600061216382612123565b61216d8185611cb0565b935061217d81856020860161212e565b612186816119fe565b840191505092915050565b600060e0820190506121a6600083018d611c59565b81810360208301526121b9818b8d6120f6565b905081810360408301526121ce81898b6120f6565b905081810360608301526121e38187896120f6565b90506121f260808301866118a5565b6121ff60a08301856118a5565b81810360c08301526122118184612158565b90509b9a5050505050505050505050565b60008151905061223181611816565b92915050565b60006020828403121561224d5761224c61180c565b5b600061225b84828501612222565b91505092915050565b60006060820190506122796000830186611c59565b61228660208301856118a5565b61229360408301846118a5565b949350505050565b7f4f776e61626c653a2063616c6c6572206973206e6f7420746865206f776e6572600082015250565b60006122d1602083611cb0565b91506122dc8261229b565b602082019050919050565b60006020820190508181036000830152612300816122c4565b9050919050565b7f5265656e7472616e637947756172643a207265656e7472616e742063616c6c00600082015250565b600061233d601f83611cb0565b915061234882612307565b602082019050919050565b6000602082019050818103600083015261236c81612330565b905091905056fea2646970667358221220c207177fa9ecc53377f75f9afa2b6ba96b20fafd05dd612b28804b3b63bd33f464736f6c63430008120033",
  "linkReferences": {},
  "deployedLinkReferences": {}
}