{
  "_format": "hh-sol-artifact-1",
  "contractName": "TheSourceMarketPlace",
  "sourceName": "contracts/TheSourceMarketPlace.sol",
  "abi": [
    {
      "inputs": [
        {
          "internalType": "address",
          "name": "_addr",
          "type": "address"
        }
      ],
      "stateMutability": "nonpayable",
      "type": "constructor"
    },
    {
      "anonymous": false,
      "inputs": [
        {
          "indexed": true,
          "internalType": "address",
          "name": "previousOwner",
          "type": "address"
        },
        {
          "indexed": true,
          "internalType": "address",
          "name": "newOwner",
          "type": "address"
        }
      ],
      "name": "OwnershipTransferred",
      "type": "event"
    },
    {
      "inputs": [],
      "name": "getAddressToken",
      "outputs": [
        {
          "internalType": "address",
          "name": "",
          "type": "address"
        }
      ],
      "stateMutability": "view",
      "type": "function"
    },
    {
      "inputs": [],
      "name": "getSymbol",
      "outputs": [
        {
          "internalType": "string",
          "name": "",
          "type": "string"
        }
      ],
      "stateMutability": "view",
      "type": "function"
    },
    {
      "inputs": [
        {
          "internalType": "address",
          "name": "to",
          "type": "address"
        }
      ],
      "name": "mintMemberToken",
      "outputs": [
        {
          "internalType": "uint256",
          "name": "",
          "type": "uint256"
        }
      ],
      "stateMutability": "nonpayable",
      "type": "function"
    },
    {
      "inputs": [],
      "name": "owner",
      "outputs": [
        {
          "internalType": "address",
          "name": "",
          "type": "address"
        }
      ],
      "stateMutability": "view",
      "type": "function"
    },
    {
      "inputs": [],
      "name": "renounceOwnership",
      "outputs": [],
      "stateMutability": "nonpayable",
      "type": "function"
    },
    {
      "inputs": [
        {
          "internalType": "address",
          "name": "newOwner",
          "type": "address"
        }
      ],
      "name": "transferOwnership",
      "outputs": [],
      "stateMutability": "nonpayable",
      "type": "function"
    }
  ],
  "bytecode": "0x608060405234801561001057600080fd5b506040516105b33803806105b383398101604081905261002f916100ad565b6100383361005d565b600180546001600160a01b0319166001600160a01b03929092169190911790556100dd565b600080546001600160a01b038381166001600160a01b0319831681178455604051919092169283917f8be0079c531659141344cd1fd0a4f28419497f9722a3daafe3b4186f6b6457e09190a35050565b6000602082840312156100bf57600080fd5b81516001600160a01b03811681146100d657600080fd5b9392505050565b6104c7806100ec6000396000f3fe608060405234801561001057600080fd5b50600436106100625760003560e01c80631507040114610067578063715018a6146100855780638da5cb5b1461008f578063ba7fb1df146100b4578063cdc07781146100c5578063f2fde38b146100e6575b600080fd5b61006f6100f9565b60405161007c9190610359565b60405180910390f35b61008d61017e565b005b6000546001600160a01b03165b6040516001600160a01b03909116815260200161007c565b6001546001600160a01b031661009c565b6100d86100d336600461038c565b610192565b60405190815260200161007c565b61008d6100f436600461038c565b61020d565b60606000600160009054906101000a90046001600160a01b03166001600160a01b03166395d89b416040518163ffffffff1660e01b8152600401600060405180830381865afa158015610150573d6000803e3d6000fd5b505050506040513d6000823e601f3d908101601f1916820160405261017891908101906103cb565b92915050565b61018661028b565b61019060006102e5565b565b6001546040516340d097c360e01b81526001600160a01b03838116600483015260009283929116906340d097c3906024016020604051808303816000875af11580156101e2573d6000803e3d6000fd5b505050506040513d601f19601f820116820180604052508101906102069190610478565b9392505050565b61021561028b565b6001600160a01b03811661027f5760405162461bcd60e51b815260206004820152602660248201527f4f776e61626c653a206e6577206f776e657220697320746865207a65726f206160448201526564647265737360d01b60648201526084015b60405180910390fd5b610288816102e5565b50565b6000546001600160a01b031633146101905760405162461bcd60e51b815260206004820181905260248201527f4f776e61626c653a2063616c6c6572206973206e6f7420746865206f776e65726044820152606401610276565b600080546001600160a01b038381166001600160a01b0319831681178455604051919092169283917f8be0079c531659141344cd1fd0a4f28419497f9722a3daafe3b4186f6b6457e09190a35050565b60005b83811015610350578181015183820152602001610338565b50506000910152565b6020815260008251806020840152610378816040850160208701610335565b601f01601f19169190910160400192915050565b60006020828403121561039e57600080fd5b81356001600160a01b038116811461020657600080fd5b634e487b7160e01b600052604160045260246000fd5b6000602082840312156103dd57600080fd5b815167ffffffffffffffff808211156103f557600080fd5b818401915084601f83011261040957600080fd5b81518181111561041b5761041b6103b5565b604051601f8201601f19908116603f01168101908382118183101715610443576104436103b5565b8160405282815287602084870101111561045c57600080fd5b61046d836020830160208801610335565b979650505050505050565b60006020828403121561048a57600080fd5b505191905056fea2646970667358221220991898cbb075f8289763ef9912b433e325c0c86c70ed1d03f0dbbe5c6db37faf64736f6c63430008130033",
  "linkReferences": {},
  "deployedLinkReferences": {}
}