{
  "_format": "hh-sol-artifact-1",
  "contractName": "Royalties2",
  "sourceName": "contracts/TheSourceArticle.sol",
  "abi": [
    {
      "inputs": [
        {
          "internalType": "uint256",
          "name": "tokenId",
          "type": "uint256"
        },
        {
          "internalType": "uint256",
          "name": "value",
          "type": "uint256"
        }
      ],
      "name": "royaltyInfo",
      "outputs": [
        {
          "internalType": "address",
          "name": "receiver",
          "type": "address"
        },
        {
          "internalType": "uint256",
          "name": "royaltyAmount",
          "type": "uint256"
        }
      ],
      "stateMutability": "view",
      "type": "function"
    },
    {
      "inputs": [
        {
          "internalType": "bytes4",
          "name": "interfaceId",
          "type": "bytes4"
        }
      ],
      "name": "supportsInterface",
      "outputs": [
        {
          "internalType": "bool",
          "name": "",
          "type": "bool"
        }
      ],
      "stateMutability": "view",
      "type": "function"
    }
  ],
  "bytecode": "0x608060405234801561001057600080fd5b506105ec806100206000396000f3fe608060405234801561001057600080fd5b50600436106100365760003560e01c806301ffc9a71461003b5780632a55205a1461006b575b600080fd5b61005560048036038101906100509190610393565b61009c565b60405161006291906103db565b60405180910390f35b6100856004803603810190610080919061042c565b61018a565b6040516100939291906104bc565b60405180910390f35b60006100b26773b9ffdc4e5988b360c01b6102be565b6100c667817be00a0b99913860c01b6102be565b6100da67923cada0b14806d160c01b6102be565b7f2a55205a000000000000000000000000000000000000000000000000000000007bffffffffffffffffffffffffffffffffffffffffffffffffffffffff1916827bffffffffffffffffffffffffffffffffffffffffffffffffffffffff191614801561015757506101566712506ed99b8c2bb760c01b6102c1565b5b806101835750610166826102cc565b80156101825750610181671d6ee90fc1d0dda960c01b6102c1565b5b5b9050919050565b6000806101a16795283bd88b2d662060c01b6102be565b6101b567fd3cc38330c6591360c01b6102be565b6101c967c277891e6bc9b3d760c01b6102be565b60008060008681526020019081526020016000206040518060400160405290816000820160009054906101000a900473ffffffffffffffffffffffffffffffffffffffff1673ffffffffffffffffffffffffffffffffffffffff1673ffffffffffffffffffffffffffffffffffffffff1681526020016000820160149054906101000a900462ffffff1662ffffff1662ffffff1681525050905061027767e532dcfb9d8738d760c01b6102be565b8060000151925061029267e492626cea3f259460c01b6102be565b612710816020015162ffffff16856102aa9190610514565b6102b49190610585565b9150509250929050565b50565b600060019050919050565b60007f01ffc9a7000000000000000000000000000000000000000000000000000000007bffffffffffffffffffffffffffffffffffffffffffffffffffffffff1916827bffffffffffffffffffffffffffffffffffffffffffffffffffffffff1916149050919050565b600080fd5b60007fffffffff0000000000000000000000000000000000000000000000000000000082169050919050565b6103708161033b565b811461037b57600080fd5b50565b60008135905061038d81610367565b92915050565b6000602082840312156103a9576103a8610336565b5b60006103b78482850161037e565b91505092915050565b60008115159050919050565b6103d5816103c0565b82525050565b60006020820190506103f060008301846103cc565b92915050565b6000819050919050565b610409816103f6565b811461041457600080fd5b50565b60008135905061042681610400565b92915050565b6000806040838503121561044357610442610336565b5b600061045185828601610417565b925050602061046285828601610417565b9150509250929050565b600073ffffffffffffffffffffffffffffffffffffffff82169050919050565b60006104978261046c565b9050919050565b6104a78161048c565b82525050565b6104b6816103f6565b82525050565b60006040820190506104d1600083018561049e565b6104de60208301846104ad565b9392505050565b7f4e487b7100000000000000000000000000000000000000000000000000000000600052601160045260246000fd5b600061051f826103f6565b915061052a836103f6565b9250828202610538816103f6565b9150828204841483151761054f5761054e6104e5565b5b5092915050565b7f4e487b7100000000000000000000000000000000000000000000000000000000600052601260045260246000fd5b6000610590826103f6565b915061059b836103f6565b9250826105ab576105aa610556565b5b82820490509291505056fea26469706673582212207cac66b858bd8de24ba0450fd3bc3fb1ebc4daa6dafc55f7023092af5edcf6c664736f6c63430008130033",
  "linkReferences": {},
  "deployedLinkReferences": {}
}