{
  "_format": "hh-sol-artifact-1",
  "contractName": "TheSourceArticle",
  "sourceName": "contracts/TheSourceArticle.sol",
  "abi": [
    {
      "inputs": [
        {
          "internalType": "address",
          "name": "_marketPlaceAddr",
          "type": "address"
        },
        {
          "internalType": "uint256",
          "name": "_royalties",
          "type": "uint256"
        }
      ],
      "stateMutability": "nonpayable",
      "type": "constructor"
    },
    {
      "anonymous": false,
      "inputs": [
        {
          "indexed": true,
          "internalType": "address",
          "name": "account",
          "type": "address"
        },
        {
          "indexed": true,
          "internalType": "address",
          "name": "operator",
          "type": "address"
        },
        {
          "indexed": false,
          "internalType": "bool",
          "name": "approved",
          "type": "bool"
        }
      ],
      "name": "ApprovalForAll",
      "type": "event"
    },
    {
      "anonymous": false,
      "inputs": [
        {
          "indexed": true,
          "internalType": "address",
          "name": "previousOwner",
          "type": "address"
        },
        {
          "indexed": true,
          "internalType": "address",
          "name": "newOwner",
          "type": "address"
        }
      ],
      "name": "OwnershipTransferred",
      "type": "event"
    },
    {
      "anonymous": false,
      "inputs": [
        {
          "indexed": true,
          "internalType": "address",
          "name": "operator",
          "type": "address"
        },
        {
          "indexed": true,
          "internalType": "address",
          "name": "from",
          "type": "address"
        },
        {
          "indexed": true,
          "internalType": "address",
          "name": "to",
          "type": "address"
        },
        {
          "indexed": false,
          "internalType": "uint256[]",
          "name": "ids",
          "type": "uint256[]"
        },
        {
          "indexed": false,
          "internalType": "uint256[]",
          "name": "values",
          "type": "uint256[]"
        }
      ],
      "name": "TransferBatch",
      "type": "event"
    },
    {
      "anonymous": false,
      "inputs": [
        {
          "indexed": true,
          "internalType": "address",
          "name": "operator",
          "type": "address"
        },
        {
          "indexed": true,
          "internalType": "address",
          "name": "from",
          "type": "address"
        },
        {
          "indexed": true,
          "internalType": "address",
          "name": "to",
          "type": "address"
        },
        {
          "indexed": false,
          "internalType": "uint256",
          "name": "id",
          "type": "uint256"
        },
        {
          "indexed": false,
          "internalType": "uint256",
          "name": "value",
          "type": "uint256"
        }
      ],
      "name": "TransferSingle",
      "type": "event"
    },
    {
      "anonymous": false,
      "inputs": [
        {
          "indexed": false,
          "internalType": "string",
          "name": "value",
          "type": "string"
        },
        {
          "indexed": true,
          "internalType": "uint256",
          "name": "id",
          "type": "uint256"
        }
      ],
      "name": "URI",
      "type": "event"
    },
    {
      "inputs": [
        {
          "internalType": "address",
          "name": "account",
          "type": "address"
        },
        {
          "internalType": "uint256",
          "name": "id",
          "type": "uint256"
        }
      ],
      "name": "balanceOf",
      "outputs": [
        {
          "internalType": "uint256",
          "name": "",
          "type": "uint256"
        }
      ],
      "stateMutability": "view",
      "type": "function"
    },
    {
      "inputs": [
        {
          "internalType": "address[]",
          "name": "accounts",
          "type": "address[]"
        },
        {
          "internalType": "uint256[]",
          "name": "ids",
          "type": "uint256[]"
        }
      ],
      "name": "balanceOfBatch",
      "outputs": [
        {
          "internalType": "uint256[]",
          "name": "",
          "type": "uint256[]"
        }
      ],
      "stateMutability": "view",
      "type": "function"
    },
    {
      "inputs": [
        {
          "internalType": "uint256",
          "name": "_articleId",
          "type": "uint256"
        },
        {
          "internalType": "uint256",
          "name": "value",
          "type": "uint256"
        }
      ],
      "name": "buyArticle",
      "outputs": [],
      "stateMutability": "nonpayable",
      "type": "function"
    },
    {
      "inputs": [
        {
          "internalType": "uint256",
          "name": "_articleId",
          "type": "uint256"
        }
      ],
      "name": "getArticle",
      "outputs": [
        {
          "components": [
            {
              "internalType": "string",
              "name": "title",
              "type": "string"
            },
            {
              "internalType": "string",
              "name": "description",
              "type": "string"
            },
            {
              "internalType": "string",
              "name": "authorName",
              "type": "string"
            },
            {
              "internalType": "address",
              "name": "authorAddress",
              "type": "address"
            },
            {
              "internalType": "uint256",
              "name": "supply",
              "type": "uint256"
            },
            {
              "internalType": "uint256",
              "name": "priceInFinney",
              "type": "uint256"
            }
          ],
          "internalType": "struct TheSourceArticle.Article",
          "name": "",
          "type": "tuple"
        }
      ],
      "stateMutability": "view",
      "type": "function"
    },
    {
      "inputs": [],
      "name": "getRoyalties",
      "outputs": [
        {
          "internalType": "uint256",
          "name": "",
          "type": "uint256"
        }
      ],
      "stateMutability": "view",
      "type": "function"
    },
    {
      "inputs": [
        {
          "internalType": "address",
          "name": "account",
          "type": "address"
        },
        {
          "internalType": "address",
          "name": "operator",
          "type": "address"
        }
      ],
      "name": "isApprovedForAll",
      "outputs": [
        {
          "internalType": "bool",
          "name": "",
          "type": "bool"
        }
      ],
      "stateMutability": "view",
      "type": "function"
    },
    {
      "inputs": [
        {
          "internalType": "address",
          "name": "to",
          "type": "address"
        },
        {
          "internalType": "uint256[]",
          "name": "ids",
          "type": "uint256[]"
        },
        {
          "internalType": "uint256[]",
          "name": "amounts",
          "type": "uint256[]"
        },
        {
          "internalType": "bytes",
          "name": "data",
          "type": "bytes"
        }
      ],
      "name": "mintBatch",
      "outputs": [],
      "stateMutability": "nonpayable",
      "type": "function"
    },
    {
      "inputs": [],
      "name": "owner",
      "outputs": [
        {
          "internalType": "address",
          "name": "",
          "type": "address"
        }
      ],
      "stateMutability": "view",
      "type": "function"
    },
    {
      "inputs": [],
      "name": "renounceOwnership",
      "outputs": [],
      "stateMutability": "nonpayable",
      "type": "function"
    },
    {
      "inputs": [
        {
          "internalType": "uint256",
          "name": "tokenId",
          "type": "uint256"
        },
        {
          "internalType": "uint256",
          "name": "value",
          "type": "uint256"
        }
      ],
      "name": "royaltyInfo",
      "outputs": [
        {
          "internalType": "address",
          "name": "receiver",
          "type": "address"
        },
        {
          "internalType": "uint256",
          "name": "royaltyAmount",
          "type": "uint256"
        }
      ],
      "stateMutability": "view",
      "type": "function"
    },
    {
      "inputs": [
        {
          "internalType": "address",
          "name": "from",
          "type": "address"
        },
        {
          "internalType": "address",
          "name": "to",
          "type": "address"
        },
        {
          "internalType": "uint256[]",
          "name": "ids",
          "type": "uint256[]"
        },
        {
          "internalType": "uint256[]",
          "name": "amounts",
          "type": "uint256[]"
        },
        {
          "internalType": "bytes",
          "name": "data",
          "type": "bytes"
        }
      ],
      "name": "safeBatchTransferFrom",
      "outputs": [],
      "stateMutability": "nonpayable",
      "type": "function"
    },
    {
      "inputs": [
        {
          "internalType": "address",
          "name": "_authorAddress",
          "type": "address"
        },
        {
          "internalType": "string",
          "name": "_title",
          "type": "string"
        },
        {
          "internalType": "string",
          "name": "_description",
          "type": "string"
        },
        {
          "internalType": "string",
          "name": "_authorName",
          "type": "string"
        },
        {
          "internalType": "uint256",
          "name": "_totalSupply",
          "type": "uint256"
        },
        {
          "internalType": "uint256",
          "name": "_priceInFinney",
          "type": "uint256"
        },
        {
          "internalType": "string",
          "name": "URI",
          "type": "string"
        }
      ],
      "name": "safeMint",
      "outputs": [
        {
          "internalType": "uint256",
          "name": "",
          "type": "uint256"
        }
      ],
      "stateMutability": "nonpayable",
      "type": "function"
    },
    {
      "inputs": [
        {
          "internalType": "address",
          "name": "from",
          "type": "address"
        },
        {
          "internalType": "address",
          "name": "to",
          "type": "address"
        },
        {
          "internalType": "uint256",
          "name": "id",
          "type": "uint256"
        },
        {
          "internalType": "uint256",
          "name": "amount",
          "type": "uint256"
        },
        {
          "internalType": "bytes",
          "name": "data",
          "type": "bytes"
        }
      ],
      "name": "safeTransferFrom",
      "outputs": [],
      "stateMutability": "nonpayable",
      "type": "function"
    },
    {
      "inputs": [
        {
          "internalType": "address",
          "name": "operator",
          "type": "address"
        },
        {
          "internalType": "bool",
          "name": "approved",
          "type": "bool"
        }
      ],
      "name": "setApprovalForAll",
      "outputs": [],
      "stateMutability": "nonpayable",
      "type": "function"
    },
    {
      "inputs": [
        {
          "internalType": "uint256",
          "name": "_royalties",
          "type": "uint256"
        }
      ],
      "name": "setRoyalties",
      "outputs": [],
      "stateMutability": "nonpayable",
      "type": "function"
    },
    {
      "inputs": [
        {
          "internalType": "bytes4",
          "name": "interfaceId",
          "type": "bytes4"
        }
      ],
      "name": "supportsInterface",
      "outputs": [
        {
          "internalType": "bool",
          "name": "",
          "type": "bool"
        }
      ],
      "stateMutability": "view",
      "type": "function"
    },
    {
      "inputs": [
        {
          "internalType": "address",
          "name": "newOwner",
          "type": "address"
        }
      ],
      "name": "transferOwnership",
      "outputs": [],
      "stateMutability": "nonpayable",
      "type": "function"
    },
    {
      "inputs": [
        {
          "internalType": "uint256",
          "name": "tokenId",
          "type": "uint256"
        }
      ],
      "name": "uri",
      "outputs": [
        {
          "internalType": "string",
          "name": "",
          "type": "string"
        }
      ],
      "stateMutability": "view",
      "type": "function"
    }
  ],
  "bytecode": "0x60806040526040518060200160405280600081525060039081620000249190620007ba565b503480156200003257600080fd5b50604051620054d9380380620054d983398181016040528101906200005891906200093c565b6040518060200160405280600081525062000079816200030960201b60201c565b506200009a6200008e6200031e60201b60201c565b6200032660201b60201c565b620000b6675cc76ed7f5e3406860c01b620003ec60201b60201c565b620000d267e14498637bbf62bd60c01b620003ec60201b60201c565b620000ee677390218b7c06512660c01b620003ec60201b60201c565b60006040518060c001604052806040518060400160405280600781526020017f47656e65736973000000000000000000000000000000000000000000000000008152508152602001604051806020016040528060008152508152602001604051806020016040528060008152508152602001600073ffffffffffffffffffffffffffffffffffffffff1681526020016000815260200160008152509050620001a7676eb67c072c8ed39360c01b620003ec60201b60201c565b620001c367589b1a6dde2c850860c01b620003ec60201b60201c565b60098190806001815401808255809150506001900390600052602060002090600602016000909190919091506000820151816000019081620002069190620007ba565b5060208201518160010190816200021e9190620007ba565b506040820151816002019081620002369190620007ba565b5060608201518160030160006101000a81548173ffffffffffffffffffffffffffffffffffffffff021916908373ffffffffffffffffffffffffffffffffffffffff1602179055506080820151816004015560a082015181600501555050620002b067f8ca83ec09ae962260c01b620003ec60201b60201c565b620002cc6761023cc2761f853760c01b620003ec60201b60201c565b620002dd83620003ef60201b60201c565b620002f96739dfbff2be938a6660c01b620003ec60201b60201c565b8160088190555050505062000a9e565b80600290816200031a9190620007ba565b5050565b600033905090565b6000600660009054906101000a900473ffffffffffffffffffffffffffffffffffffffff16905081600660006101000a81548173ffffffffffffffffffffffffffffffffffffffff021916908373ffffffffffffffffffffffffffffffffffffffff1602179055508173ffffffffffffffffffffffffffffffffffffffff168173ffffffffffffffffffffffffffffffffffffffff167f8be0079c531659141344cd1fd0a4f28419497f9722a3daafe3b4186f6b6457e060405160405180910390a35050565b50565b620003ff6200048560201b60201c565b600073ffffffffffffffffffffffffffffffffffffffff168173ffffffffffffffffffffffffffffffffffffffff160362000471576040517f08c379a0000000000000000000000000000000000000000000000000000000008152600401620004689062000a0a565b60405180910390fd5b62000482816200032660201b60201c565b50565b620004956200031e60201b60201c565b73ffffffffffffffffffffffffffffffffffffffff16620004bb6200051660201b60201c565b73ffffffffffffffffffffffffffffffffffffffff161462000514576040517f08c379a00000000000000000000000000000000000000000000000000000000081526004016200050b9062000a7c565b60405180910390fd5b565b6000600660009054906101000a900473ffffffffffffffffffffffffffffffffffffffff16905090565b600081519050919050565b7f4e487b7100000000000000000000000000000000000000000000000000000000600052604160045260246000fd5b7f4e487b7100000000000000000000000000000000000000000000000000000000600052602260045260246000fd5b60006002820490506001821680620005c257607f821691505b602082108103620005d857620005d76200057a565b5b50919050565b60008190508160005260206000209050919050565b60006020601f8301049050919050565b600082821b905092915050565b600060088302620006427fffffffffffffffffffffffffffffffffffffffffffffffffffffffffffffffff8262000603565b6200064e868362000603565b95508019841693508086168417925050509392505050565b6000819050919050565b6000819050919050565b60006200069b620006956200068f8462000666565b62000670565b62000666565b9050919050565b6000819050919050565b620006b7836200067a565b620006cf620006c682620006a2565b84845462000610565b825550505050565b600090565b620006e6620006d7565b620006f3818484620006ac565b505050565b5b818110156200071b576200070f600082620006dc565b600181019050620006f9565b5050565b601f8211156200076a576200073481620005de565b6200073f84620005f3565b810160208510156200074f578190505b620007676200075e85620005f3565b830182620006f8565b50505b505050565b600082821c905092915050565b60006200078f600019846008026200076f565b1980831691505092915050565b6000620007aa83836200077c565b9150826002028217905092915050565b620007c58262000540565b67ffffffffffffffff811115620007e157620007e06200054b565b5b620007ed8254620005a9565b620007fa8282856200071f565b600060209050601f8311600181146200083257600084156200081d578287015190505b6200082985826200079c565b86555062000899565b601f1984166200084286620005de565b60005b828110156200086c5784890151825560018201915060208501945060208101905062000845565b868310156200088c578489015162000888601f8916826200077c565b8355505b6001600288020188555050505b505050505050565b600080fd5b600073ffffffffffffffffffffffffffffffffffffffff82169050919050565b6000620008d382620008a6565b9050919050565b620008e581620008c6565b8114620008f157600080fd5b50565b6000815190506200090581620008da565b92915050565b620009168162000666565b81146200092257600080fd5b50565b60008151905062000936816200090b565b92915050565b60008060408385031215620009565762000955620008a1565b5b60006200096685828601620008f4565b9250506020620009798582860162000925565b9150509250929050565b600082825260208201905092915050565b7f4f776e61626c653a206e6577206f776e657220697320746865207a65726f206160008201527f6464726573730000000000000000000000000000000000000000000000000000602082015250565b6000620009f260268362000983565b9150620009ff8262000994565b604082019050919050565b6000602082019050818103600083015262000a2581620009e3565b9050919050565b7f4f776e61626c653a2063616c6c6572206973206e6f7420746865206f776e6572600082015250565b600062000a6460208362000983565b915062000a718262000a2c565b602082019050919050565b6000602082019050818103600083015262000a978162000a55565b9050919050565b614a2b8062000aae6000396000f3fe608060405234801561001057600080fd5b50600436106101155760003560e01c80636aa5c352116100a2578063a22cb46511610071578063a22cb465146102f1578063bd85d8671461030d578063e985e9c51461033d578063f242432a1461036d578063f2fde38b1461038957610115565b80636aa5c3521461027d5780636cc80e5614610299578063715018a6146102c95780638da5cb5b146102d357610115565b80632a55205a116100e95780632a55205a146101c65780632b80183f146101f75780632eb2c2d61461021357806333df048e1461022f5780634e1273f41461024d57610115565b8062fdd58e1461011a57806301ffc9a71461014a5780630e89341c1461017a5780631f7fdffa146101aa575b600080fd5b610134600480360381019061012f9190612bf3565b6103a5565b6040516101419190612c42565b60405180910390f35b610164600480360381019061015f9190612cb5565b61046d565b6040516101719190612cfd565b60405180910390f35b610194600480360381019061018f9190612d18565b6104bb565b6040516101a19190612dd5565b60405180910390f35b6101c460048036038101906101bf9190612ff4565b6105a0565b005b6101e060048036038101906101db91906130af565b6105ea565b6040516101ee9291906130fe565b60405180910390f35b610211600480360381019061020c9190612d18565b61071f565b005b61022d60048036038101906102289190613127565b6108a9565b005b61023761094a565b6040516102449190612c42565b60405180910390f35b610267600480360381019061026291906132b9565b610990565b60405161027491906133ef565b60405180910390f35b610297600480360381019061029291906130af565b610aa9565b005b6102b360048036038101906102ae919061350d565b610c76565b6040516102c09190612c42565b60405180910390f35b6102d1611046565b005b6102db61105a565b6040516102e8919061362c565b60405180910390f35b61030b60048036038101906103069190613673565b611084565b005b61032760048036038101906103229190612d18565b61109a565b60405161033491906137a3565b60405180910390f35b610357600480360381019061035291906137c5565b611332565b6040516103649190612cfd565b60405180910390f35b61038760048036038101906103829190613805565b6113c6565b005b6103a3600480360381019061039e919061389c565b611467565b005b60008073ffffffffffffffffffffffffffffffffffffffff168373ffffffffffffffffffffffffffffffffffffffff1603610415576040517f08c379a000000000000000000000000000000000000000000000000000000000815260040161040c9061393b565b60405180910390fd5b60008083815260200190815260200160002060008473ffffffffffffffffffffffffffffffffffffffff1673ffffffffffffffffffffffffffffffffffffffff16815260200190815260200160002054905092915050565b6000610483673afb4363289a94a060c01b6114ea565b61049767f840b1e221c4bb3c60c01b6114ea565b6104ab6730f9ab9601c3194360c01b6114ea565b6104b4826114ed565b9050919050565b606060006004600084815260200190815260200160002080546104dd9061398a565b80601f01602080910402602001604051908101604052809291908181526020018280546105099061398a565b80156105565780601f1061052b57610100808354040283529160200191610556565b820191906000526020600020905b81548152906001019060200180831161053957829003601f168201915b5050505050905060008151116105745761056f836115db565b610598565b600381604051602001610588929190613a8f565b6040516020818303038152906040525b915050919050565b6105b46747e0c5426fbef95f60c01b6114ea565b6105bc61166f565b6105d067999e7fed15e6053360c01b6114ea565b6105e4672fdaf81fca8b2b1e60c01b6114ea565b50505050565b6000806106016795283bd88b2d662060c01b6116ed565b61061567fd3cc38330c6591360c01b6116ed565b61062967c277891e6bc9b3d760c01b6116ed565b6000600560008681526020019081526020016000206040518060400160405290816000820160009054906101000a900473ffffffffffffffffffffffffffffffffffffffff1673ffffffffffffffffffffffffffffffffffffffff1673ffffffffffffffffffffffffffffffffffffffff1681526020016000820160149054906101000a900462ffffff1662ffffff1662ffffff168152505090506106d867e532dcfb9d8738d760c01b6116ed565b806000015192506106f367e492626cea3f259460c01b6116ed565b612710816020015162ffffff168561070b9190613ae2565b6107159190613b53565b9150509250929050565b61073367411417e7cba05ab660c01b6114ea565b61073b61166f565b61074f673f6c4ba6b848f10d60c01b6114ea565b610763676f9aa04abc30b54b60c01b6114ea565b610777670c974349b3bc1e8d60c01b6114ea565b61078b67aa5c14e6f122623960c01b6114ea565b61079f6703001a3f177257ed60c01b6114ea565b620186a081106107e4576040517f08c379a00000000000000000000000000000000000000000000000000000000081526004016107db90613bd0565b60405180910390fd5b6107f86741e4f0701354247a60c01b6114ea565b61080c67011894a8c84bc8ef60c01b6114ea565b61082067ee9518aa05fc6cdd60c01b6114ea565b610834673df4bebe933eebb960c01b6114ea565b60008111610877576040517f08c379a000000000000000000000000000000000000000000000000000000000815260040161086e90613c3c565b60405180910390fd5b61088b67458b8cb134a6ca8f60c01b6114ea565b61089f6713599f7878c3bc4460c01b6114ea565b8060088190555050565b6108b16116f0565b73ffffffffffffffffffffffffffffffffffffffff168573ffffffffffffffffffffffffffffffffffffffff1614806108f757506108f6856108f16116f0565b611332565b5b610936576040517f08c379a000000000000000000000000000000000000000000000000000000000815260040161092d90613cce565b60405180910390fd5b61094385858585856116f8565b5050505050565b60006109606712744287100362f960c01b6114ea565b61097467944d23a631ecfda060c01b6114ea565b61098867e3f1977ffe4f1dd160c01b6114ea565b600854905090565b606081518351146109d6576040517f08c379a00000000000000000000000000000000000000000000000000000000081526004016109cd90613d60565b60405180910390fd5b6000835167ffffffffffffffff8111156109f3576109f2612dfc565b5b604051908082528060200260200182016040528015610a215781602001602082028036833780820191505090505b50905060005b8451811015610a9e57610a6e858281518110610a4657610a45613d80565b5b6020026020010151858381518110610a6157610a60613d80565b5b60200260200101516103a5565b828281518110610a8157610a80613d80565b5b60200260200101818152505080610a9790613daf565b9050610a27565b508091505092915050565b610abd670773c12af9f4832860c01b6114ea565b610ad16796c6df9428dafd7360c01b6114ea565b610ae567eda681e2457db39260c01b6114ea565b610af9674122f2141f9d68df60c01b6114ea565b6000610b048361109a565b6080015111610b48576040517f08c379a0000000000000000000000000000000000000000000000000000000008152600401610b3f90613e43565b60405180910390fd5b610b5c67d554b52d32d67e5b60c01b6114ea565b610b70671725a2321bc7ecbf60c01b6114ea565b610b846711ecde0e2be05fb860c01b6114ea565b610b9867d0a2d43d92d69c9f60c01b6114ea565b610ba18261109a565b60a001516103e882610bb39190613ae2565b1015610bbe57600080fd5b610bd2673b03a3bf529a592760c01b6114ea565b610be6671027780a4a1e4d5e60c01b6114ea565b610bfa674d1f7ba66e80ae4b60c01b6114ea565b610c23610c068361109a565b6060015133846001604051806020016040528060008152506113c6565b610c376721c2c57a3595e3b760c01b6114ea565b60098281548110610c4b57610c4a613d80565b5b90600052602060002090600602016004016000815480929190610c6d90613e63565b91905055505050565b6000610c8c67549e0a8db75f7ea760c01b6114ea565b610c9461166f565b610ca8673081d4f27aa93aa260c01b6114ea565b610cbc67a7ab8fb412df06f960c01b6114ea565b610cd067d0cfec21713c048060c01b6114ea565b610ce4673fe5714c3219d9d860c01b6114ea565b610cee6007611a19565b610d026786d21f66a355688960c01b6114ea565b610d16673a4f2827a902645e60c01b6114ea565b6000610d226007611a2f565b9050610d3867193a11a4c3c6a8ed60c01b6114ea565b610d4c67358d3b288c93e96560c01b6114ea565b6000610d9b8a8a8080601f016020809104026020016040519081016040528093929190818152602001838380828437600081840152601f19601f82011690508083019250505050505050611a3d565b9050610db16763438ecc76055c0c60c01b6114ea565b610dc567f71ac17d1e0025cc60c01b6114ea565b60096040518060c001604052808e8e8080601f016020809104026020016040519081016040528093929190818152602001838380828437600081840152601f19601f8201169050808301925050505050505081526020018381526020018a8a8080601f016020809104026020016040519081016040528093929190818152602001838380828437600081840152601f19601f8201169050808301925050505050505081526020018f73ffffffffffffffffffffffffffffffffffffffff1681526020018881526020018781525090806001815401808255809150506001900390600052602060002090600602016000909190919091506000820151816000019081610ed09190614023565b506020820151816001019081610ee69190614023565b506040820151816002019081610efc9190614023565b5060608201518160030160006101000a81548173ffffffffffffffffffffffffffffffffffffffff021916908373ffffffffffffffffffffffffffffffffffffffff1602179055506080820151816004015560a082015181600501555050610f6e679eef4e693fcf46c360c01b6114ea565b610f8267aa520a6ae069dbcb60c01b6114ea565b610f9d8d838860405180602001604052806000815250611cf7565b610fb1677371aac43226351d60c01b6114ea565b610fc567ab4e042bc6289a9660c01b6114ea565b610fcf8285611ea7565b610fe36780136380c809b2a660c01b6114ea565b610ff767311330e578e24fb660c01b6114ea565b61100b8261100361105a565b600854611f0c565b61101f67513fa90a4b503fa060c01b6114ea565b61103367cc801ca291fdcd2d60c01b6114ea565b81925050509a9950505050505050505050565b61104e61166f565b6110586000612080565b565b6000600660009054906101000a900473ffffffffffffffffffffffffffffffffffffffff16905090565b61109661108f6116f0565b8383612146565b5050565b6110a2612aff565b6110b6679817254a0ca8b3cc60c01b6114ea565b6110ca6771c7f018b59f96d060c01b6114ea565b6110de67a14253753cc85dfa60c01b6114ea565b600982815481106110f2576110f1613d80565b5b90600052602060002090600602016040518060c001604052908160008201805461111b9061398a565b80601f01602080910402602001604051908101604052809291908181526020018280546111479061398a565b80156111945780601f1061116957610100808354040283529160200191611194565b820191906000526020600020905b81548152906001019060200180831161117757829003601f168201915b505050505081526020016001820180546111ad9061398a565b80601f01602080910402602001604051908101604052809291908181526020018280546111d99061398a565b80156112265780601f106111fb57610100808354040283529160200191611226565b820191906000526020600020905b81548152906001019060200180831161120957829003601f168201915b5050505050815260200160028201805461123f9061398a565b80601f016020809104026020016040519081016040528092919081815260200182805461126b9061398a565b80156112b85780601f1061128d576101008083540402835291602001916112b8565b820191906000526020600020905b81548152906001019060200180831161129b57829003601f168201915b505050505081526020016003820160009054906101000a900473ffffffffffffffffffffffffffffffffffffffff1673ffffffffffffffffffffffffffffffffffffffff1673ffffffffffffffffffffffffffffffffffffffff168152602001600482015481526020016005820154815250509050919050565b6000600160008473ffffffffffffffffffffffffffffffffffffffff1673ffffffffffffffffffffffffffffffffffffffff16815260200190815260200160002060008373ffffffffffffffffffffffffffffffffffffffff1673ffffffffffffffffffffffffffffffffffffffff16815260200190815260200160002060009054906101000a900460ff16905092915050565b6113ce6116f0565b73ffffffffffffffffffffffffffffffffffffffff168573ffffffffffffffffffffffffffffffffffffffff16148061141457506114138561140e6116f0565b611332565b5b611453576040517f08c379a000000000000000000000000000000000000000000000000000000000815260040161144a90613cce565b60405180910390fd5b61146085858585856122b2565b5050505050565b61146f61166f565b600073ffffffffffffffffffffffffffffffffffffffff168173ffffffffffffffffffffffffffffffffffffffff16036114de576040517f08c379a00000000000000000000000000000000000000000000000000000000081526004016114d590614167565b60405180910390fd5b6114e781612080565b50565b50565b60006115036773b9ffdc4e5988b360c01b6116ed565b61151767817be00a0b99913860c01b6116ed565b61152b67923cada0b14806d160c01b6116ed565b7f2a55205a000000000000000000000000000000000000000000000000000000007bffffffffffffffffffffffffffffffffffffffffffffffffffffffff1916827bffffffffffffffffffffffffffffffffffffffffffffffffffffffff19161480156115a857506115a76712506ed99b8c2bb760c01b61254d565b5b806115d457506115b782612558565b80156115d357506115d2671d6ee90fc1d0dda960c01b61254d565b5b5b9050919050565b6060600280546115ea9061398a565b80601f01602080910402602001604051908101604052809291908181526020018280546116169061398a565b80156116635780601f1061163857610100808354040283529160200191611663565b820191906000526020600020905b81548152906001019060200180831161164657829003601f168201915b50505050509050919050565b6116776116f0565b73ffffffffffffffffffffffffffffffffffffffff1661169561105a565b73ffffffffffffffffffffffffffffffffffffffff16146116eb576040517f08c379a00000000000000000000000000000000000000000000000000000000081526004016116e2906141d3565b60405180910390fd5b565b50565b600033905090565b815183511461173c576040517f08c379a000000000000000000000000000000000000000000000000000000000815260040161173390614265565b60405180910390fd5b600073ffffffffffffffffffffffffffffffffffffffff168473ffffffffffffffffffffffffffffffffffffffff16036117ab576040517f08c379a00000000000000000000000000000000000000000000000000000000081526004016117a2906142f7565b60405180910390fd5b60006117b56116f0565b90506117c581878787878761263a565b60005b84518110156119765760008582815181106117e6576117e5613d80565b5b60200260200101519050600085838151811061180557611804613d80565b5b60200260200101519050600080600084815260200190815260200160002060008b73ffffffffffffffffffffffffffffffffffffffff1673ffffffffffffffffffffffffffffffffffffffff168152602001908152602001600020549050818110156118a6576040517f08c379a000000000000000000000000000000000000000000000000000000000815260040161189d90614389565b60405180910390fd5b81810360008085815260200190815260200160002060008c73ffffffffffffffffffffffffffffffffffffffff1673ffffffffffffffffffffffffffffffffffffffff168152602001908152602001600020819055508160008085815260200190815260200160002060008b73ffffffffffffffffffffffffffffffffffffffff1673ffffffffffffffffffffffffffffffffffffffff168152602001908152602001600020600082825461195b91906143a9565b925050819055505050508061196f90613daf565b90506117c8565b508473ffffffffffffffffffffffffffffffffffffffff168673ffffffffffffffffffffffffffffffffffffffff168273ffffffffffffffffffffffffffffffffffffffff167f4a39dc06d4c0dbc64b70af90fd698a233a518aa5d07e595d983b8c0526c8f7fb87876040516119ed9291906143dd565b60405180910390a4611a03818787878787612642565b611a1181878787878761264a565b505050505050565b6001816000016000828254019250508190555050565b600081600001549050919050565b6060611a5367ec14f05a4b59897760c01b6114ea565b611a67679a1d149ea29200a760c01b6114ea565b611a7b670385ea15de7b8d4560c01b6114ea565b6000600f9050611a9567875ec8f24fa2991f60c01b6114ea565b611aa9679f4ce379d32a4bc460c01b6114ea565b6000839050611ac267827be5eb9e67f0a760c01b6114ea565b611ad667768621588438195760c01b6114ea565b8160ff16815111611b2757611af5676239e751f2b6209f60c01b6114ea565b611b0967527636acbe4b04b360c01b6114ea565b611b1d67bab9d8593d0c648960c01b6114ea565b8392505050611cf2565b611b3b67c1b2cb268830b91760c01b6114ea565b611b4f67dc647639a38bcae060c01b6114ea565b611b63679582902a8dd0746860c01b6114ea565b6000600383611b729190614421565b60ff1667ffffffffffffffff811115611b8e57611b8d612dfc565b5b6040519080825280601f01601f191660200182016040528015611bc05781602001600182028036833780820191505090505b509050611bd7676978230d73e17d9460c01b6114ea565b611beb67f0266b1b69e9dc7660c01b6114ea565b60005b600384611bfb9190614421565b60ff16811015611c8c57611c196750ed4f925c196c8960c01b6114ea565b828181518110611c2c57611c2b613d80565b5b602001015160f81c60f81b828281518110611c4a57611c49613d80565b5b60200101907effffffffffffffffffffffffffffffffffffffffffffffffffffffffffffff1916908160001a9053508080611c8490613daf565b915050611bee565b50611ca1676c08240c242db89e60c01b6114ea565b80604051602001611cb291906144e9565b6040516020818303038152906040529050611cd76724f6faf2291dcd6360c01b6114ea565b611ceb673dfa6a3fe32e50c660c01b6114ea565b8093505050505b919050565b600073ffffffffffffffffffffffffffffffffffffffff168473ffffffffffffffffffffffffffffffffffffffff1603611d66576040517f08c379a0000000000000000000000000000000000000000000000000000000008152600401611d5d9061457d565b60405180910390fd5b6000611d706116f0565b90506000611d7d85612821565b90506000611d8a85612821565b9050611d9b8360008985858961263a565b8460008088815260200190815260200160002060008973ffffffffffffffffffffffffffffffffffffffff1673ffffffffffffffffffffffffffffffffffffffff1681526020019081526020016000206000828254611dfa91906143a9565b925050819055508673ffffffffffffffffffffffffffffffffffffffff16600073ffffffffffffffffffffffffffffffffffffffff168473ffffffffffffffffffffffffffffffffffffffff167fc3d58168c5ae7397731d063d5bbf3d657854427343f4c083240f7aacaa2d0f628989604051611e7892919061459d565b60405180910390a4611e8f83600089858589612642565b611e9e8360008989898961289b565b50505050505050565b80600460008481526020019081526020016000209081611ec79190614023565b50817f6bb7ff708619ba0610cba295a58592e0451dee2622938c8755667688daf3529b611ef3846104bb565b604051611f009190612dd5565b60405180910390a25050565b611f20672161e5b7e87157f960c01b6116ed565b611f3467821e9dca823768a560c01b6116ed565b611f4867b2064bad4762228f60c01b6116ed565b611f5c67e429701806ca45c760c01b6116ed565b612710811115611fa1576040517f08c379a0000000000000000000000000000000000000000000000000000000008152600401611f9890614612565b60405180910390fd5b611fb567e62929fb777ba6bc60c01b6116ed565b611fc967b53c2b386038397f60c01b6116ed565b60405180604001604052808373ffffffffffffffffffffffffffffffffffffffff1681526020018262ffffff168152506005600085815260200190815260200160002060008201518160000160006101000a81548173ffffffffffffffffffffffffffffffffffffffff021916908373ffffffffffffffffffffffffffffffffffffffff16021790555060208201518160000160146101000a81548162ffffff021916908362ffffff160217905550905050505050565b6000600660009054906101000a900473ffffffffffffffffffffffffffffffffffffffff16905081600660006101000a81548173ffffffffffffffffffffffffffffffffffffffff021916908373ffffffffffffffffffffffffffffffffffffffff1602179055508173ffffffffffffffffffffffffffffffffffffffff168173ffffffffffffffffffffffffffffffffffffffff167f8be0079c531659141344cd1fd0a4f28419497f9722a3daafe3b4186f6b6457e060405160405180910390a35050565b8173ffffffffffffffffffffffffffffffffffffffff168373ffffffffffffffffffffffffffffffffffffffff16036121b4576040517f08c379a00000000000000000000000000000000000000000000000000000000081526004016121ab906146a4565b60405180910390fd5b80600160008573ffffffffffffffffffffffffffffffffffffffff1673ffffffffffffffffffffffffffffffffffffffff16815260200190815260200160002060008473ffffffffffffffffffffffffffffffffffffffff1673ffffffffffffffffffffffffffffffffffffffff16815260200190815260200160002060006101000a81548160ff0219169083151502179055508173ffffffffffffffffffffffffffffffffffffffff168373ffffffffffffffffffffffffffffffffffffffff167f17307eab39ab6107e8899845ad3d59bd9653f200f220920489ca2b5937696c31836040516122a59190612cfd565b60405180910390a3505050565b600073ffffffffffffffffffffffffffffffffffffffff168473ffffffffffffffffffffffffffffffffffffffff1603612321576040517f08c379a0000000000000000000000000000000000000000000000000000000008152600401612318906142f7565b60405180910390fd5b600061232b6116f0565b9050600061233885612821565b9050600061234585612821565b905061235583898985858961263a565b600080600088815260200190815260200160002060008a73ffffffffffffffffffffffffffffffffffffffff1673ffffffffffffffffffffffffffffffffffffffff168152602001908152602001600020549050858110156123ec576040517f08c379a00000000000000000000000000000000000000000000000000000000081526004016123e390614389565b60405180910390fd5b85810360008089815260200190815260200160002060008b73ffffffffffffffffffffffffffffffffffffffff1673ffffffffffffffffffffffffffffffffffffffff168152602001908152602001600020819055508560008089815260200190815260200160002060008a73ffffffffffffffffffffffffffffffffffffffff1673ffffffffffffffffffffffffffffffffffffffff16815260200190815260200160002060008282546124a191906143a9565b925050819055508773ffffffffffffffffffffffffffffffffffffffff168973ffffffffffffffffffffffffffffffffffffffff168573ffffffffffffffffffffffffffffffffffffffff167fc3d58168c5ae7397731d063d5bbf3d657854427343f4c083240f7aacaa2d0f628a8a60405161251e92919061459d565b60405180910390a4612534848a8a86868a612642565b612542848a8a8a8a8a61289b565b505050505050505050565b600060019050919050565b60007fd9b67a26000000000000000000000000000000000000000000000000000000007bffffffffffffffffffffffffffffffffffffffffffffffffffffffff1916827bffffffffffffffffffffffffffffffffffffffffffffffffffffffff1916148061262357507f0e89341c000000000000000000000000000000000000000000000000000000007bffffffffffffffffffffffffffffffffffffffffffffffffffffffff1916827bffffffffffffffffffffffffffffffffffffffffffffffffffffffff1916145b80612633575061263282612a72565b5b9050919050565b505050505050565b505050505050565b6126698473ffffffffffffffffffffffffffffffffffffffff16612adc565b15612819578373ffffffffffffffffffffffffffffffffffffffff1663bc197c8187878686866040518663ffffffff1660e01b81526004016126af95949392919061470e565b6020604051808303816000875af19250505080156126eb57506040513d601f19601f820116820180604052508101906126e8919061478b565b60015b612790576126f76147c5565b806308c379a003612753575061270b6147e7565b806127165750612755565b806040517f08c379a000000000000000000000000000000000000000000000000000000000815260040161274a9190612dd5565b60405180910390fd5b505b6040517f08c379a0000000000000000000000000000000000000000000000000000000008152600401612787906148e9565b60405180910390fd5b63bc197c8160e01b7bffffffffffffffffffffffffffffffffffffffffffffffffffffffff1916817bffffffffffffffffffffffffffffffffffffffffffffffffffffffff191614612817576040517f08c379a000000000000000000000000000000000000000000000000000000000815260040161280e9061497b565b60405180910390fd5b505b505050505050565b60606000600167ffffffffffffffff8111156128405761283f612dfc565b5b60405190808252806020026020018201604052801561286e5781602001602082028036833780820191505090505b509050828160008151811061288657612885613d80565b5b60200260200101818152505080915050919050565b6128ba8473ffffffffffffffffffffffffffffffffffffffff16612adc565b15612a6a578373ffffffffffffffffffffffffffffffffffffffff1663f23a6e6187878686866040518663ffffffff1660e01b815260040161290095949392919061499b565b6020604051808303816000875af192505050801561293c57506040513d601f19601f82011682018060405250810190612939919061478b565b60015b6129e1576129486147c5565b806308c379a0036129a4575061295c6147e7565b8061296757506129a6565b806040517f08c379a000000000000000000000000000000000000000000000000000000000815260040161299b9190612dd5565b60405180910390fd5b505b6040517f08c379a00000000000000000000000000000000000000000000000000000000081526004016129d8906148e9565b60405180910390fd5b63f23a6e6160e01b7bffffffffffffffffffffffffffffffffffffffffffffffffffffffff1916817bffffffffffffffffffffffffffffffffffffffffffffffffffffffff191614612a68576040517f08c379a0000000000000000000000000000000000000000000000000000000008152600401612a5f9061497b565b60405180910390fd5b505b505050505050565b60007f01ffc9a7000000000000000000000000000000000000000000000000000000007bffffffffffffffffffffffffffffffffffffffffffffffffffffffff1916827bffffffffffffffffffffffffffffffffffffffffffffffffffffffff1916149050919050565b6000808273ffffffffffffffffffffffffffffffffffffffff163b119050919050565b6040518060c00160405280606081526020016060815260200160608152602001600073ffffffffffffffffffffffffffffffffffffffff16815260200160008152602001600081525090565b6000604051905090565b600080fd5b600080fd5b600073ffffffffffffffffffffffffffffffffffffffff82169050919050565b6000612b8a82612b5f565b9050919050565b612b9a81612b7f565b8114612ba557600080fd5b50565b600081359050612bb781612b91565b92915050565b6000819050919050565b612bd081612bbd565b8114612bdb57600080fd5b50565b600081359050612bed81612bc7565b92915050565b60008060408385031215612c0a57612c09612b55565b5b6000612c1885828601612ba8565b9250506020612c2985828601612bde565b9150509250929050565b612c3c81612bbd565b82525050565b6000602082019050612c576000830184612c33565b92915050565b60007fffffffff0000000000000000000000000000000000000000000000000000000082169050919050565b612c9281612c5d565b8114612c9d57600080fd5b50565b600081359050612caf81612c89565b92915050565b600060208284031215612ccb57612cca612b55565b5b6000612cd984828501612ca0565b91505092915050565b60008115159050919050565b612cf781612ce2565b82525050565b6000602082019050612d126000830184612cee565b92915050565b600060208284031215612d2e57612d2d612b55565b5b6000612d3c84828501612bde565b91505092915050565b600081519050919050565b600082825260208201905092915050565b60005b83811015612d7f578082015181840152602081019050612d64565b60008484015250505050565b6000601f19601f8301169050919050565b6000612da782612d45565b612db18185612d50565b9350612dc1818560208601612d61565b612dca81612d8b565b840191505092915050565b60006020820190508181036000830152612def8184612d9c565b905092915050565b600080fd5b7f4e487b7100000000000000000000000000000000000000000000000000000000600052604160045260246000fd5b612e3482612d8b565b810181811067ffffffffffffffff82111715612e5357612e52612dfc565b5b80604052505050565b6000612e66612b4b565b9050612e728282612e2b565b919050565b600067ffffffffffffffff821115612e9257612e91612dfc565b5b602082029050602081019050919050565b600080fd5b6000612ebb612eb684612e77565b612e5c565b90508083825260208201905060208402830185811115612ede57612edd612ea3565b5b835b81811015612f075780612ef38882612bde565b845260208401935050602081019050612ee0565b5050509392505050565b600082601f830112612f2657612f25612df7565b5b8135612f36848260208601612ea8565b91505092915050565b600080fd5b600067ffffffffffffffff821115612f5f57612f5e612dfc565b5b612f6882612d8b565b9050602081019050919050565b82818337600083830152505050565b6000612f97612f9284612f44565b612e5c565b905082815260208101848484011115612fb357612fb2612f3f565b5b612fbe848285612f75565b509392505050565b600082601f830112612fdb57612fda612df7565b5b8135612feb848260208601612f84565b91505092915050565b6000806000806080858703121561300e5761300d612b55565b5b600061301c87828801612ba8565b945050602085013567ffffffffffffffff81111561303d5761303c612b5a565b5b61304987828801612f11565b935050604085013567ffffffffffffffff81111561306a57613069612b5a565b5b61307687828801612f11565b925050606085013567ffffffffffffffff81111561309757613096612b5a565b5b6130a387828801612fc6565b91505092959194509250565b600080604083850312156130c6576130c5612b55565b5b60006130d485828601612bde565b92505060206130e585828601612bde565b9150509250929050565b6130f881612b7f565b82525050565b600060408201905061311360008301856130ef565b6131206020830184612c33565b9392505050565b600080600080600060a0868803121561314357613142612b55565b5b600061315188828901612ba8565b955050602061316288828901612ba8565b945050604086013567ffffffffffffffff81111561318357613182612b5a565b5b61318f88828901612f11565b935050606086013567ffffffffffffffff8111156131b0576131af612b5a565b5b6131bc88828901612f11565b925050608086013567ffffffffffffffff8111156131dd576131dc612b5a565b5b6131e988828901612fc6565b9150509295509295909350565b600067ffffffffffffffff82111561321157613210612dfc565b5b602082029050602081019050919050565b6000613235613230846131f6565b612e5c565b9050808382526020820190506020840283018581111561325857613257612ea3565b5b835b81811015613281578061326d8882612ba8565b84526020840193505060208101905061325a565b5050509392505050565b600082601f8301126132a05761329f612df7565b5b81356132b0848260208601613222565b91505092915050565b600080604083850312156132d0576132cf612b55565b5b600083013567ffffffffffffffff8111156132ee576132ed612b5a565b5b6132fa8582860161328b565b925050602083013567ffffffffffffffff81111561331b5761331a612b5a565b5b61332785828601612f11565b9150509250929050565b600081519050919050565b600082825260208201905092915050565b6000819050602082019050919050565b61336681612bbd565b82525050565b6000613378838361335d565b60208301905092915050565b6000602082019050919050565b600061339c82613331565b6133a6818561333c565b93506133b18361334d565b8060005b838110156133e25781516133c9888261336c565b97506133d483613384565b9250506001810190506133b5565b5085935050505092915050565b600060208201905081810360008301526134098184613391565b905092915050565b600080fd5b60008083601f84011261342c5761342b612df7565b5b8235905067ffffffffffffffff81111561344957613448613411565b5b60208301915083600182028301111561346557613464612ea3565b5b9250929050565b600067ffffffffffffffff82111561348757613486612dfc565b5b61349082612d8b565b9050602081019050919050565b60006134b06134ab8461346c565b612e5c565b9050828152602081018484840111156134cc576134cb612f3f565b5b6134d7848285612f75565b509392505050565b600082601f8301126134f4576134f3612df7565b5b813561350484826020860161349d565b91505092915050565b60008060008060008060008060008060e08b8d0312156135305761352f612b55565b5b600061353e8d828e01612ba8565b9a505060208b013567ffffffffffffffff81111561355f5761355e612b5a565b5b61356b8d828e01613416565b995099505060408b013567ffffffffffffffff81111561358e5761358d612b5a565b5b61359a8d828e01613416565b975097505060608b013567ffffffffffffffff8111156135bd576135bc612b5a565b5b6135c98d828e01613416565b955095505060806135dc8d828e01612bde565b93505060a06135ed8d828e01612bde565b92505060c08b013567ffffffffffffffff81111561360e5761360d612b5a565b5b61361a8d828e016134df565b9150509295989b9194979a5092959850565b600060208201905061364160008301846130ef565b92915050565b61365081612ce2565b811461365b57600080fd5b50565b60008135905061366d81613647565b92915050565b6000806040838503121561368a57613689612b55565b5b600061369885828601612ba8565b92505060206136a98582860161365e565b9150509250929050565b600082825260208201905092915050565b60006136cf82612d45565b6136d981856136b3565b93506136e9818560208601612d61565b6136f281612d8b565b840191505092915050565b61370681612b7f565b82525050565b600060c083016000830151848203600086015261372982826136c4565b9150506020830151848203602086015261374382826136c4565b9150506040830151848203604086015261375d82826136c4565b915050606083015161377260608601826136fd565b506080830151613785608086018261335d565b5060a083015161379860a086018261335d565b508091505092915050565b600060208201905081810360008301526137bd818461370c565b905092915050565b600080604083850312156137dc576137db612b55565b5b60006137ea85828601612ba8565b92505060206137fb85828601612ba8565b9150509250929050565b600080600080600060a0868803121561382157613820612b55565b5b600061382f88828901612ba8565b955050602061384088828901612ba8565b945050604061385188828901612bde565b935050606061386288828901612bde565b925050608086013567ffffffffffffffff81111561388357613882612b5a565b5b61388f88828901612fc6565b9150509295509295909350565b6000602082840312156138b2576138b1612b55565b5b60006138c084828501612ba8565b91505092915050565b7f455243313135353a2061646472657373207a65726f206973206e6f742061207660008201527f616c6964206f776e657200000000000000000000000000000000000000000000602082015250565b6000613925602a83612d50565b9150613930826138c9565b604082019050919050565b6000602082019050818103600083015261395481613918565b9050919050565b7f4e487b7100000000000000000000000000000000000000000000000000000000600052602260045260246000fd5b600060028204905060018216806139a257607f821691505b6020821081036139b5576139b461395b565b5b50919050565b600081905092915050565b60008190508160005260206000209050919050565b600081546139e88161398a565b6139f281866139bb565b94506001821660008114613a0d5760018114613a2257613a55565b60ff1983168652811515820286019350613a55565b613a2b856139c6565b60005b83811015613a4d57815481890152600182019150602081019050613a2e565b838801955050505b50505092915050565b6000613a6982612d45565b613a7381856139bb565b9350613a83818560208601612d61565b80840191505092915050565b6000613a9b82856139db565b9150613aa78284613a5e565b91508190509392505050565b7f4e487b7100000000000000000000000000000000000000000000000000000000600052601160045260246000fd5b6000613aed82612bbd565b9150613af883612bbd565b9250828202613b0681612bbd565b91508282048414831517613b1d57613b1c613ab3565b5b5092915050565b7f4e487b7100000000000000000000000000000000000000000000000000000000600052601260045260246000fd5b6000613b5e82612bbd565b9150613b6983612bbd565b925082613b7957613b78613b24565b5b828204905092915050565b7f57726f6e67206e756d6265722c20746f6f206269670000000000000000000000600082015250565b6000613bba601583612d50565b9150613bc582613b84565b602082019050919050565b60006020820190508181036000830152613be981613bad565b9050919050565b7f57726f6e67206e756d6265722c206e6567617469660000000000000000000000600082015250565b6000613c26601583612d50565b9150613c3182613bf0565b602082019050919050565b60006020820190508181036000830152613c5581613c19565b9050919050565b7f455243313135353a2063616c6c6572206973206e6f7420746f6b656e206f776e60008201527f6572206f7220617070726f766564000000000000000000000000000000000000602082015250565b6000613cb8602e83612d50565b9150613cc382613c5c565b604082019050919050565b60006020820190508181036000830152613ce781613cab565b9050919050565b7f455243313135353a206163636f756e747320616e6420696473206c656e67746860008201527f206d69736d617463680000000000000000000000000000000000000000000000602082015250565b6000613d4a602983612d50565b9150613d5582613cee565b604082019050919050565b60006020820190508181036000830152613d7981613d3d565b9050919050565b7f4e487b7100000000000000000000000000000000000000000000000000000000600052603260045260246000fd5b6000613dba82612bbd565b91507fffffffffffffffffffffffffffffffffffffffffffffffffffffffffffffffff8203613dec57613deb613ab3565b5b600182019050919050565b7f4e6f7468696e6720746f20627579000000000000000000000000000000000000600082015250565b6000613e2d600e83612d50565b9150613e3882613df7565b602082019050919050565b60006020820190508181036000830152613e5c81613e20565b9050919050565b6000613e6e82612bbd565b915060008203613e8157613e80613ab3565b5b600182039050919050565b60006020601f8301049050919050565b600082821b905092915050565b600060088302613ed97fffffffffffffffffffffffffffffffffffffffffffffffffffffffffffffffff82613e9c565b613ee38683613e9c565b95508019841693508086168417925050509392505050565b6000819050919050565b6000613f20613f1b613f1684612bbd565b613efb565b612bbd565b9050919050565b6000819050919050565b613f3a83613f05565b613f4e613f4682613f27565b848454613ea9565b825550505050565b600090565b613f63613f56565b613f6e818484613f31565b505050565b5b81811015613f9257613f87600082613f5b565b600181019050613f74565b5050565b601f821115613fd757613fa8816139c6565b613fb184613e8c565b81016020851015613fc0578190505b613fd4613fcc85613e8c565b830182613f73565b50505b505050565b600082821c905092915050565b6000613ffa60001984600802613fdc565b1980831691505092915050565b60006140138383613fe9565b9150826002028217905092915050565b61402c82612d45565b67ffffffffffffffff81111561404557614044612dfc565b5b61404f825461398a565b61405a828285613f96565b600060209050601f83116001811461408d576000841561407b578287015190505b6140858582614007565b8655506140ed565b601f19841661409b866139c6565b60005b828110156140c35784890151825560018201915060208501945060208101905061409e565b868310156140e057848901516140dc601f891682613fe9565b8355505b6001600288020188555050505b505050505050565b7f4f776e61626c653a206e6577206f776e657220697320746865207a65726f206160008201527f6464726573730000000000000000000000000000000000000000000000000000602082015250565b6000614151602683612d50565b915061415c826140f5565b604082019050919050565b6000602082019050818103600083015261418081614144565b9050919050565b7f4f776e61626c653a2063616c6c6572206973206e6f7420746865206f776e6572600082015250565b60006141bd602083612d50565b91506141c882614187565b602082019050919050565b600060208201905081810360008301526141ec816141b0565b9050919050565b7f455243313135353a2069647320616e6420616d6f756e7473206c656e6774682060008201527f6d69736d61746368000000000000000000000000000000000000000000000000602082015250565b600061424f602883612d50565b915061425a826141f3565b604082019050919050565b6000602082019050818103600083015261427e81614242565b9050919050565b7f455243313135353a207472616e7366657220746f20746865207a65726f20616460008201527f6472657373000000000000000000000000000000000000000000000000000000602082015250565b60006142e1602583612d50565b91506142ec82614285565b604082019050919050565b60006020820190508181036000830152614310816142d4565b9050919050565b7f455243313135353a20696e73756666696369656e742062616c616e636520666f60008201527f72207472616e7366657200000000000000000000000000000000000000000000602082015250565b6000614373602a83612d50565b915061437e82614317565b604082019050919050565b600060208201905081810360008301526143a281614366565b9050919050565b60006143b482612bbd565b91506143bf83612bbd565b92508282019050808211156143d7576143d6613ab3565b5b92915050565b600060408201905081810360008301526143f78185613391565b9050818103602083015261440b8184613391565b90509392505050565b600060ff82169050919050565b600061442c82614414565b915061443783614414565b9250828203905060ff8111156144505761444f613ab3565b5b92915050565b600081519050919050565b600081905092915050565b600061447782614456565b6144818185614461565b9350614491818560208601612d61565b80840191505092915050565b7f2e2e2e0000000000000000000000000000000000000000000000000000000000600082015250565b60006144d36003836139bb565b91506144de8261449d565b600382019050919050565b60006144f5828461446c565b9150614500826144c6565b915081905092915050565b7f455243313135353a206d696e7420746f20746865207a65726f2061646472657360008201527f7300000000000000000000000000000000000000000000000000000000000000602082015250565b6000614567602183612d50565b91506145728261450b565b604082019050919050565b600060208201905081810360008301526145968161455a565b9050919050565b60006040820190506145b26000830185612c33565b6145bf6020830184612c33565b9392505050565b7f45524332393831526f79616c746965733a20546f6f2068696768000000000000600082015250565b60006145fc601a83612d50565b9150614607826145c6565b602082019050919050565b6000602082019050818103600083015261462b816145ef565b9050919050565b7f455243313135353a2073657474696e6720617070726f76616c2073746174757360008201527f20666f722073656c660000000000000000000000000000000000000000000000602082015250565b600061468e602983612d50565b915061469982614632565b604082019050919050565b600060208201905081810360008301526146bd81614681565b9050919050565b600082825260208201905092915050565b60006146e082614456565b6146ea81856146c4565b93506146fa818560208601612d61565b61470381612d8b565b840191505092915050565b600060a08201905061472360008301886130ef565b61473060208301876130ef565b81810360408301526147428186613391565b905081810360608301526147568185613391565b9050818103608083015261476a81846146d5565b90509695505050505050565b60008151905061478581612c89565b92915050565b6000602082840312156147a1576147a0612b55565b5b60006147af84828501614776565b91505092915050565b60008160e01c9050919050565b600060033d11156147e45760046000803e6147e16000516147b8565b90505b90565b600060443d10614874576147f9612b4b565b60043d036004823e80513d602482011167ffffffffffffffff82111715614821575050614874565b808201805167ffffffffffffffff81111561483f5750505050614874565b80602083010160043d03850181111561485c575050505050614874565b61486b82602001850186612e2b565b82955050505050505b90565b7f455243313135353a207472616e7366657220746f206e6f6e2d4552433131353560008201527f526563656976657220696d706c656d656e746572000000000000000000000000602082015250565b60006148d3603483612d50565b91506148de82614877565b604082019050919050565b60006020820190508181036000830152614902816148c6565b9050919050565b7f455243313135353a204552433131353552656365697665722072656a6563746560008201527f6420746f6b656e73000000000000000000000000000000000000000000000000602082015250565b6000614965602883612d50565b915061497082614909565b604082019050919050565b6000602082019050818103600083015261499481614958565b9050919050565b600060a0820190506149b060008301886130ef565b6149bd60208301876130ef565b6149ca6040830186612c33565b6149d76060830185612c33565b81810360808301526149e981846146d5565b9050969550505050505056fea264697066735822122069b429f4a6ae1e6d17e1efd782a4a2bf035eb18c1f09425f7e6550d286269c8964736f6c63430008130033",
  "linkReferences": {},
  "deployedLinkReferences": {}
}