{
  "_format": "hh-sol-artifact-1",
  "contractName": "TheSourceArticle",
  "sourceName": "contracts/TheSourceArticle.sol",
  "abi": [
    {
      "inputs": [
        {
          "internalType": "address",
          "name": "_marketPlaceAddr",
          "type": "address"
        },
        {
          "internalType": "uint256",
          "name": "_royalties",
          "type": "uint256"
        }
      ],
      "stateMutability": "nonpayable",
      "type": "constructor"
    },
    {
      "anonymous": false,
      "inputs": [
        {
          "indexed": true,
          "internalType": "address",
          "name": "account",
          "type": "address"
        },
        {
          "indexed": true,
          "internalType": "address",
          "name": "operator",
          "type": "address"
        },
        {
          "indexed": false,
          "internalType": "bool",
          "name": "approved",
          "type": "bool"
        }
      ],
      "name": "ApprovalForAll",
      "type": "event"
    },
    {
      "anonymous": false,
      "inputs": [
        {
          "indexed": true,
          "internalType": "address",
          "name": "previousOwner",
          "type": "address"
        },
        {
          "indexed": true,
          "internalType": "address",
          "name": "newOwner",
          "type": "address"
        }
      ],
      "name": "OwnershipTransferred",
      "type": "event"
    },
    {
      "anonymous": false,
      "inputs": [
        {
          "indexed": true,
          "internalType": "address",
          "name": "operator",
          "type": "address"
        },
        {
          "indexed": true,
          "internalType": "address",
          "name": "from",
          "type": "address"
        },
        {
          "indexed": true,
          "internalType": "address",
          "name": "to",
          "type": "address"
        },
        {
          "indexed": false,
          "internalType": "uint256[]",
          "name": "ids",
          "type": "uint256[]"
        },
        {
          "indexed": false,
          "internalType": "uint256[]",
          "name": "values",
          "type": "uint256[]"
        }
      ],
      "name": "TransferBatch",
      "type": "event"
    },
    {
      "anonymous": false,
      "inputs": [
        {
          "indexed": true,
          "internalType": "address",
          "name": "operator",
          "type": "address"
        },
        {
          "indexed": true,
          "internalType": "address",
          "name": "from",
          "type": "address"
        },
        {
          "indexed": true,
          "internalType": "address",
          "name": "to",
          "type": "address"
        },
        {
          "indexed": false,
          "internalType": "uint256",
          "name": "id",
          "type": "uint256"
        },
        {
          "indexed": false,
          "internalType": "uint256",
          "name": "value",
          "type": "uint256"
        }
      ],
      "name": "TransferSingle",
      "type": "event"
    },
    {
      "anonymous": false,
      "inputs": [
        {
          "indexed": false,
          "internalType": "string",
          "name": "value",
          "type": "string"
        },
        {
          "indexed": true,
          "internalType": "uint256",
          "name": "id",
          "type": "uint256"
        }
      ],
      "name": "URI",
      "type": "event"
    },
    {
      "inputs": [
        {
          "internalType": "address",
          "name": "account",
          "type": "address"
        },
        {
          "internalType": "uint256",
          "name": "id",
          "type": "uint256"
        }
      ],
      "name": "balanceOf",
      "outputs": [
        {
          "internalType": "uint256",
          "name": "",
          "type": "uint256"
        }
      ],
      "stateMutability": "view",
      "type": "function"
    },
    {
      "inputs": [
        {
          "internalType": "address[]",
          "name": "accounts",
          "type": "address[]"
        },
        {
          "internalType": "uint256[]",
          "name": "ids",
          "type": "uint256[]"
        }
      ],
      "name": "balanceOfBatch",
      "outputs": [
        {
          "internalType": "uint256[]",
          "name": "",
          "type": "uint256[]"
        }
      ],
      "stateMutability": "view",
      "type": "function"
    },
    {
      "inputs": [
        {
          "internalType": "uint256",
          "name": "_articleId",
          "type": "uint256"
        },
        {
          "internalType": "uint256",
          "name": "value",
          "type": "uint256"
        }
      ],
      "name": "buyArticle",
      "outputs": [],
      "stateMutability": "nonpayable",
      "type": "function"
    },
    {
      "inputs": [
        {
          "internalType": "uint256",
          "name": "_articleId",
          "type": "uint256"
        }
      ],
      "name": "getArticle",
      "outputs": [
        {
          "components": [
            {
              "internalType": "string",
              "name": "title",
              "type": "string"
            },
            {
              "internalType": "string",
              "name": "description",
              "type": "string"
            },
            {
              "internalType": "string",
              "name": "authorName",
              "type": "string"
            },
            {
              "internalType": "address",
              "name": "authorAddress",
              "type": "address"
            },
            {
              "internalType": "uint256",
              "name": "supply",
              "type": "uint256"
            },
            {
              "internalType": "uint256",
              "name": "price",
              "type": "uint256"
            }
          ],
          "internalType": "struct TheSourceArticle.Article",
          "name": "",
          "type": "tuple"
        }
      ],
      "stateMutability": "view",
      "type": "function"
    },
    {
      "inputs": [
        {
          "internalType": "uint256",
          "name": "_articleId",
          "type": "uint256"
        }
      ],
      "name": "getArticleStockandPrice",
      "outputs": [
        {
          "internalType": "uint256",
          "name": "",
          "type": "uint256"
        },
        {
          "internalType": "uint256",
          "name": "",
          "type": "uint256"
        }
      ],
      "stateMutability": "view",
      "type": "function"
    },
    {
      "inputs": [],
      "name": "getNumberOfArticles",
      "outputs": [
        {
          "internalType": "uint256",
          "name": "",
          "type": "uint256"
        }
      ],
      "stateMutability": "view",
      "type": "function"
    },
    {
      "inputs": [
        {
          "internalType": "address",
          "name": "account",
          "type": "address"
        },
        {
          "internalType": "address",
          "name": "operator",
          "type": "address"
        }
      ],
      "name": "isApprovedForAll",
      "outputs": [
        {
          "internalType": "bool",
          "name": "",
          "type": "bool"
        }
      ],
      "stateMutability": "view",
      "type": "function"
    },
    {
      "inputs": [
        {
          "internalType": "address",
          "name": "to",
          "type": "address"
        },
        {
          "internalType": "uint256[]",
          "name": "ids",
          "type": "uint256[]"
        },
        {
          "internalType": "uint256[]",
          "name": "amounts",
          "type": "uint256[]"
        },
        {
          "internalType": "bytes",
          "name": "data",
          "type": "bytes"
        }
      ],
      "name": "mintBatch",
      "outputs": [],
      "stateMutability": "nonpayable",
      "type": "function"
    },
    {
      "inputs": [],
      "name": "owner",
      "outputs": [
        {
          "internalType": "address",
          "name": "",
          "type": "address"
        }
      ],
      "stateMutability": "view",
      "type": "function"
    },
    {
      "inputs": [],
      "name": "renounceOwnership",
      "outputs": [],
      "stateMutability": "nonpayable",
      "type": "function"
    },
    {
      "inputs": [],
      "name": "royalties",
      "outputs": [
        {
          "internalType": "uint256",
          "name": "",
          "type": "uint256"
        }
      ],
      "stateMutability": "view",
      "type": "function"
    },
    {
      "inputs": [
        {
          "internalType": "address",
          "name": "from",
          "type": "address"
        },
        {
          "internalType": "address",
          "name": "to",
          "type": "address"
        },
        {
          "internalType": "uint256[]",
          "name": "ids",
          "type": "uint256[]"
        },
        {
          "internalType": "uint256[]",
          "name": "amounts",
          "type": "uint256[]"
        },
        {
          "internalType": "bytes",
          "name": "data",
          "type": "bytes"
        }
      ],
      "name": "safeBatchTransferFrom",
      "outputs": [],
      "stateMutability": "nonpayable",
      "type": "function"
    },
    {
      "inputs": [
        {
          "internalType": "address",
          "name": "_authorAddress",
          "type": "address"
        },
        {
          "internalType": "string",
          "name": "_title",
          "type": "string"
        },
        {
          "internalType": "string",
          "name": "_description",
          "type": "string"
        },
        {
          "internalType": "string",
          "name": "_authorName",
          "type": "string"
        },
        {
          "internalType": "uint256",
          "name": "_totalSupply",
          "type": "uint256"
        },
        {
          "internalType": "uint256",
          "name": "_price",
          "type": "uint256"
        },
        {
          "internalType": "string",
          "name": "URI",
          "type": "string"
        }
      ],
      "name": "safeMint",
      "outputs": [
        {
          "internalType": "uint256",
          "name": "",
          "type": "uint256"
        }
      ],
      "stateMutability": "nonpayable",
      "type": "function"
    },
    {
      "inputs": [
        {
          "internalType": "address",
          "name": "from",
          "type": "address"
        },
        {
          "internalType": "address",
          "name": "to",
          "type": "address"
        },
        {
          "internalType": "uint256",
          "name": "id",
          "type": "uint256"
        },
        {
          "internalType": "uint256",
          "name": "amount",
          "type": "uint256"
        },
        {
          "internalType": "bytes",
          "name": "data",
          "type": "bytes"
        }
      ],
      "name": "safeTransferFrom",
      "outputs": [],
      "stateMutability": "nonpayable",
      "type": "function"
    },
    {
      "inputs": [
        {
          "internalType": "address",
          "name": "operator",
          "type": "address"
        },
        {
          "internalType": "bool",
          "name": "approved",
          "type": "bool"
        }
      ],
      "name": "setApprovalForAll",
      "outputs": [],
      "stateMutability": "nonpayable",
      "type": "function"
    },
    {
      "inputs": [
        {
          "internalType": "bytes4",
          "name": "interfaceId",
          "type": "bytes4"
        }
      ],
      "name": "supportsInterface",
      "outputs": [
        {
          "internalType": "bool",
          "name": "",
          "type": "bool"
        }
      ],
      "stateMutability": "view",
      "type": "function"
    },
    {
      "inputs": [
        {
          "internalType": "address",
          "name": "newOwner",
          "type": "address"
        }
      ],
      "name": "transferOwnership",
      "outputs": [],
      "stateMutability": "nonpayable",
      "type": "function"
    },
    {
      "inputs": [
        {
          "internalType": "uint256",
          "name": "tokenId",
          "type": "uint256"
        }
      ],
      "name": "uri",
      "outputs": [
        {
          "internalType": "string",
          "name": "",
          "type": "string"
        }
      ],
      "stateMutability": "view",
      "type": "function"
    }
  ],
  "bytecode": "0x60806040526040518060200160405280600081525060039081620000249190620007ba565b503480156200003257600080fd5b5060405162004ef938038062004ef983398181016040528101906200005891906200093c565b6040518060200160405280600081525062000079816200030960201b60201c565b506200009a6200008e6200031e60201b60201c565b6200032660201b60201c565b620000b66792d060514ef16c5f60c01b620003ec60201b60201c565b620000d267cf4539f5304dade360c01b620003ec60201b60201c565b620000ee67a7ab8fb412df06f960c01b620003ec60201b60201c565b60006040518060c001604052806040518060400160405280600781526020017f47656e65736973000000000000000000000000000000000000000000000000008152508152602001604051806020016040528060008152508152602001604051806020016040528060008152508152602001600073ffffffffffffffffffffffffffffffffffffffff1681526020016000815260200160008152509050620001a767d0cfec21713c048060c01b620003ec60201b60201c565b620001c3673fe5714c3219d9d860c01b620003ec60201b60201c565b60088190806001815401808255809150506001900390600052602060002090600602016000909190919091506000820151816000019081620002069190620007ba565b5060208201518160010190816200021e9190620007ba565b506040820151816002019081620002369190620007ba565b5060608201518160030160006101000a81548173ffffffffffffffffffffffffffffffffffffffff021916908373ffffffffffffffffffffffffffffffffffffffff1602179055506080820151816004015560a082015181600501555050620002b06786d21f66a355688960c01b620003ec60201b60201c565b620002cc673a4f2827a902645e60c01b620003ec60201b60201c565b620002dd83620003ef60201b60201c565b620002f967193a11a4c3c6a8ed60c01b620003ec60201b60201c565b8160078190555050505062000a9e565b80600290816200031a9190620007ba565b5050565b600033905090565b6000600560009054906101000a900473ffffffffffffffffffffffffffffffffffffffff16905081600560006101000a81548173ffffffffffffffffffffffffffffffffffffffff021916908373ffffffffffffffffffffffffffffffffffffffff1602179055508173ffffffffffffffffffffffffffffffffffffffff168173ffffffffffffffffffffffffffffffffffffffff167f8be0079c531659141344cd1fd0a4f28419497f9722a3daafe3b4186f6b6457e060405160405180910390a35050565b50565b620003ff6200048560201b60201c565b600073ffffffffffffffffffffffffffffffffffffffff168173ffffffffffffffffffffffffffffffffffffffff160362000471576040517f08c379a0000000000000000000000000000000000000000000000000000000008152600401620004689062000a0a565b60405180910390fd5b62000482816200032660201b60201c565b50565b620004956200031e60201b60201c565b73ffffffffffffffffffffffffffffffffffffffff16620004bb6200051660201b60201c565b73ffffffffffffffffffffffffffffffffffffffff161462000514576040517f08c379a00000000000000000000000000000000000000000000000000000000081526004016200050b9062000a7c565b60405180910390fd5b565b6000600560009054906101000a900473ffffffffffffffffffffffffffffffffffffffff16905090565b600081519050919050565b7f4e487b7100000000000000000000000000000000000000000000000000000000600052604160045260246000fd5b7f4e487b7100000000000000000000000000000000000000000000000000000000600052602260045260246000fd5b60006002820490506001821680620005c257607f821691505b602082108103620005d857620005d76200057a565b5b50919050565b60008190508160005260206000209050919050565b60006020601f8301049050919050565b600082821b905092915050565b600060088302620006427fffffffffffffffffffffffffffffffffffffffffffffffffffffffffffffffff8262000603565b6200064e868362000603565b95508019841693508086168417925050509392505050565b6000819050919050565b6000819050919050565b60006200069b620006956200068f8462000666565b62000670565b62000666565b9050919050565b6000819050919050565b620006b7836200067a565b620006cf620006c682620006a2565b84845462000610565b825550505050565b600090565b620006e6620006d7565b620006f3818484620006ac565b505050565b5b818110156200071b576200070f600082620006dc565b600181019050620006f9565b5050565b601f8211156200076a576200073481620005de565b6200073f84620005f3565b810160208510156200074f578190505b620007676200075e85620005f3565b830182620006f8565b50505b505050565b600082821c905092915050565b60006200078f600019846008026200076f565b1980831691505092915050565b6000620007aa83836200077c565b9150826002028217905092915050565b620007c58262000540565b67ffffffffffffffff811115620007e157620007e06200054b565b5b620007ed8254620005a9565b620007fa8282856200071f565b600060209050601f8311600181146200083257600084156200081d578287015190505b6200082985826200079c565b86555062000899565b601f1984166200084286620005de565b60005b828110156200086c5784890151825560018201915060208501945060208101905062000845565b868310156200088c578489015162000888601f8916826200077c565b8355505b6001600288020188555050505b505050505050565b600080fd5b600073ffffffffffffffffffffffffffffffffffffffff82169050919050565b6000620008d382620008a6565b9050919050565b620008e581620008c6565b8114620008f157600080fd5b50565b6000815190506200090581620008da565b92915050565b620009168162000666565b81146200092257600080fd5b50565b60008151905062000936816200090b565b92915050565b60008060408385031215620009565762000955620008a1565b5b60006200096685828601620008f4565b9250506020620009798582860162000925565b9150509250929050565b600082825260208201905092915050565b7f4f776e61626c653a206e6577206f776e657220697320746865207a65726f206160008201527f6464726573730000000000000000000000000000000000000000000000000000602082015250565b6000620009f260268362000983565b9150620009ff8262000994565b604082019050919050565b6000602082019050818103600083015262000a2581620009e3565b9050919050565b7f4f776e61626c653a2063616c6c6572206973206e6f7420746865206f776e6572600082015250565b600062000a6460208362000983565b915062000a718262000a2c565b602082019050919050565b6000602082019050818103600083015262000a978162000a55565b9050919050565b61444b8062000aae6000396000f3fe608060405234801561001057600080fd5b50600436106101155760003560e01c8063715018a6116100a2578063bd85d86711610071578063bd85d867146102f1578063e985e9c514610321578063f053dc5c14610351578063f242432a1461036f578063f2fde38b1461038b57610115565b8063715018a61461028f57806389da85d3146102995780638da5cb5b146102b7578063a22cb465146102d557610115565b80632eb2c2d6116100e95780632eb2c2d6146101c65780634e1273f4146101e257806359463b99146102125780636aa5c352146102435780636cc80e561461025f57610115565b8062fdd58e1461011a57806301ffc9a71461014a5780630e89341c1461017a5780631f7fdffa146101aa575b600080fd5b610134600480360381019061012f91906127c4565b6103a7565b6040516101419190612813565b60405180910390f35b610164600480360381019061015f9190612886565b61046f565b60405161017191906128ce565b60405180910390f35b610194600480360381019061018f91906128e9565b610551565b6040516101a191906129a6565b60405180910390f35b6101c460048036038101906101bf9190612bc5565b610636565b005b6101e060048036038101906101db9190612c80565b610680565b005b6101fc60048036038101906101f79190612e12565b610721565b6040516102099190612f48565b60405180910390f35b61022c600480360381019061022791906128e9565b61083a565b60405161023a929190612f6a565b60405180910390f35b61025d60048036038101906102589190612f93565b6109f8565b005b610279600480360381019061027491906130cf565b610bb8565b6040516102869190612813565b60405180910390f35b610297610f4e565b005b6102a1610f62565b6040516102ae9190612813565b60405180910390f35b6102bf610faf565b6040516102cc91906131fd565b60405180910390f35b6102ef60048036038101906102ea9190613244565b610fd9565b005b61030b600480360381019061030691906128e9565b610fef565b6040516103189190613374565b60405180910390f35b61033b60048036038101906103369190613396565b611287565b60405161034891906128ce565b60405180910390f35b61035961131b565b6040516103669190612813565b60405180910390f35b610389600480360381019061038491906133d6565b611321565b005b6103a560048036038101906103a0919061346d565b6113c2565b005b60008073ffffffffffffffffffffffffffffffffffffffff168373ffffffffffffffffffffffffffffffffffffffff1603610417576040517f08c379a000000000000000000000000000000000000000000000000000000000815260040161040e9061350c565b60405180910390fd5b60008083815260200190815260200160002060008473ffffffffffffffffffffffffffffffffffffffff1673ffffffffffffffffffffffffffffffffffffffff16815260200190815260200160002054905092915050565b60007fd9b67a26000000000000000000000000000000000000000000000000000000007bffffffffffffffffffffffffffffffffffffffffffffffffffffffff1916827bffffffffffffffffffffffffffffffffffffffffffffffffffffffff1916148061053a57507f0e89341c000000000000000000000000000000000000000000000000000000007bffffffffffffffffffffffffffffffffffffffffffffffffffffffff1916827bffffffffffffffffffffffffffffffffffffffffffffffffffffffff1916145b8061054a575061054982611445565b5b9050919050565b606060006004600084815260200190815260200160002080546105739061355b565b80601f016020809104026020016040519081016040528092919081815260200182805461059f9061355b565b80156105ec5780601f106105c1576101008083540402835291602001916105ec565b820191906000526020600020905b8154815290600101906020018083116105cf57829003601f168201915b50505050509050600081511161060a57610605836114af565b61062e565b60038160405160200161061e929190613660565b6040516020818303038152906040525b915050919050565b61064a67a2b79083e8c2e91460c01b611543565b610652611546565b610666679e373c414dbf274960c01b611543565b61067a679a1d149ea29200a760c01b611543565b50505050565b6106886115c4565b73ffffffffffffffffffffffffffffffffffffffff168573ffffffffffffffffffffffffffffffffffffffff1614806106ce57506106cd856106c86115c4565b611287565b5b61070d576040517f08c379a0000000000000000000000000000000000000000000000000000000008152600401610704906136f6565b60405180910390fd5b61071a85858585856115cc565b5050505050565b60608151835114610767576040517f08c379a000000000000000000000000000000000000000000000000000000000815260040161075e90613788565b60405180910390fd5b6000835167ffffffffffffffff811115610784576107836129cd565b5b6040519080825280602002602001820160405280156107b25781602001602082028036833780820191505090505b50905060005b845181101561082f576107ff8582815181106107d7576107d66137a8565b5b60200260200101518583815181106107f2576107f16137a8565b5b60200260200101516103a7565b828281518110610812576108116137a8565b5b6020026020010181815250508061082890613806565b90506107b8565b508091505092915050565b600080610851670c974349b3bc1e8d60c01b611543565b61086567aa5c14e6f122623960c01b611543565b6108796703001a3f177257ed60c01b611543565b61088d6741e4f0701354247a60c01b611543565b600083116108d0576040517f08c379a00000000000000000000000000000000000000000000000000000000081526004016108c79061389a565b60405180910390fd5b6108e467011894a8c84bc8ef60c01b611543565b6108f867ee9518aa05fc6cdd60c01b611543565b61090c673df4bebe933eebb960c01b611543565b61092067458b8cb134a6ca8f60c01b611543565b6008805490508310610967576040517f08c379a000000000000000000000000000000000000000000000000000000000815260040161095e9061389a565b60405180910390fd5b61097b6713599f7878c3bc4460c01b611543565b61098f6753a91a9915c464fc60c01b611543565b6109a3679ea0849c65419a9660c01b611543565b600883815481106109b7576109b66137a8565b5b906000526020600020906006020160040154600884815481106109dd576109dc6137a8565b5b90600052602060002090600602016005015491509150915091565b610a0c6711ecde0e2be05fb860c01b611543565b610a2067d0a2d43d92d69c9f60c01b611543565b610a34673b03a3bf529a592760c01b611543565b610a48671027780a4a1e4d5e60c01b611543565b6000610a5383610fef565b6080015111610a97576040517f08c379a0000000000000000000000000000000000000000000000000000000008152600401610a8e90613906565b60405180910390fd5b610aab674d1f7ba66e80ae4b60c01b611543565b610abf6721c2c57a3595e3b760c01b611543565b610ad3679817254a0ca8b3cc60c01b611543565b610ae76771c7f018b59f96d060c01b611543565b610af082610fef565b60a00151811015610b0057600080fd5b610b1467a14253753cc85dfa60c01b611543565b610b286712744287100362f960c01b611543565b610b3c67944d23a631ecfda060c01b611543565b610b65610b4883610fef565b606001513384600160405180602001604052806000815250611321565b610b7967e3f1977ffe4f1dd160c01b611543565b60088281548110610b8d57610b8c6137a8565b5b90600052602060002090600602016004016000815480929190610baf90613926565b91905055505050565b6000610bce67e8d770bcb828b17b60c01b611543565b610bd6611546565b610bea670780fa5da024113b60c01b611543565b610bfe67f71ac17d1e0025cc60c01b611543565b610c12679eef4e693fcf46c360c01b611543565b610c2667aa520a6ae069dbcb60c01b611543565b610c3060066118ed565b610c44677371aac43226351d60c01b611543565b610c5867ab4e042bc6289a9660c01b611543565b6000610c646006611903565b9050610c7a6780136380c809b2a660c01b611543565b610c8e67311330e578e24fb660c01b611543565b6000610cdf8a8a8080601f016020809104026020016040519081016040528093929190818152602001838380828437600081840152601f19601f82011690508083019250505050505050600f611911565b9050610cf567513fa90a4b503fa060c01b611543565b610d0967cc801ca291fdcd2d60c01b611543565b60086040518060c001604052808e8e8080601f016020809104026020016040519081016040528093929190818152602001838380828437600081840152601f19601f8201169050808301925050505050505081526020018381526020018a8a8080601f016020809104026020016040519081016040528093929190818152602001838380828437600081840152601f19601f8201169050808301925050505050505081526020018f73ffffffffffffffffffffffffffffffffffffffff1681526020018881526020018781525090806001815401808255809150506001900390600052602060002090600602016000909190919091506000820151816000019081610e149190613ae6565b506020820151816001019081610e2a9190613ae6565b506040820151816002019081610e409190613ae6565b5060608201518160030160006101000a81548173ffffffffffffffffffffffffffffffffffffffff021916908373ffffffffffffffffffffffffffffffffffffffff1602179055506080820151816004015560a082015181600501555050610eb2670773c12af9f4832860c01b611543565b610ec66796c6df9428dafd7360c01b611543565b610ee18d838860405180602001604052806000815250611b93565b610ef567eda681e2457db39260c01b611543565b610f09674122f2141f9d68df60c01b611543565b610f138285611d43565b610f2767d554b52d32d67e5b60c01b611543565b610f3b671725a2321bc7ecbf60c01b611543565b81925050509a9950505050505050505050565b610f56611546565b610f606000611da8565b565b6000610f78672fdaf81fca8b2b1e60c01b611543565b610f8c673afb4363289a94a060c01b611543565b610fa067f840b1e221c4bb3c60c01b611543565b610faa6006611903565b905090565b6000600560009054906101000a900473ffffffffffffffffffffffffffffffffffffffff16905090565b610feb610fe46115c4565b8383611e6e565b5050565b610ff76126d0565b61100b6744d1f4487bb65c9660c01b611543565b61101f67b3530f5937db37c960c01b611543565b611033676f9aa04abc30b54b60c01b611543565b60088281548110611047576110466137a8565b5b90600052602060002090600602016040518060c00160405290816000820180546110709061355b565b80601f016020809104026020016040519081016040528092919081815260200182805461109c9061355b565b80156110e95780601f106110be576101008083540402835291602001916110e9565b820191906000526020600020905b8154815290600101906020018083116110cc57829003601f168201915b505050505081526020016001820180546111029061355b565b80601f016020809104026020016040519081016040528092919081815260200182805461112e9061355b565b801561117b5780601f106111505761010080835404028352916020019161117b565b820191906000526020600020905b81548152906001019060200180831161115e57829003601f168201915b505050505081526020016002820180546111949061355b565b80601f01602080910402602001604051908101604052809291908181526020018280546111c09061355b565b801561120d5780601f106111e25761010080835404028352916020019161120d565b820191906000526020600020905b8154815290600101906020018083116111f057829003601f168201915b505050505081526020016003820160009054906101000a900473ffffffffffffffffffffffffffffffffffffffff1673ffffffffffffffffffffffffffffffffffffffff1673ffffffffffffffffffffffffffffffffffffffff168152602001600482015481526020016005820154815250509050919050565b6000600160008473ffffffffffffffffffffffffffffffffffffffff1673ffffffffffffffffffffffffffffffffffffffff16815260200190815260200160002060008373ffffffffffffffffffffffffffffffffffffffff1673ffffffffffffffffffffffffffffffffffffffff16815260200190815260200160002060009054906101000a900460ff16905092915050565b60075481565b6113296115c4565b73ffffffffffffffffffffffffffffffffffffffff168573ffffffffffffffffffffffffffffffffffffffff16148061136f575061136e856113696115c4565b611287565b5b6113ae576040517f08c379a00000000000000000000000000000000000000000000000000000000081526004016113a5906136f6565b60405180910390fd5b6113bb8585858585611fda565b5050505050565b6113ca611546565b600073ffffffffffffffffffffffffffffffffffffffff168173ffffffffffffffffffffffffffffffffffffffff1603611439576040517f08c379a000000000000000000000000000000000000000000000000000000000815260040161143090613c2a565b60405180910390fd5b61144281611da8565b50565b60007f01ffc9a7000000000000000000000000000000000000000000000000000000007bffffffffffffffffffffffffffffffffffffffffffffffffffffffff1916827bffffffffffffffffffffffffffffffffffffffffffffffffffffffff1916149050919050565b6060600280546114be9061355b565b80601f01602080910402602001604051908101604052809291908181526020018280546114ea9061355b565b80156115375780601f1061150c57610100808354040283529160200191611537565b820191906000526020600020905b81548152906001019060200180831161151a57829003601f168201915b50505050509050919050565b50565b61154e6115c4565b73ffffffffffffffffffffffffffffffffffffffff1661156c610faf565b73ffffffffffffffffffffffffffffffffffffffff16146115c2576040517f08c379a00000000000000000000000000000000000000000000000000000000081526004016115b990613c96565b60405180910390fd5b565b600033905090565b8151835114611610576040517f08c379a000000000000000000000000000000000000000000000000000000000815260040161160790613d28565b60405180910390fd5b600073ffffffffffffffffffffffffffffffffffffffff168473ffffffffffffffffffffffffffffffffffffffff160361167f576040517f08c379a000000000000000000000000000000000000000000000000000000000815260040161167690613dba565b60405180910390fd5b60006116896115c4565b9050611699818787878787612275565b60005b845181101561184a5760008582815181106116ba576116b96137a8565b5b6020026020010151905060008583815181106116d9576116d86137a8565b5b60200260200101519050600080600084815260200190815260200160002060008b73ffffffffffffffffffffffffffffffffffffffff1673ffffffffffffffffffffffffffffffffffffffff1681526020019081526020016000205490508181101561177a576040517f08c379a000000000000000000000000000000000000000000000000000000000815260040161177190613e4c565b60405180910390fd5b81810360008085815260200190815260200160002060008c73ffffffffffffffffffffffffffffffffffffffff1673ffffffffffffffffffffffffffffffffffffffff168152602001908152602001600020819055508160008085815260200190815260200160002060008b73ffffffffffffffffffffffffffffffffffffffff1673ffffffffffffffffffffffffffffffffffffffff168152602001908152602001600020600082825461182f9190613e6c565b925050819055505050508061184390613806565b905061169c565b508473ffffffffffffffffffffffffffffffffffffffff168673ffffffffffffffffffffffffffffffffffffffff168273ffffffffffffffffffffffffffffffffffffffff167f4a39dc06d4c0dbc64b70af90fd698a233a518aa5d07e595d983b8c0526c8f7fb87876040516118c1929190613ea0565b60405180910390a46118d781878787878761227d565b6118e5818787878787612285565b505050505050565b6001816000016000828254019250508190555050565b600081600001549050919050565b6060611927670385ea15de7b8d4560c01b611543565b61193b67875ec8f24fa2991f60c01b611543565b61194f679f4ce379d32a4bc460c01b611543565b600083905061196867827be5eb9e67f0a760c01b611543565b61197c67768621588438195760c01b611543565b828151116119c957611998676239e751f2b6209f60c01b611543565b6119ac67527636acbe4b04b360c01b611543565b6119c067bab9d8593d0c648960c01b611543565b83915050611b8d565b6119dd67c1b2cb268830b91760c01b611543565b6119f167dc647639a38bcae060c01b611543565b611a05679582902a8dd0746860c01b611543565b6000600384611a149190613ed7565b67ffffffffffffffff811115611a2d57611a2c6129cd565b5b6040519080825280601f01601f191660200182016040528015611a5f5781602001600182028036833780820191505090505b509050611a76676978230d73e17d9460c01b611543565b611a8a67f0266b1b69e9dc7660c01b611543565b60005b600385611a9a9190613ed7565b811015611b2857611ab56750ed4f925c196c8960c01b611543565b828181518110611ac857611ac76137a8565b5b602001015160f81c60f81b828281518110611ae657611ae56137a8565b5b60200101907effffffffffffffffffffffffffffffffffffffffffffffffffffffffffffff1916908160001a9053508080611b2090613806565b915050611a8d565b50611b3d676c08240c242db89e60c01b611543565b80604051602001611b4e9190613f9e565b6040516020818303038152906040529050611b736724f6faf2291dcd6360c01b611543565b611b87673dfa6a3fe32e50c660c01b611543565b80925050505b92915050565b600073ffffffffffffffffffffffffffffffffffffffff168473ffffffffffffffffffffffffffffffffffffffff1603611c02576040517f08c379a0000000000000000000000000000000000000000000000000000000008152600401611bf990614032565b60405180910390fd5b6000611c0c6115c4565b90506000611c198561245c565b90506000611c268561245c565b9050611c3783600089858589612275565b8460008088815260200190815260200160002060008973ffffffffffffffffffffffffffffffffffffffff1673ffffffffffffffffffffffffffffffffffffffff1681526020019081526020016000206000828254611c969190613e6c565b925050819055508673ffffffffffffffffffffffffffffffffffffffff16600073ffffffffffffffffffffffffffffffffffffffff168473ffffffffffffffffffffffffffffffffffffffff167fc3d58168c5ae7397731d063d5bbf3d657854427343f4c083240f7aacaa2d0f628989604051611d14929190612f6a565b60405180910390a4611d2b8360008985858961227d565b611d3a836000898989896124d6565b50505050505050565b80600460008481526020019081526020016000209081611d639190613ae6565b50817f6bb7ff708619ba0610cba295a58592e0451dee2622938c8755667688daf3529b611d8f84610551565b604051611d9c91906129a6565b60405180910390a25050565b6000600560009054906101000a900473ffffffffffffffffffffffffffffffffffffffff16905081600560006101000a81548173ffffffffffffffffffffffffffffffffffffffff021916908373ffffffffffffffffffffffffffffffffffffffff1602179055508173ffffffffffffffffffffffffffffffffffffffff168173ffffffffffffffffffffffffffffffffffffffff167f8be0079c531659141344cd1fd0a4f28419497f9722a3daafe3b4186f6b6457e060405160405180910390a35050565b8173ffffffffffffffffffffffffffffffffffffffff168373ffffffffffffffffffffffffffffffffffffffff1603611edc576040517f08c379a0000000000000000000000000000000000000000000000000000000008152600401611ed3906140c4565b60405180910390fd5b80600160008573ffffffffffffffffffffffffffffffffffffffff1673ffffffffffffffffffffffffffffffffffffffff16815260200190815260200160002060008473ffffffffffffffffffffffffffffffffffffffff1673ffffffffffffffffffffffffffffffffffffffff16815260200190815260200160002060006101000a81548160ff0219169083151502179055508173ffffffffffffffffffffffffffffffffffffffff168373ffffffffffffffffffffffffffffffffffffffff167f17307eab39ab6107e8899845ad3d59bd9653f200f220920489ca2b5937696c3183604051611fcd91906128ce565b60405180910390a3505050565b600073ffffffffffffffffffffffffffffffffffffffff168473ffffffffffffffffffffffffffffffffffffffff1603612049576040517f08c379a000000000000000000000000000000000000000000000000000000000815260040161204090613dba565b60405180910390fd5b60006120536115c4565b905060006120608561245c565b9050600061206d8561245c565b905061207d838989858589612275565b600080600088815260200190815260200160002060008a73ffffffffffffffffffffffffffffffffffffffff1673ffffffffffffffffffffffffffffffffffffffff16815260200190815260200160002054905085811015612114576040517f08c379a000000000000000000000000000000000000000000000000000000000815260040161210b90613e4c565b60405180910390fd5b85810360008089815260200190815260200160002060008b73ffffffffffffffffffffffffffffffffffffffff1673ffffffffffffffffffffffffffffffffffffffff168152602001908152602001600020819055508560008089815260200190815260200160002060008a73ffffffffffffffffffffffffffffffffffffffff1673ffffffffffffffffffffffffffffffffffffffff16815260200190815260200160002060008282546121c99190613e6c565b925050819055508773ffffffffffffffffffffffffffffffffffffffff168973ffffffffffffffffffffffffffffffffffffffff168573ffffffffffffffffffffffffffffffffffffffff167fc3d58168c5ae7397731d063d5bbf3d657854427343f4c083240f7aacaa2d0f628a8a604051612246929190612f6a565b60405180910390a461225c848a8a86868a61227d565b61226a848a8a8a8a8a6124d6565b505050505050505050565b505050505050565b505050505050565b6122a48473ffffffffffffffffffffffffffffffffffffffff166126ad565b15612454578373ffffffffffffffffffffffffffffffffffffffff1663bc197c8187878686866040518663ffffffff1660e01b81526004016122ea95949392919061412e565b6020604051808303816000875af192505050801561232657506040513d601f19601f8201168201806040525081019061232391906141ab565b60015b6123cb576123326141e5565b806308c379a00361238e5750612346614207565b806123515750612390565b806040517f08c379a000000000000000000000000000000000000000000000000000000000815260040161238591906129a6565b60405180910390fd5b505b6040517f08c379a00000000000000000000000000000000000000000000000000000000081526004016123c290614309565b60405180910390fd5b63bc197c8160e01b7bffffffffffffffffffffffffffffffffffffffffffffffffffffffff1916817bffffffffffffffffffffffffffffffffffffffffffffffffffffffff191614612452576040517f08c379a00000000000000000000000000000000000000000000000000000000081526004016124499061439b565b60405180910390fd5b505b505050505050565b60606000600167ffffffffffffffff81111561247b5761247a6129cd565b5b6040519080825280602002602001820160405280156124a95781602001602082028036833780820191505090505b50905082816000815181106124c1576124c06137a8565b5b60200260200101818152505080915050919050565b6124f58473ffffffffffffffffffffffffffffffffffffffff166126ad565b156126a5578373ffffffffffffffffffffffffffffffffffffffff1663f23a6e6187878686866040518663ffffffff1660e01b815260040161253b9594939291906143bb565b6020604051808303816000875af192505050801561257757506040513d601f19601f8201168201806040525081019061257491906141ab565b60015b61261c576125836141e5565b806308c379a0036125df5750612597614207565b806125a257506125e1565b806040517f08c379a00000000000000000000000000000000000000000000000000000000081526004016125d691906129a6565b60405180910390fd5b505b6040517f08c379a000000000000000000000000000000000000000000000000000000000815260040161261390614309565b60405180910390fd5b63f23a6e6160e01b7bffffffffffffffffffffffffffffffffffffffffffffffffffffffff1916817bffffffffffffffffffffffffffffffffffffffffffffffffffffffff1916146126a3576040517f08c379a000000000000000000000000000000000000000000000000000000000815260040161269a9061439b565b60405180910390fd5b505b505050505050565b6000808273ffffffffffffffffffffffffffffffffffffffff163b119050919050565b6040518060c00160405280606081526020016060815260200160608152602001600073ffffffffffffffffffffffffffffffffffffffff16815260200160008152602001600081525090565b6000604051905090565b600080fd5b600080fd5b600073ffffffffffffffffffffffffffffffffffffffff82169050919050565b600061275b82612730565b9050919050565b61276b81612750565b811461277657600080fd5b50565b60008135905061278881612762565b92915050565b6000819050919050565b6127a18161278e565b81146127ac57600080fd5b50565b6000813590506127be81612798565b92915050565b600080604083850312156127db576127da612726565b5b60006127e985828601612779565b92505060206127fa858286016127af565b9150509250929050565b61280d8161278e565b82525050565b60006020820190506128286000830184612804565b92915050565b60007fffffffff0000000000000000000000000000000000000000000000000000000082169050919050565b6128638161282e565b811461286e57600080fd5b50565b6000813590506128808161285a565b92915050565b60006020828403121561289c5761289b612726565b5b60006128aa84828501612871565b91505092915050565b60008115159050919050565b6128c8816128b3565b82525050565b60006020820190506128e360008301846128bf565b92915050565b6000602082840312156128ff576128fe612726565b5b600061290d848285016127af565b91505092915050565b600081519050919050565b600082825260208201905092915050565b60005b83811015612950578082015181840152602081019050612935565b60008484015250505050565b6000601f19601f8301169050919050565b600061297882612916565b6129828185612921565b9350612992818560208601612932565b61299b8161295c565b840191505092915050565b600060208201905081810360008301526129c0818461296d565b905092915050565b600080fd5b7f4e487b7100000000000000000000000000000000000000000000000000000000600052604160045260246000fd5b612a058261295c565b810181811067ffffffffffffffff82111715612a2457612a236129cd565b5b80604052505050565b6000612a3761271c565b9050612a4382826129fc565b919050565b600067ffffffffffffffff821115612a6357612a626129cd565b5b602082029050602081019050919050565b600080fd5b6000612a8c612a8784612a48565b612a2d565b90508083825260208201905060208402830185811115612aaf57612aae612a74565b5b835b81811015612ad85780612ac488826127af565b845260208401935050602081019050612ab1565b5050509392505050565b600082601f830112612af757612af66129c8565b5b8135612b07848260208601612a79565b91505092915050565b600080fd5b600067ffffffffffffffff821115612b3057612b2f6129cd565b5b612b398261295c565b9050602081019050919050565b82818337600083830152505050565b6000612b68612b6384612b15565b612a2d565b905082815260208101848484011115612b8457612b83612b10565b5b612b8f848285612b46565b509392505050565b600082601f830112612bac57612bab6129c8565b5b8135612bbc848260208601612b55565b91505092915050565b60008060008060808587031215612bdf57612bde612726565b5b6000612bed87828801612779565b945050602085013567ffffffffffffffff811115612c0e57612c0d61272b565b5b612c1a87828801612ae2565b935050604085013567ffffffffffffffff811115612c3b57612c3a61272b565b5b612c4787828801612ae2565b925050606085013567ffffffffffffffff811115612c6857612c6761272b565b5b612c7487828801612b97565b91505092959194509250565b600080600080600060a08688031215612c9c57612c9b612726565b5b6000612caa88828901612779565b9550506020612cbb88828901612779565b945050604086013567ffffffffffffffff811115612cdc57612cdb61272b565b5b612ce888828901612ae2565b935050606086013567ffffffffffffffff811115612d0957612d0861272b565b5b612d1588828901612ae2565b925050608086013567ffffffffffffffff811115612d3657612d3561272b565b5b612d4288828901612b97565b9150509295509295909350565b600067ffffffffffffffff821115612d6a57612d696129cd565b5b602082029050602081019050919050565b6000612d8e612d8984612d4f565b612a2d565b90508083825260208201905060208402830185811115612db157612db0612a74565b5b835b81811015612dda5780612dc68882612779565b845260208401935050602081019050612db3565b5050509392505050565b600082601f830112612df957612df86129c8565b5b8135612e09848260208601612d7b565b91505092915050565b60008060408385031215612e2957612e28612726565b5b600083013567ffffffffffffffff811115612e4757612e4661272b565b5b612e5385828601612de4565b925050602083013567ffffffffffffffff811115612e7457612e7361272b565b5b612e8085828601612ae2565b9150509250929050565b600081519050919050565b600082825260208201905092915050565b6000819050602082019050919050565b612ebf8161278e565b82525050565b6000612ed18383612eb6565b60208301905092915050565b6000602082019050919050565b6000612ef582612e8a565b612eff8185612e95565b9350612f0a83612ea6565b8060005b83811015612f3b578151612f228882612ec5565b9750612f2d83612edd565b925050600181019050612f0e565b5085935050505092915050565b60006020820190508181036000830152612f628184612eea565b905092915050565b6000604082019050612f7f6000830185612804565b612f8c6020830184612804565b9392505050565b60008060408385031215612faa57612fa9612726565b5b6000612fb8858286016127af565b9250506020612fc9858286016127af565b9150509250929050565b600080fd5b60008083601f840112612fee57612fed6129c8565b5b8235905067ffffffffffffffff81111561300b5761300a612fd3565b5b60208301915083600182028301111561302757613026612a74565b5b9250929050565b600067ffffffffffffffff821115613049576130486129cd565b5b6130528261295c565b9050602081019050919050565b600061307261306d8461302e565b612a2d565b90508281526020810184848401111561308e5761308d612b10565b5b613099848285612b46565b509392505050565b600082601f8301126130b6576130b56129c8565b5b81356130c684826020860161305f565b91505092915050565b60008060008060008060008060008060e08b8d0312156130f2576130f1612726565b5b60006131008d828e01612779565b9a505060208b013567ffffffffffffffff8111156131215761312061272b565b5b61312d8d828e01612fd8565b995099505060408b013567ffffffffffffffff8111156131505761314f61272b565b5b61315c8d828e01612fd8565b975097505060608b013567ffffffffffffffff81111561317f5761317e61272b565b5b61318b8d828e01612fd8565b9550955050608061319e8d828e016127af565b93505060a06131af8d828e016127af565b92505060c08b013567ffffffffffffffff8111156131d0576131cf61272b565b5b6131dc8d828e016130a1565b9150509295989b9194979a5092959850565b6131f781612750565b82525050565b600060208201905061321260008301846131ee565b92915050565b613221816128b3565b811461322c57600080fd5b50565b60008135905061323e81613218565b92915050565b6000806040838503121561325b5761325a612726565b5b600061326985828601612779565b925050602061327a8582860161322f565b9150509250929050565b600082825260208201905092915050565b60006132a082612916565b6132aa8185613284565b93506132ba818560208601612932565b6132c38161295c565b840191505092915050565b6132d781612750565b82525050565b600060c08301600083015184820360008601526132fa8282613295565b915050602083015184820360208601526133148282613295565b9150506040830151848203604086015261332e8282613295565b915050606083015161334360608601826132ce565b5060808301516133566080860182612eb6565b5060a083015161336960a0860182612eb6565b508091505092915050565b6000602082019050818103600083015261338e81846132dd565b905092915050565b600080604083850312156133ad576133ac612726565b5b60006133bb85828601612779565b92505060206133cc85828601612779565b9150509250929050565b600080600080600060a086880312156133f2576133f1612726565b5b600061340088828901612779565b955050602061341188828901612779565b9450506040613422888289016127af565b9350506060613433888289016127af565b925050608086013567ffffffffffffffff8111156134545761345361272b565b5b61346088828901612b97565b9150509295509295909350565b60006020828403121561348357613482612726565b5b600061349184828501612779565b91505092915050565b7f455243313135353a2061646472657373207a65726f206973206e6f742061207660008201527f616c6964206f776e657200000000000000000000000000000000000000000000602082015250565b60006134f6602a83612921565b91506135018261349a565b604082019050919050565b60006020820190508181036000830152613525816134e9565b9050919050565b7f4e487b7100000000000000000000000000000000000000000000000000000000600052602260045260246000fd5b6000600282049050600182168061357357607f821691505b6020821081036135865761358561352c565b5b50919050565b600081905092915050565b60008190508160005260206000209050919050565b600081546135b98161355b565b6135c3818661358c565b945060018216600081146135de57600181146135f357613626565b60ff1983168652811515820286019350613626565b6135fc85613597565b60005b8381101561361e578154818901526001820191506020810190506135ff565b838801955050505b50505092915050565b600061363a82612916565b613644818561358c565b9350613654818560208601612932565b80840191505092915050565b600061366c82856135ac565b9150613678828461362f565b91508190509392505050565b7f455243313135353a2063616c6c6572206973206e6f7420746f6b656e206f776e60008201527f6572206f7220617070726f766564000000000000000000000000000000000000602082015250565b60006136e0602e83612921565b91506136eb82613684565b604082019050919050565b6000602082019050818103600083015261370f816136d3565b9050919050565b7f455243313135353a206163636f756e747320616e6420696473206c656e67746860008201527f206d69736d617463680000000000000000000000000000000000000000000000602082015250565b6000613772602983612921565b915061377d82613716565b604082019050919050565b600060208201905081810360008301526137a181613765565b9050919050565b7f4e487b7100000000000000000000000000000000000000000000000000000000600052603260045260246000fd5b7f4e487b7100000000000000000000000000000000000000000000000000000000600052601160045260246000fd5b60006138118261278e565b91507fffffffffffffffffffffffffffffffffffffffffffffffffffffffffffffffff8203613843576138426137d7565b5b600182019050919050565b7f496e76616c696420696e64657800000000000000000000000000000000000000600082015250565b6000613884600d83612921565b915061388f8261384e565b602082019050919050565b600060208201905081810360008301526138b381613877565b9050919050565b7f4e6f7468696e6720746f20627579000000000000000000000000000000000000600082015250565b60006138f0600e83612921565b91506138fb826138ba565b602082019050919050565b6000602082019050818103600083015261391f816138e3565b9050919050565b60006139318261278e565b915060008203613944576139436137d7565b5b600182039050919050565b60006020601f8301049050919050565b600082821b905092915050565b60006008830261399c7fffffffffffffffffffffffffffffffffffffffffffffffffffffffffffffffff8261395f565b6139a6868361395f565b95508019841693508086168417925050509392505050565b6000819050919050565b60006139e36139de6139d98461278e565b6139be565b61278e565b9050919050565b6000819050919050565b6139fd836139c8565b613a11613a09826139ea565b84845461396c565b825550505050565b600090565b613a26613a19565b613a318184846139f4565b505050565b5b81811015613a5557613a4a600082613a1e565b600181019050613a37565b5050565b601f821115613a9a57613a6b81613597565b613a748461394f565b81016020851015613a83578190505b613a97613a8f8561394f565b830182613a36565b50505b505050565b600082821c905092915050565b6000613abd60001984600802613a9f565b1980831691505092915050565b6000613ad68383613aac565b9150826002028217905092915050565b613aef82612916565b67ffffffffffffffff811115613b0857613b076129cd565b5b613b12825461355b565b613b1d828285613a59565b600060209050601f831160018114613b505760008415613b3e578287015190505b613b488582613aca565b865550613bb0565b601f198416613b5e86613597565b60005b82811015613b8657848901518255600182019150602085019450602081019050613b61565b86831015613ba35784890151613b9f601f891682613aac565b8355505b6001600288020188555050505b505050505050565b7f4f776e61626c653a206e6577206f776e657220697320746865207a65726f206160008201527f6464726573730000000000000000000000000000000000000000000000000000602082015250565b6000613c14602683612921565b9150613c1f82613bb8565b604082019050919050565b60006020820190508181036000830152613c4381613c07565b9050919050565b7f4f776e61626c653a2063616c6c6572206973206e6f7420746865206f776e6572600082015250565b6000613c80602083612921565b9150613c8b82613c4a565b602082019050919050565b60006020820190508181036000830152613caf81613c73565b9050919050565b7f455243313135353a2069647320616e6420616d6f756e7473206c656e6774682060008201527f6d69736d61746368000000000000000000000000000000000000000000000000602082015250565b6000613d12602883612921565b9150613d1d82613cb6565b604082019050919050565b60006020820190508181036000830152613d4181613d05565b9050919050565b7f455243313135353a207472616e7366657220746f20746865207a65726f20616460008201527f6472657373000000000000000000000000000000000000000000000000000000602082015250565b6000613da4602583612921565b9150613daf82613d48565b604082019050919050565b60006020820190508181036000830152613dd381613d97565b9050919050565b7f455243313135353a20696e73756666696369656e742062616c616e636520666f60008201527f72207472616e7366657200000000000000000000000000000000000000000000602082015250565b6000613e36602a83612921565b9150613e4182613dda565b604082019050919050565b60006020820190508181036000830152613e6581613e29565b9050919050565b6000613e778261278e565b9150613e828361278e565b9250828201905080821115613e9a57613e996137d7565b5b92915050565b60006040820190508181036000830152613eba8185612eea565b90508181036020830152613ece8184612eea565b90509392505050565b6000613ee28261278e565b9150613eed8361278e565b9250828203905081811115613f0557613f046137d7565b5b92915050565b600081519050919050565b600081905092915050565b6000613f2c82613f0b565b613f368185613f16565b9350613f46818560208601612932565b80840191505092915050565b7f2e2e2e0000000000000000000000000000000000000000000000000000000000600082015250565b6000613f8860038361358c565b9150613f9382613f52565b600382019050919050565b6000613faa8284613f21565b9150613fb582613f7b565b915081905092915050565b7f455243313135353a206d696e7420746f20746865207a65726f2061646472657360008201527f7300000000000000000000000000000000000000000000000000000000000000602082015250565b600061401c602183612921565b915061402782613fc0565b604082019050919050565b6000602082019050818103600083015261404b8161400f565b9050919050565b7f455243313135353a2073657474696e6720617070726f76616c2073746174757360008201527f20666f722073656c660000000000000000000000000000000000000000000000602082015250565b60006140ae602983612921565b91506140b982614052565b604082019050919050565b600060208201905081810360008301526140dd816140a1565b9050919050565b600082825260208201905092915050565b600061410082613f0b565b61410a81856140e4565b935061411a818560208601612932565b6141238161295c565b840191505092915050565b600060a08201905061414360008301886131ee565b61415060208301876131ee565b81810360408301526141628186612eea565b905081810360608301526141768185612eea565b9050818103608083015261418a81846140f5565b90509695505050505050565b6000815190506141a58161285a565b92915050565b6000602082840312156141c1576141c0612726565b5b60006141cf84828501614196565b91505092915050565b60008160e01c9050919050565b600060033d11156142045760046000803e6142016000516141d8565b90505b90565b600060443d106142945761421961271c565b60043d036004823e80513d602482011167ffffffffffffffff82111715614241575050614294565b808201805167ffffffffffffffff81111561425f5750505050614294565b80602083010160043d03850181111561427c575050505050614294565b61428b826020018501866129fc565b82955050505050505b90565b7f455243313135353a207472616e7366657220746f206e6f6e2d4552433131353560008201527f526563656976657220696d706c656d656e746572000000000000000000000000602082015250565b60006142f3603483612921565b91506142fe82614297565b604082019050919050565b60006020820190508181036000830152614322816142e6565b9050919050565b7f455243313135353a204552433131353552656365697665722072656a6563746560008201527f6420746f6b656e73000000000000000000000000000000000000000000000000602082015250565b6000614385602883612921565b915061439082614329565b604082019050919050565b600060208201905081810360008301526143b481614378565b9050919050565b600060a0820190506143d060008301886131ee565b6143dd60208301876131ee565b6143ea6040830186612804565b6143f76060830185612804565b818103608083015261440981846140f5565b9050969550505050505056fea2646970667358221220e6413d0c257a7539ba092c08c44c7418e1b0dd61b9932d298a27fbc3854ba56764736f6c63430008120033",
  "linkReferences": {},
  "deployedLinkReferences": {}
}