{
  "_format": "hh-sol-artifact-1",
  "contractName": "TheSourceArticle",
  "sourceName": "contracts/TheSourceArticle.sol",
  "abi": [
    {
      "inputs": [
        {
          "internalType": "address",
          "name": "_marketPlaceAddr",
          "type": "address"
        },
        {
          "internalType": "uint256",
          "name": "_royalties",
          "type": "uint256"
        }
      ],
      "stateMutability": "nonpayable",
      "type": "constructor"
    },
    {
      "anonymous": false,
      "inputs": [
        {
          "indexed": true,
          "internalType": "address",
          "name": "account",
          "type": "address"
        },
        {
          "indexed": true,
          "internalType": "address",
          "name": "operator",
          "type": "address"
        },
        {
          "indexed": false,
          "internalType": "bool",
          "name": "approved",
          "type": "bool"
        }
      ],
      "name": "ApprovalForAll",
      "type": "event"
    },
    {
      "anonymous": false,
      "inputs": [
        {
          "indexed": true,
          "internalType": "address",
          "name": "previousOwner",
          "type": "address"
        },
        {
          "indexed": true,
          "internalType": "address",
          "name": "newOwner",
          "type": "address"
        }
      ],
      "name": "OwnershipTransferred",
      "type": "event"
    },
    {
      "anonymous": false,
      "inputs": [
        {
          "indexed": true,
          "internalType": "address",
          "name": "operator",
          "type": "address"
        },
        {
          "indexed": true,
          "internalType": "address",
          "name": "from",
          "type": "address"
        },
        {
          "indexed": true,
          "internalType": "address",
          "name": "to",
          "type": "address"
        },
        {
          "indexed": false,
          "internalType": "uint256[]",
          "name": "ids",
          "type": "uint256[]"
        },
        {
          "indexed": false,
          "internalType": "uint256[]",
          "name": "values",
          "type": "uint256[]"
        }
      ],
      "name": "TransferBatch",
      "type": "event"
    },
    {
      "anonymous": false,
      "inputs": [
        {
          "indexed": true,
          "internalType": "address",
          "name": "operator",
          "type": "address"
        },
        {
          "indexed": true,
          "internalType": "address",
          "name": "from",
          "type": "address"
        },
        {
          "indexed": true,
          "internalType": "address",
          "name": "to",
          "type": "address"
        },
        {
          "indexed": false,
          "internalType": "uint256",
          "name": "id",
          "type": "uint256"
        },
        {
          "indexed": false,
          "internalType": "uint256",
          "name": "value",
          "type": "uint256"
        }
      ],
      "name": "TransferSingle",
      "type": "event"
    },
    {
      "anonymous": false,
      "inputs": [
        {
          "indexed": false,
          "internalType": "string",
          "name": "value",
          "type": "string"
        },
        {
          "indexed": true,
          "internalType": "uint256",
          "name": "id",
          "type": "uint256"
        }
      ],
      "name": "URI",
      "type": "event"
    },
    {
      "inputs": [
        {
          "internalType": "address",
          "name": "account",
          "type": "address"
        },
        {
          "internalType": "uint256",
          "name": "id",
          "type": "uint256"
        }
      ],
      "name": "balanceOf",
      "outputs": [
        {
          "internalType": "uint256",
          "name": "",
          "type": "uint256"
        }
      ],
      "stateMutability": "view",
      "type": "function"
    },
    {
      "inputs": [
        {
          "internalType": "address[]",
          "name": "accounts",
          "type": "address[]"
        },
        {
          "internalType": "uint256[]",
          "name": "ids",
          "type": "uint256[]"
        }
      ],
      "name": "balanceOfBatch",
      "outputs": [
        {
          "internalType": "uint256[]",
          "name": "",
          "type": "uint256[]"
        }
      ],
      "stateMutability": "view",
      "type": "function"
    },
    {
      "inputs": [
        {
          "internalType": "address",
          "name": "_seller",
          "type": "address"
        },
        {
          "internalType": "uint256",
          "name": "_articleId",
          "type": "uint256"
        },
        {
          "internalType": "uint256",
          "name": "amount",
          "type": "uint256"
        }
      ],
      "name": "buyArticle",
      "outputs": [],
      "stateMutability": "nonpayable",
      "type": "function"
    },
    {
      "inputs": [
        {
          "internalType": "uint256",
          "name": "_articleId",
          "type": "uint256"
        }
      ],
      "name": "getArticle",
      "outputs": [
        {
          "components": [
            {
              "internalType": "string",
              "name": "title",
              "type": "string"
            },
            {
              "internalType": "string",
              "name": "description",
              "type": "string"
            },
            {
              "internalType": "string",
              "name": "authorName",
              "type": "string"
            },
            {
              "internalType": "address",
              "name": "authorAddress",
              "type": "address"
            },
            {
              "internalType": "uint256",
              "name": "supply",
              "type": "uint256"
            },
            {
              "internalType": "uint256",
              "name": "price",
              "type": "uint256"
            }
          ],
          "internalType": "struct TheSourceArticle.Article",
          "name": "",
          "type": "tuple"
        }
      ],
      "stateMutability": "view",
      "type": "function"
    },
    {
      "inputs": [
        {
          "internalType": "uint256",
          "name": "_articleId",
          "type": "uint256"
        }
      ],
      "name": "getArticleInfos",
      "outputs": [
        {
          "internalType": "uint256",
          "name": "",
          "type": "uint256"
        },
        {
          "internalType": "uint256",
          "name": "",
          "type": "uint256"
        },
        {
          "internalType": "address",
          "name": "",
          "type": "address"
        }
      ],
      "stateMutability": "view",
      "type": "function"
    },
    {
      "inputs": [],
      "name": "getNumberOfArticles",
      "outputs": [
        {
          "internalType": "uint256",
          "name": "",
          "type": "uint256"
        }
      ],
      "stateMutability": "view",
      "type": "function"
    },
    {
      "inputs": [
        {
          "internalType": "address",
          "name": "account",
          "type": "address"
        },
        {
          "internalType": "address",
          "name": "operator",
          "type": "address"
        }
      ],
      "name": "isApprovedForAll",
      "outputs": [
        {
          "internalType": "bool",
          "name": "",
          "type": "bool"
        }
      ],
      "stateMutability": "view",
      "type": "function"
    },
    {
      "inputs": [],
      "name": "owner",
      "outputs": [
        {
          "internalType": "address",
          "name": "",
          "type": "address"
        }
      ],
      "stateMutability": "view",
      "type": "function"
    },
    {
      "inputs": [],
      "name": "renounceOwnership",
      "outputs": [],
      "stateMutability": "nonpayable",
      "type": "function"
    },
    {
      "inputs": [],
      "name": "royalties",
      "outputs": [
        {
          "internalType": "uint256",
          "name": "",
          "type": "uint256"
        }
      ],
      "stateMutability": "view",
      "type": "function"
    },
    {
      "inputs": [
        {
          "internalType": "address",
          "name": "from",
          "type": "address"
        },
        {
          "internalType": "address",
          "name": "to",
          "type": "address"
        },
        {
          "internalType": "uint256[]",
          "name": "ids",
          "type": "uint256[]"
        },
        {
          "internalType": "uint256[]",
          "name": "amounts",
          "type": "uint256[]"
        },
        {
          "internalType": "bytes",
          "name": "data",
          "type": "bytes"
        }
      ],
      "name": "safeBatchTransferFrom",
      "outputs": [],
      "stateMutability": "nonpayable",
      "type": "function"
    },
    {
      "inputs": [
        {
          "internalType": "string",
          "name": "_title",
          "type": "string"
        },
        {
          "internalType": "string",
          "name": "_description",
          "type": "string"
        },
        {
          "internalType": "string",
          "name": "_authorName",
          "type": "string"
        },
        {
          "internalType": "address",
          "name": "_authorAddress",
          "type": "address"
        },
        {
          "internalType": "uint256",
          "name": "_totalSupply",
          "type": "uint256"
        },
        {
          "internalType": "uint256",
          "name": "_priceInFinney",
          "type": "uint256"
        },
        {
          "internalType": "string",
          "name": "URI",
          "type": "string"
        }
      ],
      "name": "safeMint",
      "outputs": [
        {
          "internalType": "uint256",
          "name": "",
          "type": "uint256"
        }
      ],
      "stateMutability": "nonpayable",
      "type": "function"
    },
    {
      "inputs": [
        {
          "internalType": "address",
          "name": "from",
          "type": "address"
        },
        {
          "internalType": "address",
          "name": "to",
          "type": "address"
        },
        {
          "internalType": "uint256",
          "name": "id",
          "type": "uint256"
        },
        {
          "internalType": "uint256",
          "name": "amount",
          "type": "uint256"
        },
        {
          "internalType": "bytes",
          "name": "data",
          "type": "bytes"
        }
      ],
      "name": "safeTransferFrom",
      "outputs": [],
      "stateMutability": "nonpayable",
      "type": "function"
    },
    {
      "inputs": [
        {
          "internalType": "address",
          "name": "operator",
          "type": "address"
        },
        {
          "internalType": "bool",
          "name": "approved",
          "type": "bool"
        }
      ],
      "name": "setApprovalForAll",
      "outputs": [],
      "stateMutability": "nonpayable",
      "type": "function"
    },
    {
      "inputs": [
        {
          "internalType": "bytes4",
          "name": "interfaceId",
          "type": "bytes4"
        }
      ],
      "name": "supportsInterface",
      "outputs": [
        {
          "internalType": "bool",
          "name": "",
          "type": "bool"
        }
      ],
      "stateMutability": "view",
      "type": "function"
    },
    {
      "inputs": [
        {
          "internalType": "address",
          "name": "newOwner",
          "type": "address"
        }
      ],
      "name": "transferOwnership",
      "outputs": [],
      "stateMutability": "nonpayable",
      "type": "function"
    },
    {
      "inputs": [
        {
          "internalType": "uint256",
          "name": "tokenId",
          "type": "uint256"
        }
      ],
      "name": "uri",
      "outputs": [
        {
          "internalType": "string",
          "name": "",
          "type": "string"
        }
      ],
      "stateMutability": "view",
      "type": "function"
    }
  ],
  "bytecode": "0x60806040526040518060200160405280600081525060039081620000249190620007ba565b503480156200003257600080fd5b5060405162004e5338038062004e5383398181016040528101906200005891906200093c565b6040518060200160405280600081525062000079816200030960201b60201c565b506200009a6200008e6200031e60201b60201c565b6200032660201b60201c565b620000b66739dfbff2be938a6660c01b620003ec60201b60201c565b620000d26792d060514ef16c5f60c01b620003ec60201b60201c565b620000ee67cf4539f5304dade360c01b620003ec60201b60201c565b60006040518060c001604052806040518060400160405280600781526020017f47656e65736973000000000000000000000000000000000000000000000000008152508152602001604051806020016040528060008152508152602001604051806020016040528060008152508152602001600073ffffffffffffffffffffffffffffffffffffffff1681526020016000815260200160008152509050620001a767a7ab8fb412df06f960c01b620003ec60201b60201c565b620001c367d0cfec21713c048060c01b620003ec60201b60201c565b60088190806001815401808255809150506001900390600052602060002090600602016000909190919091506000820151816000019081620002069190620007ba565b5060208201518160010190816200021e9190620007ba565b506040820151816002019081620002369190620007ba565b5060608201518160030160006101000a81548173ffffffffffffffffffffffffffffffffffffffff021916908373ffffffffffffffffffffffffffffffffffffffff1602179055506080820151816004015560a082015181600501555050620002b0673fe5714c3219d9d860c01b620003ec60201b60201c565b620002cc6786d21f66a355688960c01b620003ec60201b60201c565b620002dd83620003ef60201b60201c565b620002f9673a4f2827a902645e60c01b620003ec60201b60201c565b8160078190555050505062000a9e565b80600290816200031a9190620007ba565b5050565b600033905090565b6000600560009054906101000a900473ffffffffffffffffffffffffffffffffffffffff16905081600560006101000a81548173ffffffffffffffffffffffffffffffffffffffff021916908373ffffffffffffffffffffffffffffffffffffffff1602179055508173ffffffffffffffffffffffffffffffffffffffff168173ffffffffffffffffffffffffffffffffffffffff167f8be0079c531659141344cd1fd0a4f28419497f9722a3daafe3b4186f6b6457e060405160405180910390a35050565b50565b620003ff6200048560201b60201c565b600073ffffffffffffffffffffffffffffffffffffffff168173ffffffffffffffffffffffffffffffffffffffff160362000471576040517f08c379a0000000000000000000000000000000000000000000000000000000008152600401620004689062000a0a565b60405180910390fd5b62000482816200032660201b60201c565b50565b620004956200031e60201b60201c565b73ffffffffffffffffffffffffffffffffffffffff16620004bb6200051660201b60201c565b73ffffffffffffffffffffffffffffffffffffffff161462000514576040517f08c379a00000000000000000000000000000000000000000000000000000000081526004016200050b9062000a7c565b60405180910390fd5b565b6000600560009054906101000a900473ffffffffffffffffffffffffffffffffffffffff16905090565b600081519050919050565b7f4e487b7100000000000000000000000000000000000000000000000000000000600052604160045260246000fd5b7f4e487b7100000000000000000000000000000000000000000000000000000000600052602260045260246000fd5b60006002820490506001821680620005c257607f821691505b602082108103620005d857620005d76200057a565b5b50919050565b60008190508160005260206000209050919050565b60006020601f8301049050919050565b600082821b905092915050565b600060088302620006427fffffffffffffffffffffffffffffffffffffffffffffffffffffffffffffffff8262000603565b6200064e868362000603565b95508019841693508086168417925050509392505050565b6000819050919050565b6000819050919050565b60006200069b620006956200068f8462000666565b62000670565b62000666565b9050919050565b6000819050919050565b620006b7836200067a565b620006cf620006c682620006a2565b84845462000610565b825550505050565b600090565b620006e6620006d7565b620006f3818484620006ac565b505050565b5b818110156200071b576200070f600082620006dc565b600181019050620006f9565b5050565b601f8211156200076a576200073481620005de565b6200073f84620005f3565b810160208510156200074f578190505b620007676200075e85620005f3565b830182620006f8565b50505b505050565b600082821c905092915050565b60006200078f600019846008026200076f565b1980831691505092915050565b6000620007aa83836200077c565b9150826002028217905092915050565b620007c58262000540565b67ffffffffffffffff811115620007e157620007e06200054b565b5b620007ed8254620005a9565b620007fa8282856200071f565b600060209050601f8311600181146200083257600084156200081d578287015190505b6200082985826200079c565b86555062000899565b601f1984166200084286620005de565b60005b828110156200086c5784890151825560018201915060208501945060208101905062000845565b868310156200088c578489015162000888601f8916826200077c565b8355505b6001600288020188555050505b505050505050565b600080fd5b600073ffffffffffffffffffffffffffffffffffffffff82169050919050565b6000620008d382620008a6565b9050919050565b620008e581620008c6565b8114620008f157600080fd5b50565b6000815190506200090581620008da565b92915050565b620009168162000666565b81146200092257600080fd5b50565b60008151905062000936816200090b565b92915050565b60008060408385031215620009565762000955620008a1565b5b60006200096685828601620008f4565b9250506020620009798582860162000925565b9150509250929050565b600082825260208201905092915050565b7f4f776e61626c653a206e6577206f776e657220697320746865207a65726f206160008201527f6464726573730000000000000000000000000000000000000000000000000000602082015250565b6000620009f260268362000983565b9150620009ff8262000994565b604082019050919050565b6000602082019050818103600083015262000a2581620009e3565b9050919050565b7f4f776e61626c653a2063616c6c6572206973206e6f7420746865206f776e6572600082015250565b600062000a6460208362000983565b915062000a718262000a2c565b602082019050919050565b6000602082019050818103600083015262000a978162000a55565b9050919050565b6143a58062000aae6000396000f3fe608060405234801561001057600080fd5b506004361061010a5760003560e01c80638da5cb5b116100a2578063e985e9c511610071578063e985e9c5146102cb578063f053dc5c146102fb578063f242432a14610319578063f2fde38b14610335578063f6b49df8146103515761010a565b80638da5cb5b1461022f578063a22cb4651461024d578063b0df9b8314610269578063bd85d8671461029b5761010a565b80634e1273f4116100de5780634e1273f4146101bb578063715018a6146101eb5780637e77300d146101f557806389da85d3146102115761010a565b8062fdd58e1461010f57806301ffc9a71461013f5780630e89341c1461016f5780632eb2c2d61461019f575b600080fd5b61012960048036038101906101249190612824565b610381565b6040516101369190612873565b60405180910390f35b610159600480360381019061015491906128e6565b610449565b604051610166919061292e565b60405180910390f35b61018960048036038101906101849190612949565b61052b565b6040516101969190612a06565b60405180910390f35b6101b960048036038101906101b49190612c25565b610610565b005b6101d560048036038101906101d09190612db7565b6106b1565b6040516101e29190612eed565b60405180910390f35b6101f36107ca565b005b61020f600480360381019061020a9190612f0f565b6107de565b005b6102196108c4565b6040516102269190612873565b60405180910390f35b610237610911565b6040516102449190612f71565b60405180910390f35b61026760048036038101906102629190612fb8565b61093b565b005b610283600480360381019061027e9190612949565b610951565b60405161029293929190612ff8565b60405180910390f35b6102b560048036038101906102b09190612949565b610b5b565b6040516102c2919061311f565b60405180910390f35b6102e560048036038101906102e09190613141565b610f1d565b6040516102f2919061292e565b60405180910390f35b610303610fb1565b6040516103109190612873565b60405180910390f35b610333600480360381019061032e9190613181565b610fb7565b005b61034f600480360381019061034a9190613218565b611058565b005b61036b60048036038101906103669190613341565b6110db565b6040516103789190612873565b60405180910390f35b60008073ffffffffffffffffffffffffffffffffffffffff168373ffffffffffffffffffffffffffffffffffffffff16036103f1576040517f08c379a00000000000000000000000000000000000000000000000000000000081526004016103e8906134d2565b60405180910390fd5b60008083815260200190815260200160002060008473ffffffffffffffffffffffffffffffffffffffff1673ffffffffffffffffffffffffffffffffffffffff16815260200190815260200160002054905092915050565b60007fd9b67a26000000000000000000000000000000000000000000000000000000007bffffffffffffffffffffffffffffffffffffffffffffffffffffffff1916827bffffffffffffffffffffffffffffffffffffffffffffffffffffffff1916148061051457507f0e89341c000000000000000000000000000000000000000000000000000000007bffffffffffffffffffffffffffffffffffffffffffffffffffffffff1916827bffffffffffffffffffffffffffffffffffffffffffffffffffffffff1916145b806105245750610523826114a5565b5b9050919050565b6060600060046000848152602001908152602001600020805461054d90613521565b80601f016020809104026020016040519081016040528092919081815260200182805461057990613521565b80156105c65780601f1061059b576101008083540402835291602001916105c6565b820191906000526020600020905b8154815290600101906020018083116105a957829003601f168201915b5050505050905060008151116105e4576105df8361150f565b610608565b6003816040516020016105f8929190613626565b6040516020818303038152906040525b915050919050565b6106186115a3565b73ffffffffffffffffffffffffffffffffffffffff168573ffffffffffffffffffffffffffffffffffffffff16148061065e575061065d856106586115a3565b610f1d565b5b61069d576040517f08c379a0000000000000000000000000000000000000000000000000000000008152600401610694906136bc565b60405180910390fd5b6106aa85858585856115ab565b5050505050565b606081518351146106f7576040517f08c379a00000000000000000000000000000000000000000000000000000000081526004016106ee9061374e565b60405180910390fd5b6000835167ffffffffffffffff81111561071457610713612a2d565b5b6040519080825280602002602001820160405280156107425781602001602082028036833780820191505090505b50905060005b84518110156107bf5761078f8582815181106107675761076661376e565b5b60200260200101518583815181106107825761078161376e565b5b6020026020010151610381565b8282815181106107a2576107a161376e565b5b602002602001018181525050806107b8906137cc565b9050610748565b508091505092915050565b6107d26118cc565b6107dc600061194a565b565b6107f267d0a2d43d92d69c9f60c01b611a10565b610806673b03a3bf529a592760c01b611a10565b61081a671027780a4a1e4d5e60c01b611a10565b600061082583610951565b9250505061083d674d1f7ba66e80ae4b60c01b611a10565b6108516721c2c57a3595e3b760c01b611a10565b61086e818585600160405180602001604052806000815250610fb7565b610882679817254a0ca8b3cc60c01b611a10565b81600884815481106108975761089661376e565b5b906000526020600020906006020160040160008282546108b79190613814565b9250508190555050505050565b60006108da6730f9ab9601c3194360c01b611a10565b6108ee67ec14f05a4b59897760c01b611a10565b610902679a1d149ea29200a760c01b611a10565b61090c6006611a13565b905090565b6000600560009054906101000a900473ffffffffffffffffffffffffffffffffffffffff16905090565b61094d6109466115a3565b8383611a21565b5050565b600080600061096a6741e4f0701354247a60c01b611a10565b61097e67011894a8c84bc8ef60c01b611a10565b61099267ee9518aa05fc6cdd60c01b611a10565b6109a6673df4bebe933eebb960c01b611a10565b600084116109e9576040517f08c379a00000000000000000000000000000000000000000000000000000000081526004016109e090613894565b60405180910390fd5b6109fd67458b8cb134a6ca8f60c01b611a10565b610a116713599f7878c3bc4460c01b611a10565b610a256753a91a9915c464fc60c01b611a10565b610a39679ea0849c65419a9660c01b611a10565b6008805490508410610a80576040517f08c379a0000000000000000000000000000000000000000000000000000000008152600401610a7790613894565b60405180910390fd5b610a94672fdaf81fca8b2b1e60c01b611a10565b610aa8673afb4363289a94a060c01b611a10565b610abc67f840b1e221c4bb3c60c01b611a10565b60088481548110610ad057610acf61376e565b5b90600052602060002090600602016004015460088581548110610af657610af561376e565b5b90600052602060002090600602016005015460088681548110610b1c57610b1b61376e565b5b906000526020600020906006020160030160009054906101000a900473ffffffffffffffffffffffffffffffffffffffff169250925092509193909250565b610b63612730565b610b776771c7f018b59f96d060c01b611a10565b610b8b67a14253753cc85dfa60c01b611a10565b610b9f6712744287100362f960c01b611a10565b610bb367944d23a631ecfda060c01b611a10565b60008211610bf6576040517f08c379a0000000000000000000000000000000000000000000000000000000008152600401610bed90613894565b60405180910390fd5b610c0a67e3f1977ffe4f1dd160c01b611a10565b610c1e6744d1f4487bb65c9660c01b611a10565b610c3267b3530f5937db37c960c01b611a10565b610c46676f9aa04abc30b54b60c01b611a10565b6008805490508210610c8d576040517f08c379a0000000000000000000000000000000000000000000000000000000008152600401610c8490613894565b60405180910390fd5b610ca1670c974349b3bc1e8d60c01b611a10565b610cb567aa5c14e6f122623960c01b611a10565b610cc96703001a3f177257ed60c01b611a10565b60088281548110610cdd57610cdc61376e565b5b90600052602060002090600602016040518060c0016040529081600082018054610d0690613521565b80601f0160208091040260200160405190810160405280929190818152602001828054610d3290613521565b8015610d7f5780601f10610d5457610100808354040283529160200191610d7f565b820191906000526020600020905b815481529060010190602001808311610d6257829003601f168201915b50505050508152602001600182018054610d9890613521565b80601f0160208091040260200160405190810160405280929190818152602001828054610dc490613521565b8015610e115780601f10610de657610100808354040283529160200191610e11565b820191906000526020600020905b815481529060010190602001808311610df457829003601f168201915b50505050508152602001600282018054610e2a90613521565b80601f0160208091040260200160405190810160405280929190818152602001828054610e5690613521565b8015610ea35780601f10610e7857610100808354040283529160200191610ea3565b820191906000526020600020905b815481529060010190602001808311610e8657829003601f168201915b505050505081526020016003820160009054906101000a900473ffffffffffffffffffffffffffffffffffffffff1673ffffffffffffffffffffffffffffffffffffffff1673ffffffffffffffffffffffffffffffffffffffff168152602001600482015481526020016005820154815250509050919050565b6000600160008473ffffffffffffffffffffffffffffffffffffffff1673ffffffffffffffffffffffffffffffffffffffff16815260200190815260200160002060008373ffffffffffffffffffffffffffffffffffffffff1673ffffffffffffffffffffffffffffffffffffffff16815260200190815260200160002060009054906101000a900460ff16905092915050565b60075481565b610fbf6115a3565b73ffffffffffffffffffffffffffffffffffffffff168573ffffffffffffffffffffffffffffffffffffffff161480611005575061100485610fff6115a3565b610f1d565b5b611044576040517f08c379a000000000000000000000000000000000000000000000000000000000815260040161103b906136bc565b60405180910390fd5b6110518585858585611b8d565b5050505050565b6110606118cc565b600073ffffffffffffffffffffffffffffffffffffffff168173ffffffffffffffffffffffffffffffffffffffff16036110cf576040517f08c379a00000000000000000000000000000000000000000000000000000000081526004016110c690613926565b60405180910390fd5b6110d88161194a565b50565b60006110f16747cafb3016b4d94260c01b611a10565b6110f96118cc565b61110d6755b788f7eaf045ec60c01b611a10565b6111216763438ecc76055c0c60c01b611a10565b61113567f71ac17d1e0025cc60c01b611a10565b611149679eef4e693fcf46c360c01b611a10565b6111536006611e28565b61116767aa520a6ae069dbcb60c01b611a10565b61117b677371aac43226351d60c01b611a10565b60006111876006611a13565b905061119d67ab4e042bc6289a9660c01b611a10565b6111b16780136380c809b2a660c01b611a10565b60006112028b8b8080601f016020809104026020016040519081016040528093929190818152602001838380828437600081840152601f19601f82011690508083019250505050505050600f611e3e565b905061121867311330e578e24fb660c01b611a10565b61122c67513fa90a4b503fa060c01b611a10565b60086040518060c001604052808f8f8080601f016020809104026020016040519081016040528093929190818152602001838380828437600081840152601f19601f8201169050808301925050505050505081526020018381526020018b8b8080601f016020809104026020016040519081016040528093929190818152602001838380828437600081840152601f19601f8201169050808301925050505050505081526020018973ffffffffffffffffffffffffffffffffffffffff16815260200188815260200187815250908060018154018082558091505060019003906000526020600020906006020160009091909190915060008201518160000190816113379190613add565b50602082015181600101908161134d9190613add565b5060408201518160020190816113639190613add565b5060608201518160030160006101000a81548173ffffffffffffffffffffffffffffffffffffffff021916908373ffffffffffffffffffffffffffffffffffffffff1602179055506080820151816004015560a0820151816005015550506113d567cc801ca291fdcd2d60c01b611a10565b6113e9670773c12af9f4832860c01b611a10565b611404878388604051806020016040528060008152506120c0565b6114186796c6df9428dafd7360c01b611a10565b61142c67eda681e2457db39260c01b611a10565b61143887336001611a21565b61144c674122f2141f9d68df60c01b611a10565b61146067d554b52d32d67e5b60c01b611a10565b61146a8285612270565b61147e671725a2321bc7ecbf60c01b611a10565b6114926711ecde0e2be05fb860c01b611a10565b81925050509a9950505050505050505050565b60007f01ffc9a7000000000000000000000000000000000000000000000000000000007bffffffffffffffffffffffffffffffffffffffffffffffffffffffff1916827bffffffffffffffffffffffffffffffffffffffffffffffffffffffff1916149050919050565b60606002805461151e90613521565b80601f016020809104026020016040519081016040528092919081815260200182805461154a90613521565b80156115975780601f1061156c57610100808354040283529160200191611597565b820191906000526020600020905b81548152906001019060200180831161157a57829003601f168201915b50505050509050919050565b600033905090565b81518351146115ef576040517f08c379a00000000000000000000000000000000000000000000000000000000081526004016115e690613c21565b60405180910390fd5b600073ffffffffffffffffffffffffffffffffffffffff168473ffffffffffffffffffffffffffffffffffffffff160361165e576040517f08c379a000000000000000000000000000000000000000000000000000000000815260040161165590613cb3565b60405180910390fd5b60006116686115a3565b90506116788187878787876122d5565b60005b84518110156118295760008582815181106116995761169861376e565b5b6020026020010151905060008583815181106116b8576116b761376e565b5b60200260200101519050600080600084815260200190815260200160002060008b73ffffffffffffffffffffffffffffffffffffffff1673ffffffffffffffffffffffffffffffffffffffff16815260200190815260200160002054905081811015611759576040517f08c379a000000000000000000000000000000000000000000000000000000000815260040161175090613d45565b60405180910390fd5b81810360008085815260200190815260200160002060008c73ffffffffffffffffffffffffffffffffffffffff1673ffffffffffffffffffffffffffffffffffffffff168152602001908152602001600020819055508160008085815260200190815260200160002060008b73ffffffffffffffffffffffffffffffffffffffff1673ffffffffffffffffffffffffffffffffffffffff168152602001908152602001600020600082825461180e9190613d65565b9250508190555050505080611822906137cc565b905061167b565b508473ffffffffffffffffffffffffffffffffffffffff168673ffffffffffffffffffffffffffffffffffffffff168273ffffffffffffffffffffffffffffffffffffffff167f4a39dc06d4c0dbc64b70af90fd698a233a518aa5d07e595d983b8c0526c8f7fb87876040516118a0929190613d99565b60405180910390a46118b68187878787876122dd565b6118c48187878787876122e5565b505050505050565b6118d46115a3565b73ffffffffffffffffffffffffffffffffffffffff166118f2610911565b73ffffffffffffffffffffffffffffffffffffffff1614611948576040517f08c379a000000000000000000000000000000000000000000000000000000000815260040161193f90613e1c565b60405180910390fd5b565b6000600560009054906101000a900473ffffffffffffffffffffffffffffffffffffffff16905081600560006101000a81548173ffffffffffffffffffffffffffffffffffffffff021916908373ffffffffffffffffffffffffffffffffffffffff1602179055508173ffffffffffffffffffffffffffffffffffffffff168173ffffffffffffffffffffffffffffffffffffffff167f8be0079c531659141344cd1fd0a4f28419497f9722a3daafe3b4186f6b6457e060405160405180910390a35050565b50565b600081600001549050919050565b8173ffffffffffffffffffffffffffffffffffffffff168373ffffffffffffffffffffffffffffffffffffffff1603611a8f576040517f08c379a0000000000000000000000000000000000000000000000000000000008152600401611a8690613eae565b60405180910390fd5b80600160008573ffffffffffffffffffffffffffffffffffffffff1673ffffffffffffffffffffffffffffffffffffffff16815260200190815260200160002060008473ffffffffffffffffffffffffffffffffffffffff1673ffffffffffffffffffffffffffffffffffffffff16815260200190815260200160002060006101000a81548160ff0219169083151502179055508173ffffffffffffffffffffffffffffffffffffffff168373ffffffffffffffffffffffffffffffffffffffff167f17307eab39ab6107e8899845ad3d59bd9653f200f220920489ca2b5937696c3183604051611b80919061292e565b60405180910390a3505050565b600073ffffffffffffffffffffffffffffffffffffffff168473ffffffffffffffffffffffffffffffffffffffff1603611bfc576040517f08c379a0000000000000000000000000000000000000000000000000000000008152600401611bf390613cb3565b60405180910390fd5b6000611c066115a3565b90506000611c13856124bc565b90506000611c20856124bc565b9050611c308389898585896122d5565b600080600088815260200190815260200160002060008a73ffffffffffffffffffffffffffffffffffffffff1673ffffffffffffffffffffffffffffffffffffffff16815260200190815260200160002054905085811015611cc7576040517f08c379a0000000000000000000000000000000000000000000000000000000008152600401611cbe90613d45565b60405180910390fd5b85810360008089815260200190815260200160002060008b73ffffffffffffffffffffffffffffffffffffffff1673ffffffffffffffffffffffffffffffffffffffff168152602001908152602001600020819055508560008089815260200190815260200160002060008a73ffffffffffffffffffffffffffffffffffffffff1673ffffffffffffffffffffffffffffffffffffffff1681526020019081526020016000206000828254611d7c9190613d65565b925050819055508773ffffffffffffffffffffffffffffffffffffffff168973ffffffffffffffffffffffffffffffffffffffff168573ffffffffffffffffffffffffffffffffffffffff167fc3d58168c5ae7397731d063d5bbf3d657854427343f4c083240f7aacaa2d0f628a8a604051611df9929190613ece565b60405180910390a4611e0f848a8a86868a6122dd565b611e1d848a8a8a8a8a612536565b505050505050505050565b6001816000016000828254019250508190555050565b6060611e54670385ea15de7b8d4560c01b611a10565b611e6867875ec8f24fa2991f60c01b611a10565b611e7c679f4ce379d32a4bc460c01b611a10565b6000839050611e9567827be5eb9e67f0a760c01b611a10565b611ea967768621588438195760c01b611a10565b82815111611ef657611ec5676239e751f2b6209f60c01b611a10565b611ed967527636acbe4b04b360c01b611a10565b611eed67bab9d8593d0c648960c01b611a10565b839150506120ba565b611f0a67c1b2cb268830b91760c01b611a10565b611f1e67dc647639a38bcae060c01b611a10565b611f32679582902a8dd0746860c01b611a10565b6000600384611f419190613814565b67ffffffffffffffff811115611f5a57611f59612a2d565b5b6040519080825280601f01601f191660200182016040528015611f8c5781602001600182028036833780820191505090505b509050611fa3676978230d73e17d9460c01b611a10565b611fb767f0266b1b69e9dc7660c01b611a10565b60005b600385611fc79190613814565b81101561205557611fe26750ed4f925c196c8960c01b611a10565b828181518110611ff557611ff461376e565b5b602001015160f81c60f81b8282815181106120135761201261376e565b5b60200101907effffffffffffffffffffffffffffffffffffffffffffffffffffffffffffff1916908160001a905350808061204d906137cc565b915050611fba565b5061206a676c08240c242db89e60c01b611a10565b8060405160200161207b9190613f8a565b60405160208183030381529060405290506120a06724f6faf2291dcd6360c01b611a10565b6120b4673dfa6a3fe32e50c660c01b611a10565b80925050505b92915050565b600073ffffffffffffffffffffffffffffffffffffffff168473ffffffffffffffffffffffffffffffffffffffff160361212f576040517f08c379a00000000000000000000000000000000000000000000000000000000081526004016121269061401e565b60405180910390fd5b60006121396115a3565b90506000612146856124bc565b90506000612153856124bc565b9050612164836000898585896122d5565b8460008088815260200190815260200160002060008973ffffffffffffffffffffffffffffffffffffffff1673ffffffffffffffffffffffffffffffffffffffff16815260200190815260200160002060008282546121c39190613d65565b925050819055508673ffffffffffffffffffffffffffffffffffffffff16600073ffffffffffffffffffffffffffffffffffffffff168473ffffffffffffffffffffffffffffffffffffffff167fc3d58168c5ae7397731d063d5bbf3d657854427343f4c083240f7aacaa2d0f628989604051612241929190613ece565b60405180910390a4612258836000898585896122dd565b61226783600089898989612536565b50505050505050565b806004600084815260200190815260200160002090816122909190613add565b50817f6bb7ff708619ba0610cba295a58592e0451dee2622938c8755667688daf3529b6122bc8461052b565b6040516122c99190612a06565b60405180910390a25050565b505050505050565b505050505050565b6123048473ffffffffffffffffffffffffffffffffffffffff1661270d565b156124b4578373ffffffffffffffffffffffffffffffffffffffff1663bc197c8187878686866040518663ffffffff1660e01b815260040161234a959493929190614088565b6020604051808303816000875af192505050801561238657506040513d601f19601f820116820180604052508101906123839190614105565b60015b61242b5761239261413f565b806308c379a0036123ee57506123a6614161565b806123b157506123f0565b806040517f08c379a00000000000000000000000000000000000000000000000000000000081526004016123e59190612a06565b60405180910390fd5b505b6040517f08c379a000000000000000000000000000000000000000000000000000000000815260040161242290614263565b60405180910390fd5b63bc197c8160e01b7bffffffffffffffffffffffffffffffffffffffffffffffffffffffff1916817bffffffffffffffffffffffffffffffffffffffffffffffffffffffff1916146124b2576040517f08c379a00000000000000000000000000000000000000000000000000000000081526004016124a9906142f5565b60405180910390fd5b505b505050505050565b60606000600167ffffffffffffffff8111156124db576124da612a2d565b5b6040519080825280602002602001820160405280156125095781602001602082028036833780820191505090505b50905082816000815181106125215761252061376e565b5b60200260200101818152505080915050919050565b6125558473ffffffffffffffffffffffffffffffffffffffff1661270d565b15612705578373ffffffffffffffffffffffffffffffffffffffff1663f23a6e6187878686866040518663ffffffff1660e01b815260040161259b959493929190614315565b6020604051808303816000875af19250505080156125d757506040513d601f19601f820116820180604052508101906125d49190614105565b60015b61267c576125e361413f565b806308c379a00361263f57506125f7614161565b806126025750612641565b806040517f08c379a00000000000000000000000000000000000000000000000000000000081526004016126369190612a06565b60405180910390fd5b505b6040517f08c379a000000000000000000000000000000000000000000000000000000000815260040161267390614263565b60405180910390fd5b63f23a6e6160e01b7bffffffffffffffffffffffffffffffffffffffffffffffffffffffff1916817bffffffffffffffffffffffffffffffffffffffffffffffffffffffff191614612703576040517f08c379a00000000000000000000000000000000000000000000000000000000081526004016126fa906142f5565b60405180910390fd5b505b505050505050565b6000808273ffffffffffffffffffffffffffffffffffffffff163b119050919050565b6040518060c00160405280606081526020016060815260200160608152602001600073ffffffffffffffffffffffffffffffffffffffff16815260200160008152602001600081525090565b6000604051905090565b600080fd5b600080fd5b600073ffffffffffffffffffffffffffffffffffffffff82169050919050565b60006127bb82612790565b9050919050565b6127cb816127b0565b81146127d657600080fd5b50565b6000813590506127e8816127c2565b92915050565b6000819050919050565b612801816127ee565b811461280c57600080fd5b50565b60008135905061281e816127f8565b92915050565b6000806040838503121561283b5761283a612786565b5b6000612849858286016127d9565b925050602061285a8582860161280f565b9150509250929050565b61286d816127ee565b82525050565b60006020820190506128886000830184612864565b92915050565b60007fffffffff0000000000000000000000000000000000000000000000000000000082169050919050565b6128c38161288e565b81146128ce57600080fd5b50565b6000813590506128e0816128ba565b92915050565b6000602082840312156128fc576128fb612786565b5b600061290a848285016128d1565b91505092915050565b60008115159050919050565b61292881612913565b82525050565b6000602082019050612943600083018461291f565b92915050565b60006020828403121561295f5761295e612786565b5b600061296d8482850161280f565b91505092915050565b600081519050919050565b600082825260208201905092915050565b60005b838110156129b0578082015181840152602081019050612995565b60008484015250505050565b6000601f19601f8301169050919050565b60006129d882612976565b6129e28185612981565b93506129f2818560208601612992565b6129fb816129bc565b840191505092915050565b60006020820190508181036000830152612a2081846129cd565b905092915050565b600080fd5b7f4e487b7100000000000000000000000000000000000000000000000000000000600052604160045260246000fd5b612a65826129bc565b810181811067ffffffffffffffff82111715612a8457612a83612a2d565b5b80604052505050565b6000612a9761277c565b9050612aa38282612a5c565b919050565b600067ffffffffffffffff821115612ac357612ac2612a2d565b5b602082029050602081019050919050565b600080fd5b6000612aec612ae784612aa8565b612a8d565b90508083825260208201905060208402830185811115612b0f57612b0e612ad4565b5b835b81811015612b385780612b24888261280f565b845260208401935050602081019050612b11565b5050509392505050565b600082601f830112612b5757612b56612a28565b5b8135612b67848260208601612ad9565b91505092915050565b600080fd5b600067ffffffffffffffff821115612b9057612b8f612a2d565b5b612b99826129bc565b9050602081019050919050565b82818337600083830152505050565b6000612bc8612bc384612b75565b612a8d565b905082815260208101848484011115612be457612be3612b70565b5b612bef848285612ba6565b509392505050565b600082601f830112612c0c57612c0b612a28565b5b8135612c1c848260208601612bb5565b91505092915050565b600080600080600060a08688031215612c4157612c40612786565b5b6000612c4f888289016127d9565b9550506020612c60888289016127d9565b945050604086013567ffffffffffffffff811115612c8157612c8061278b565b5b612c8d88828901612b42565b935050606086013567ffffffffffffffff811115612cae57612cad61278b565b5b612cba88828901612b42565b925050608086013567ffffffffffffffff811115612cdb57612cda61278b565b5b612ce788828901612bf7565b9150509295509295909350565b600067ffffffffffffffff821115612d0f57612d0e612a2d565b5b602082029050602081019050919050565b6000612d33612d2e84612cf4565b612a8d565b90508083825260208201905060208402830185811115612d5657612d55612ad4565b5b835b81811015612d7f5780612d6b88826127d9565b845260208401935050602081019050612d58565b5050509392505050565b600082601f830112612d9e57612d9d612a28565b5b8135612dae848260208601612d20565b91505092915050565b60008060408385031215612dce57612dcd612786565b5b600083013567ffffffffffffffff811115612dec57612deb61278b565b5b612df885828601612d89565b925050602083013567ffffffffffffffff811115612e1957612e1861278b565b5b612e2585828601612b42565b9150509250929050565b600081519050919050565b600082825260208201905092915050565b6000819050602082019050919050565b612e64816127ee565b82525050565b6000612e768383612e5b565b60208301905092915050565b6000602082019050919050565b6000612e9a82612e2f565b612ea48185612e3a565b9350612eaf83612e4b565b8060005b83811015612ee0578151612ec78882612e6a565b9750612ed283612e82565b925050600181019050612eb3565b5085935050505092915050565b60006020820190508181036000830152612f078184612e8f565b905092915050565b600080600060608486031215612f2857612f27612786565b5b6000612f36868287016127d9565b9350506020612f478682870161280f565b9250506040612f588682870161280f565b9150509250925092565b612f6b816127b0565b82525050565b6000602082019050612f866000830184612f62565b92915050565b612f9581612913565b8114612fa057600080fd5b50565b600081359050612fb281612f8c565b92915050565b60008060408385031215612fcf57612fce612786565b5b6000612fdd858286016127d9565b9250506020612fee85828601612fa3565b9150509250929050565b600060608201905061300d6000830186612864565b61301a6020830185612864565b6130276040830184612f62565b949350505050565b600082825260208201905092915050565b600061304b82612976565b613055818561302f565b9350613065818560208601612992565b61306e816129bc565b840191505092915050565b613082816127b0565b82525050565b600060c08301600083015184820360008601526130a58282613040565b915050602083015184820360208601526130bf8282613040565b915050604083015184820360408601526130d98282613040565b91505060608301516130ee6060860182613079565b5060808301516131016080860182612e5b565b5060a083015161311460a0860182612e5b565b508091505092915050565b600060208201905081810360008301526131398184613088565b905092915050565b6000806040838503121561315857613157612786565b5b6000613166858286016127d9565b9250506020613177858286016127d9565b9150509250929050565b600080600080600060a0868803121561319d5761319c612786565b5b60006131ab888289016127d9565b95505060206131bc888289016127d9565b94505060406131cd8882890161280f565b93505060606131de8882890161280f565b925050608086013567ffffffffffffffff8111156131ff576131fe61278b565b5b61320b88828901612bf7565b9150509295509295909350565b60006020828403121561322e5761322d612786565b5b600061323c848285016127d9565b91505092915050565b600080fd5b60008083601f8401126132605761325f612a28565b5b8235905067ffffffffffffffff81111561327d5761327c613245565b5b60208301915083600182028301111561329957613298612ad4565b5b9250929050565b600067ffffffffffffffff8211156132bb576132ba612a2d565b5b6132c4826129bc565b9050602081019050919050565b60006132e46132df846132a0565b612a8d565b905082815260208101848484011115613300576132ff612b70565b5b61330b848285612ba6565b509392505050565b600082601f83011261332857613327612a28565b5b81356133388482602086016132d1565b91505092915050565b60008060008060008060008060008060e08b8d03121561336457613363612786565b5b60008b013567ffffffffffffffff8111156133825761338161278b565b5b61338e8d828e0161324a565b9a509a505060208b013567ffffffffffffffff8111156133b1576133b061278b565b5b6133bd8d828e0161324a565b985098505060408b013567ffffffffffffffff8111156133e0576133df61278b565b5b6133ec8d828e0161324a565b965096505060606133ff8d828e016127d9565b94505060806134108d828e0161280f565b93505060a06134218d828e0161280f565b92505060c08b013567ffffffffffffffff8111156134425761344161278b565b5b61344e8d828e01613313565b9150509295989b9194979a5092959850565b7f455243313135353a2061646472657373207a65726f206973206e6f742061207660008201527f616c6964206f776e657200000000000000000000000000000000000000000000602082015250565b60006134bc602a83612981565b91506134c782613460565b604082019050919050565b600060208201905081810360008301526134eb816134af565b9050919050565b7f4e487b7100000000000000000000000000000000000000000000000000000000600052602260045260246000fd5b6000600282049050600182168061353957607f821691505b60208210810361354c5761354b6134f2565b5b50919050565b600081905092915050565b60008190508160005260206000209050919050565b6000815461357f81613521565b6135898186613552565b945060018216600081146135a457600181146135b9576135ec565b60ff19831686528115158202860193506135ec565b6135c28561355d565b60005b838110156135e4578154818901526001820191506020810190506135c5565b838801955050505b50505092915050565b600061360082612976565b61360a8185613552565b935061361a818560208601612992565b80840191505092915050565b60006136328285613572565b915061363e82846135f5565b91508190509392505050565b7f455243313135353a2063616c6c6572206973206e6f7420746f6b656e206f776e60008201527f6572206f7220617070726f766564000000000000000000000000000000000000602082015250565b60006136a6602e83612981565b91506136b18261364a565b604082019050919050565b600060208201905081810360008301526136d581613699565b9050919050565b7f455243313135353a206163636f756e747320616e6420696473206c656e67746860008201527f206d69736d617463680000000000000000000000000000000000000000000000602082015250565b6000613738602983612981565b9150613743826136dc565b604082019050919050565b600060208201905081810360008301526137678161372b565b9050919050565b7f4e487b7100000000000000000000000000000000000000000000000000000000600052603260045260246000fd5b7f4e487b7100000000000000000000000000000000000000000000000000000000600052601160045260246000fd5b60006137d7826127ee565b91507fffffffffffffffffffffffffffffffffffffffffffffffffffffffffffffffff82036138095761380861379d565b5b600182019050919050565b600061381f826127ee565b915061382a836127ee565b92508282039050818111156138425761384161379d565b5b92915050565b7f496e76616c696420696e64657800000000000000000000000000000000000000600082015250565b600061387e600d83612981565b915061388982613848565b602082019050919050565b600060208201905081810360008301526138ad81613871565b9050919050565b7f4f776e61626c653a206e6577206f776e657220697320746865207a65726f206160008201527f6464726573730000000000000000000000000000000000000000000000000000602082015250565b6000613910602683612981565b915061391b826138b4565b604082019050919050565b6000602082019050818103600083015261393f81613903565b9050919050565b60006020601f8301049050919050565b600082821b905092915050565b6000600883026139937fffffffffffffffffffffffffffffffffffffffffffffffffffffffffffffffff82613956565b61399d8683613956565b95508019841693508086168417925050509392505050565b6000819050919050565b60006139da6139d56139d0846127ee565b6139b5565b6127ee565b9050919050565b6000819050919050565b6139f4836139bf565b613a08613a00826139e1565b848454613963565b825550505050565b600090565b613a1d613a10565b613a288184846139eb565b505050565b5b81811015613a4c57613a41600082613a15565b600181019050613a2e565b5050565b601f821115613a9157613a628161355d565b613a6b84613946565b81016020851015613a7a578190505b613a8e613a8685613946565b830182613a2d565b50505b505050565b600082821c905092915050565b6000613ab460001984600802613a96565b1980831691505092915050565b6000613acd8383613aa3565b9150826002028217905092915050565b613ae682612976565b67ffffffffffffffff811115613aff57613afe612a2d565b5b613b098254613521565b613b14828285613a50565b600060209050601f831160018114613b475760008415613b35578287015190505b613b3f8582613ac1565b865550613ba7565b601f198416613b558661355d565b60005b82811015613b7d57848901518255600182019150602085019450602081019050613b58565b86831015613b9a5784890151613b96601f891682613aa3565b8355505b6001600288020188555050505b505050505050565b7f455243313135353a2069647320616e6420616d6f756e7473206c656e6774682060008201527f6d69736d61746368000000000000000000000000000000000000000000000000602082015250565b6000613c0b602883612981565b9150613c1682613baf565b604082019050919050565b60006020820190508181036000830152613c3a81613bfe565b9050919050565b7f455243313135353a207472616e7366657220746f20746865207a65726f20616460008201527f6472657373000000000000000000000000000000000000000000000000000000602082015250565b6000613c9d602583612981565b9150613ca882613c41565b604082019050919050565b60006020820190508181036000830152613ccc81613c90565b9050919050565b7f455243313135353a20696e73756666696369656e742062616c616e636520666f60008201527f72207472616e7366657200000000000000000000000000000000000000000000602082015250565b6000613d2f602a83612981565b9150613d3a82613cd3565b604082019050919050565b60006020820190508181036000830152613d5e81613d22565b9050919050565b6000613d70826127ee565b9150613d7b836127ee565b9250828201905080821115613d9357613d9261379d565b5b92915050565b60006040820190508181036000830152613db38185612e8f565b90508181036020830152613dc78184612e8f565b90509392505050565b7f4f776e61626c653a2063616c6c6572206973206e6f7420746865206f776e6572600082015250565b6000613e06602083612981565b9150613e1182613dd0565b602082019050919050565b60006020820190508181036000830152613e3581613df9565b9050919050565b7f455243313135353a2073657474696e6720617070726f76616c2073746174757360008201527f20666f722073656c660000000000000000000000000000000000000000000000602082015250565b6000613e98602983612981565b9150613ea382613e3c565b604082019050919050565b60006020820190508181036000830152613ec781613e8b565b9050919050565b6000604082019050613ee36000830185612864565b613ef06020830184612864565b9392505050565b600081519050919050565b600081905092915050565b6000613f1882613ef7565b613f228185613f02565b9350613f32818560208601612992565b80840191505092915050565b7f2e2e2e0000000000000000000000000000000000000000000000000000000000600082015250565b6000613f74600383613552565b9150613f7f82613f3e565b600382019050919050565b6000613f968284613f0d565b9150613fa182613f67565b915081905092915050565b7f455243313135353a206d696e7420746f20746865207a65726f2061646472657360008201527f7300000000000000000000000000000000000000000000000000000000000000602082015250565b6000614008602183612981565b915061401382613fac565b604082019050919050565b6000602082019050818103600083015261403781613ffb565b9050919050565b600082825260208201905092915050565b600061405a82613ef7565b614064818561403e565b9350614074818560208601612992565b61407d816129bc565b840191505092915050565b600060a08201905061409d6000830188612f62565b6140aa6020830187612f62565b81810360408301526140bc8186612e8f565b905081810360608301526140d08185612e8f565b905081810360808301526140e4818461404f565b90509695505050505050565b6000815190506140ff816128ba565b92915050565b60006020828403121561411b5761411a612786565b5b6000614129848285016140f0565b91505092915050565b60008160e01c9050919050565b600060033d111561415e5760046000803e61415b600051614132565b90505b90565b600060443d106141ee5761417361277c565b60043d036004823e80513d602482011167ffffffffffffffff8211171561419b5750506141ee565b808201805167ffffffffffffffff8111156141b957505050506141ee565b80602083010160043d0385018111156141d65750505050506141ee565b6141e582602001850186612a5c565b82955050505050505b90565b7f455243313135353a207472616e7366657220746f206e6f6e2d4552433131353560008201527f526563656976657220696d706c656d656e746572000000000000000000000000602082015250565b600061424d603483612981565b9150614258826141f1565b604082019050919050565b6000602082019050818103600083015261427c81614240565b9050919050565b7f455243313135353a204552433131353552656365697665722072656a6563746560008201527f6420746f6b656e73000000000000000000000000000000000000000000000000602082015250565b60006142df602883612981565b91506142ea82614283565b604082019050919050565b6000602082019050818103600083015261430e816142d2565b9050919050565b600060a08201905061432a6000830188612f62565b6143376020830187612f62565b6143446040830186612864565b6143516060830185612864565b8181036080830152614363818461404f565b9050969550505050505056fea26469706673582212204a529ce0e82a7f1fd305d16e13ac6ebf8e9242f6ae5c89c331127fbe2391876e64736f6c63430008120033",
  "linkReferences": {},
  "deployedLinkReferences": {}
}