{
  "_format": "hh-sol-artifact-1",
  "contractName": "SimpleStorage",
  "sourceName": "contracts/SimpleStorage.sol",
  "abi": [
    {
      "inputs": [],
      "stateMutability": "nonpayable",
      "type": "constructor"
    },
    {
      "anonymous": false,
      "inputs": [
        {
          "indexed": false,
          "internalType": "uint256",
          "name": "value",
          "type": "uint256"
        }
      ],
      "name": "Stock",
      "type": "event"
    },
    {
      "inputs": [
        {
          "internalType": "uint256",
          "name": "_value",
          "type": "uint256"
        }
      ],
      "name": "deposit",
      "outputs": [],
      "stateMutability": "nonpayable",
      "type": "function"
    },
    {
      "inputs": [],
      "name": "owner",
      "outputs": [
        {
          "internalType": "address",
          "name": "",
          "type": "address"
        }
      ],
      "stateMutability": "view",
      "type": "function"
    },
    {
      "inputs": [],
      "name": "s_value",
      "outputs": [
        {
          "internalType": "uint256",
          "name": "",
          "type": "uint256"
        }
      ],
      "stateMutability": "view",
      "type": "function"
    },
    {
      "inputs": [],
      "name": "setOwner",
      "outputs": [],
      "stateMutability": "nonpayable",
      "type": "function"
    }
  ],
  "bytecode": "0x608060405234801561001057600080fd5b50600080546001600160a01b031916331790556101dd806100326000396000f3fe608060405234801561001057600080fd5b506004361061004c5760003560e01c80631e372f541461005157806340caae061461006d5780638da5cb5b14610086578063b6b55f25146100b1575b600080fd5b61005a60015481565b6040519081526020015b60405180910390f35b610084600080546001600160a01b03191633179055565b005b600054610099906001600160a01b031681565b6040516001600160a01b039091168152602001610064565b6100846100bf36600461018e565b600081116101025760405162461bcd60e51b815260206004820152600b60248201526a456d7074792076616c756560a81b60448201526064015b60405180910390fd5b6000546001600160a01b031633146101535760405162461bcd60e51b81526020600482015260146024820152732cb7ba9030b932b713ba103a34329037bbb732b960611b60448201526064016100f9565b60018190556040518181527f568981363c4b30c5201b28b4c473e35b42feafc1a604d9774672a078191cbdf29060200160405180910390a150565b6000602082840312156101a057600080fd5b503591905056fea26469706673582212205c08d4a1a00d46b4ac6eaad77e13f07b34f2f2395b5944f8d2532c43906a9a7e64736f6c63430008130033",
  "linkReferences": {},
  "deployedLinkReferences": {}
}