{
  "_format": "hh-sol-artifact-1",
  "contractName": "TheSourceMemberToken",
  "sourceName": "contracts/TheSourceMemberToken.sol",
  "abi": [
    {
      "inputs": [
        {
          "internalType": "address",
          "name": "_marketPlaceAddr",
          "type": "address"
        },
        {
          "internalType": "uint256",
          "name": "_royalties",
          "type": "uint256"
        }
      ],
      "stateMutability": "nonpayable",
      "type": "constructor"
    },
    {
      "anonymous": false,
      "inputs": [
        {
          "indexed": true,
          "internalType": "address",
          "name": "owner",
          "type": "address"
        },
        {
          "indexed": true,
          "internalType": "address",
          "name": "approved",
          "type": "address"
        },
        {
          "indexed": true,
          "internalType": "uint256",
          "name": "tokenId",
          "type": "uint256"
        }
      ],
      "name": "Approval",
      "type": "event"
    },
    {
      "anonymous": false,
      "inputs": [
        {
          "indexed": true,
          "internalType": "address",
          "name": "owner",
          "type": "address"
        },
        {
          "indexed": true,
          "internalType": "address",
          "name": "operator",
          "type": "address"
        },
        {
          "indexed": false,
          "internalType": "bool",
          "name": "approved",
          "type": "bool"
        }
      ],
      "name": "ApprovalForAll",
      "type": "event"
    },
    {
      "anonymous": false,
      "inputs": [
        {
          "indexed": true,
          "internalType": "address",
          "name": "previousOwner",
          "type": "address"
        },
        {
          "indexed": true,
          "internalType": "address",
          "name": "newOwner",
          "type": "address"
        }
      ],
      "name": "OwnershipTransferred",
      "type": "event"
    },
    {
      "anonymous": false,
      "inputs": [
        {
          "indexed": true,
          "internalType": "address",
          "name": "from",
          "type": "address"
        },
        {
          "indexed": true,
          "internalType": "address",
          "name": "to",
          "type": "address"
        },
        {
          "indexed": true,
          "internalType": "uint256",
          "name": "tokenId",
          "type": "uint256"
        }
      ],
      "name": "Transfer",
      "type": "event"
    },
    {
      "anonymous": false,
      "inputs": [
        {
          "indexed": false,
          "internalType": "address",
          "name": "_to",
          "type": "address"
        },
        {
          "indexed": false,
          "internalType": "uint256",
          "name": "tokenId",
          "type": "uint256"
        }
      ],
      "name": "mint",
      "type": "event"
    },
    {
      "inputs": [
        {
          "internalType": "address",
          "name": "to",
          "type": "address"
        },
        {
          "internalType": "uint256",
          "name": "tokenId",
          "type": "uint256"
        }
      ],
      "name": "approve",
      "outputs": [],
      "stateMutability": "nonpayable",
      "type": "function"
    },
    {
      "inputs": [
        {
          "internalType": "address",
          "name": "owner",
          "type": "address"
        }
      ],
      "name": "balanceOf",
      "outputs": [
        {
          "internalType": "uint256",
          "name": "",
          "type": "uint256"
        }
      ],
      "stateMutability": "view",
      "type": "function"
    },
    {
      "inputs": [
        {
          "internalType": "uint256",
          "name": "tokenId",
          "type": "uint256"
        }
      ],
      "name": "getApproved",
      "outputs": [
        {
          "internalType": "address",
          "name": "",
          "type": "address"
        }
      ],
      "stateMutability": "view",
      "type": "function"
    },
    {
      "inputs": [],
      "name": "getNumberOfMemberToken",
      "outputs": [
        {
          "internalType": "uint256",
          "name": "",
          "type": "uint256"
        }
      ],
      "stateMutability": "view",
      "type": "function"
    },
    {
      "inputs": [
        {
          "internalType": "address",
          "name": "owner",
          "type": "address"
        },
        {
          "internalType": "address",
          "name": "operator",
          "type": "address"
        }
      ],
      "name": "isApprovedForAll",
      "outputs": [
        {
          "internalType": "bool",
          "name": "",
          "type": "bool"
        }
      ],
      "stateMutability": "view",
      "type": "function"
    },
    {
      "inputs": [],
      "name": "name",
      "outputs": [
        {
          "internalType": "string",
          "name": "",
          "type": "string"
        }
      ],
      "stateMutability": "view",
      "type": "function"
    },
    {
      "inputs": [],
      "name": "owner",
      "outputs": [
        {
          "internalType": "address",
          "name": "",
          "type": "address"
        }
      ],
      "stateMutability": "view",
      "type": "function"
    },
    {
      "inputs": [
        {
          "internalType": "uint256",
          "name": "tokenId",
          "type": "uint256"
        }
      ],
      "name": "ownerOf",
      "outputs": [
        {
          "internalType": "address",
          "name": "",
          "type": "address"
        }
      ],
      "stateMutability": "view",
      "type": "function"
    },
    {
      "inputs": [],
      "name": "renounceOwnership",
      "outputs": [],
      "stateMutability": "nonpayable",
      "type": "function"
    },
    {
      "inputs": [],
      "name": "royalties",
      "outputs": [
        {
          "internalType": "uint256",
          "name": "",
          "type": "uint256"
        }
      ],
      "stateMutability": "view",
      "type": "function"
    },
    {
      "inputs": [
        {
          "internalType": "address",
          "name": "_to",
          "type": "address"
        }
      ],
      "name": "safeMint",
      "outputs": [
        {
          "internalType": "uint256",
          "name": "",
          "type": "uint256"
        }
      ],
      "stateMutability": "nonpayable",
      "type": "function"
    },
    {
      "inputs": [
        {
          "internalType": "address",
          "name": "from",
          "type": "address"
        },
        {
          "internalType": "address",
          "name": "to",
          "type": "address"
        },
        {
          "internalType": "uint256",
          "name": "tokenId",
          "type": "uint256"
        }
      ],
      "name": "safeTransferFrom",
      "outputs": [],
      "stateMutability": "nonpayable",
      "type": "function"
    },
    {
      "inputs": [
        {
          "internalType": "address",
          "name": "from",
          "type": "address"
        },
        {
          "internalType": "address",
          "name": "to",
          "type": "address"
        },
        {
          "internalType": "uint256",
          "name": "tokenId",
          "type": "uint256"
        },
        {
          "internalType": "bytes",
          "name": "data",
          "type": "bytes"
        }
      ],
      "name": "safeTransferFrom",
      "outputs": [],
      "stateMutability": "nonpayable",
      "type": "function"
    },
    {
      "inputs": [
        {
          "internalType": "address",
          "name": "operator",
          "type": "address"
        },
        {
          "internalType": "bool",
          "name": "approved",
          "type": "bool"
        }
      ],
      "name": "setApprovalForAll",
      "outputs": [],
      "stateMutability": "nonpayable",
      "type": "function"
    },
    {
      "inputs": [
        {
          "internalType": "string",
          "name": "_newBaseURI",
          "type": "string"
        }
      ],
      "name": "setBaseURI",
      "outputs": [],
      "stateMutability": "nonpayable",
      "type": "function"
    },
    {
      "inputs": [],
      "name": "supply",
      "outputs": [
        {
          "internalType": "uint256",
          "name": "",
          "type": "uint256"
        }
      ],
      "stateMutability": "view",
      "type": "function"
    },
    {
      "inputs": [
        {
          "internalType": "bytes4",
          "name": "interfaceId",
          "type": "bytes4"
        }
      ],
      "name": "supportsInterface",
      "outputs": [
        {
          "internalType": "bool",
          "name": "",
          "type": "bool"
        }
      ],
      "stateMutability": "view",
      "type": "function"
    },
    {
      "inputs": [],
      "name": "symbol",
      "outputs": [
        {
          "internalType": "string",
          "name": "",
          "type": "string"
        }
      ],
      "stateMutability": "view",
      "type": "function"
    },
    {
      "inputs": [
        {
          "internalType": "uint256",
          "name": "tokenId",
          "type": "uint256"
        }
      ],
      "name": "tokenURI",
      "outputs": [
        {
          "internalType": "string",
          "name": "",
          "type": "string"
        }
      ],
      "stateMutability": "view",
      "type": "function"
    },
    {
      "inputs": [
        {
          "internalType": "address",
          "name": "from",
          "type": "address"
        },
        {
          "internalType": "address",
          "name": "to",
          "type": "address"
        },
        {
          "internalType": "uint256",
          "name": "tokenId",
          "type": "uint256"
        }
      ],
      "name": "transferFrom",
      "outputs": [],
      "stateMutability": "nonpayable",
      "type": "function"
    },
    {
      "inputs": [
        {
          "internalType": "address",
          "name": "newOwner",
          "type": "address"
        }
      ],
      "name": "transferOwnership",
      "outputs": [],
      "stateMutability": "nonpayable",
      "type": "function"
    }
  ],
  "bytecode": "0x60806040523480156200001157600080fd5b5060405162003cc438038062003cc4833981810160405281019062000037919062000464565b6040518060400160405280601481526020017f546865536f757263654d656d627265546f6b656e0000000000000000000000008152506040518060400160405280600481526020017f54534d54000000000000000000000000000000000000000000000000000000008152508160009081620000b491906200071b565b508060019081620000c691906200071b565b505050620000e9620000dd6200019d60201b60201c565b620001a560201b60201c565b6200010567c847743426fc65ae60c01b6200026b60201b60201c565b6200012167a5c9d6a89724169b60c01b6200026b60201b60201c565b6200013d6735052d3e8b75b56260c01b6200026b60201b60201c565b6200014e826200026e60201b60201c565b6200016a67aa561fe681d960ad60c01b6200026b60201b60201c565b806009819055506200018d6798f008b907f25edb60c01b6200026b60201b60201c565b601e600a8190555050506200091d565b600033905090565b6000600760009054906101000a900473ffffffffffffffffffffffffffffffffffffffff16905081600760006101000a81548173ffffffffffffffffffffffffffffffffffffffff021916908373ffffffffffffffffffffffffffffffffffffffff1602179055508173ffffffffffffffffffffffffffffffffffffffff168173ffffffffffffffffffffffffffffffffffffffff167f8be0079c531659141344cd1fd0a4f28419497f9722a3daafe3b4186f6b6457e060405160405180910390a35050565b50565b6200027e6200030460201b60201c565b600073ffffffffffffffffffffffffffffffffffffffff168173ffffffffffffffffffffffffffffffffffffffff1603620002f0576040517f08c379a0000000000000000000000000000000000000000000000000000000008152600401620002e79062000889565b60405180910390fd5b6200030181620001a560201b60201c565b50565b620003146200019d60201b60201c565b73ffffffffffffffffffffffffffffffffffffffff166200033a6200039560201b60201c565b73ffffffffffffffffffffffffffffffffffffffff161462000393576040517f08c379a00000000000000000000000000000000000000000000000000000000081526004016200038a90620008fb565b60405180910390fd5b565b6000600760009054906101000a900473ffffffffffffffffffffffffffffffffffffffff16905090565b600080fd5b600073ffffffffffffffffffffffffffffffffffffffff82169050919050565b6000620003f182620003c4565b9050919050565b6200040381620003e4565b81146200040f57600080fd5b50565b6000815190506200042381620003f8565b92915050565b6000819050919050565b6200043e8162000429565b81146200044a57600080fd5b50565b6000815190506200045e8162000433565b92915050565b600080604083850312156200047e576200047d620003bf565b5b60006200048e8582860162000412565b9250506020620004a1858286016200044d565b9150509250929050565b600081519050919050565b7f4e487b7100000000000000000000000000000000000000000000000000000000600052604160045260246000fd5b7f4e487b7100000000000000000000000000000000000000000000000000000000600052602260045260246000fd5b600060028204905060018216806200052d57607f821691505b602082108103620005435762000542620004e5565b5b50919050565b60008190508160005260206000209050919050565b60006020601f8301049050919050565b600082821b905092915050565b600060088302620005ad7fffffffffffffffffffffffffffffffffffffffffffffffffffffffffffffffff826200056e565b620005b986836200056e565b95508019841693508086168417925050509392505050565b6000819050919050565b6000620005fc620005f6620005f08462000429565b620005d1565b62000429565b9050919050565b6000819050919050565b6200061883620005db565b62000630620006278262000603565b8484546200057b565b825550505050565b600090565b6200064762000638565b620006548184846200060d565b505050565b5b818110156200067c57620006706000826200063d565b6001810190506200065a565b5050565b601f821115620006cb57620006958162000549565b620006a0846200055e565b81016020851015620006b0578190505b620006c8620006bf856200055e565b83018262000659565b50505b505050565b600082821c905092915050565b6000620006f060001984600802620006d0565b1980831691505092915050565b60006200070b8383620006dd565b9150826002028217905092915050565b6200072682620004ab565b67ffffffffffffffff811115620007425762000741620004b6565b5b6200074e825462000514565b6200075b82828562000680565b600060209050601f8311600181146200079357600084156200077e578287015190505b6200078a8582620006fd565b865550620007fa565b601f198416620007a38662000549565b60005b82811015620007cd57848901518255600182019150602085019450602081019050620007a6565b86831015620007ed5784890151620007e9601f891682620006dd565b8355505b6001600288020188555050505b505050505050565b600082825260208201905092915050565b7f4f776e61626c653a206e6577206f776e657220697320746865207a65726f206160008201527f6464726573730000000000000000000000000000000000000000000000000000602082015250565b60006200087160268362000802565b91506200087e8262000813565b604082019050919050565b60006020820190508181036000830152620008a48162000862565b9050919050565b7f4f776e61626c653a2063616c6c6572206973206e6f7420746865206f776e6572600082015250565b6000620008e360208362000802565b9150620008f082620008ab565b602082019050919050565b600060208201905081810360008301526200091681620008d4565b9050919050565b613397806200092d6000396000f3fe608060405234801561001057600080fd5b50600436106101375760003560e01c80636352211e116100b8578063a22cb4651161007c578063a22cb4651461033c578063b88d4fde14610358578063c87b56dd14610374578063e985e9c5146103a4578063f053dc5c146103d4578063f2fde38b146103f257610137565b80636352211e1461029657806370a08231146102c6578063715018a6146102f65780638da5cb5b1461030057806395d89b411461031e57610137565b806323b872dd116100ff57806323b872dd146101f457806340d097c31461021057806342842e0e1461024057806355f804b31461025c5780635fad46661461027857610137565b806301ffc9a71461013c578063047fc9aa1461016c57806306fdde031461018a578063081812fc146101a8578063095ea7b3146101d8575b600080fd5b61015660048036038101906101519190612098565b61040e565b60405161016391906120e0565b60405180910390f35b6101746104f0565b6040516101819190612114565b60405180910390f35b6101926104f6565b60405161019f91906121bf565b60405180910390f35b6101c260048036038101906101bd919061220d565b610588565b6040516101cf919061227b565b60405180910390f35b6101f260048036038101906101ed91906122c2565b6105ce565b005b61020e60048036038101906102099190612302565b6106e5565b005b61022a60048036038101906102259190612355565b610745565b6040516102379190612114565b60405180910390f35b61025a60048036038101906102559190612302565b6109db565b005b610276600480360381019061027191906124b7565b6109fb565b005b610280610a66565b60405161028d9190612114565b60405180910390f35b6102b060048036038101906102ab919061220d565b610ab3565b6040516102bd919061227b565b60405180910390f35b6102e060048036038101906102db9190612355565b610b39565b6040516102ed9190612114565b60405180910390f35b6102fe610bf0565b005b610308610c04565b604051610315919061227b565b60405180910390f35b610326610c2e565b60405161033391906121bf565b60405180910390f35b6103566004803603810190610351919061252c565b610cc0565b005b610372600480360381019061036d919061260d565b610cd6565b005b61038e6004803603810190610389919061220d565b610d38565b60405161039b91906121bf565b60405180910390f35b6103be60048036038101906103b99190612690565b610e4a565b6040516103cb91906120e0565b60405180910390f35b6103dc610ede565b6040516103e99190612114565b60405180910390f35b61040c60048036038101906104079190612355565b610ee4565b005b60007f80ac58cd000000000000000000000000000000000000000000000000000000007bffffffffffffffffffffffffffffffffffffffffffffffffffffffff1916827bffffffffffffffffffffffffffffffffffffffffffffffffffffffff191614806104d957507f5b5e139f000000000000000000000000000000000000000000000000000000007bffffffffffffffffffffffffffffffffffffffffffffffffffffffff1916827bffffffffffffffffffffffffffffffffffffffffffffffffffffffff1916145b806104e957506104e882610f67565b5b9050919050565b600a5481565b606060008054610505906126ff565b80601f0160208091040260200160405190810160405280929190818152602001828054610531906126ff565b801561057e5780601f106105535761010080835404028352916020019161057e565b820191906000526020600020905b81548152906001019060200180831161056157829003601f168201915b5050505050905090565b600061059382610fd1565b6004600083815260200190815260200160002060009054906101000a900473ffffffffffffffffffffffffffffffffffffffff169050919050565b60006105d982610ab3565b90508073ffffffffffffffffffffffffffffffffffffffff168373ffffffffffffffffffffffffffffffffffffffff1603610649576040517f08c379a0000000000000000000000000000000000000000000000000000000008152600401610640906127a2565b60405180910390fd5b8073ffffffffffffffffffffffffffffffffffffffff1661066861101c565b73ffffffffffffffffffffffffffffffffffffffff16148061069757506106968161069161101c565b610e4a565b5b6106d6576040517f08c379a00000000000000000000000000000000000000000000000000000000081526004016106cd90612834565b60405180910390fd5b6106e08383611024565b505050565b6106f66106f061101c565b826110dd565b610735576040517f08c379a000000000000000000000000000000000000000000000000000000000815260040161072c906128c6565b60405180910390fd5b610740838383611172565b505050565b600061075b67f600a11837d538a060c01b61146b565b61076361146e565b6107776736c6a5702d3d901360c01b61146b565b61078b67fe2ad18d2ae9ae9160c01b61146b565b61079f6783f1d8a6c0744c3560c01b61146b565b6107b36729262f7169488f1460c01b61146b565b6107c767012351eef3da57fc60c01b61146b565b600a546107d460086114ec565b10610814576040517f08c379a000000000000000000000000000000000000000000000000000000000815260040161080b90612932565b60405180910390fd5b61082867d2d45e81584ea09c60c01b61146b565b61083c67cb4e26ab224c63aa60c01b61146b565b6108506756d0e8f95e621f6560c01b61146b565b61085a60086114fa565b61086e6718d141ddc452abdd60c01b61146b565b610882676d4a66242b752b1960c01b61146b565b600061088e60086114ec565b90506108a46799dbfa9c54dd537f60c01b61146b565b6108b867b15ceed7abd36f2b60c01b61146b565b6108c28382611510565b6108d667c771251df7b8813560c01b61146b565b6108ea67eba3d510c590ca5460c01b61146b565b60006108f58261152e565b60405160200161090591906129da565b604051602081830303815290604052905061092a67653ca49e54020c7d60c01b61146b565b61093e67395c5349fdd268a960c01b61146b565b61094882826115fc565b61095c67a266a18ba0e970fd60c01b61146b565b610970677e4c38d86a566f0460c01b61146b565b7f40c10f19c047ae7dfa66d6312b683d2ea3dfbcb4159e96b967c5f4b0a86f284284836040516109a19291906129fc565b60405180910390a16109bd67b18cc91bb3016c4b60c01b61146b565b6109d1670ec45d73d8b080b860c01b61146b565b8192505050919050565b6109f683838360405180602001604052806000815250610cd6565b505050565b610a0f674a68ec32743ba9ab60c01b61146b565b610a1761146e565b610a2b674fcc48d2bf432db460c01b61146b565b610a3f6718b2f1f5620e127760c01b61146b565b610a53674a003dbd312492a660c01b61146b565b80600b9081610a629190612bd1565b5050565b6000610a7c67fcc6ffad662becee60c01b61146b565b610a9067b3896478ebf97cfe60c01b61146b565b610aa467e9f05e52a5824eb360c01b61146b565b610aae60086114ec565b905090565b600080610abf83611669565b9050600073ffffffffffffffffffffffffffffffffffffffff168173ffffffffffffffffffffffffffffffffffffffff1603610b30576040517f08c379a0000000000000000000000000000000000000000000000000000000008152600401610b2790612cef565b60405180910390fd5b80915050919050565b60008073ffffffffffffffffffffffffffffffffffffffff168273ffffffffffffffffffffffffffffffffffffffff1603610ba9576040517f08c379a0000000000000000000000000000000000000000000000000000000008152600401610ba090612d81565b60405180910390fd5b600360008373ffffffffffffffffffffffffffffffffffffffff1673ffffffffffffffffffffffffffffffffffffffff168152602001908152602001600020549050919050565b610bf861146e565b610c0260006116a6565b565b6000600760009054906101000a900473ffffffffffffffffffffffffffffffffffffffff16905090565b606060018054610c3d906126ff565b80601f0160208091040260200160405190810160405280929190818152602001828054610c69906126ff565b8015610cb65780601f10610c8b57610100808354040283529160200191610cb6565b820191906000526020600020905b815481529060010190602001808311610c9957829003601f168201915b5050505050905090565b610cd2610ccb61101c565b838361176c565b5050565b610ce7610ce161101c565b836110dd565b610d26576040517f08c379a0000000000000000000000000000000000000000000000000000000008152600401610d1d906128c6565b60405180910390fd5b610d32848484846118d8565b50505050565b6060610d4382610fd1565b6000600660008481526020019081526020016000208054610d63906126ff565b80601f0160208091040260200160405190810160405280929190818152602001828054610d8f906126ff565b8015610ddc5780601f10610db157610100808354040283529160200191610ddc565b820191906000526020600020905b815481529060010190602001808311610dbf57829003601f168201915b505050505090506000610ded611934565b90506000815103610e02578192505050610e45565b600082511115610e37578082604051602001610e1f929190612da1565b60405160208183030381529060405292505050610e45565b610e4084611a02565b925050505b919050565b6000600560008473ffffffffffffffffffffffffffffffffffffffff1673ffffffffffffffffffffffffffffffffffffffff16815260200190815260200160002060008373ffffffffffffffffffffffffffffffffffffffff1673ffffffffffffffffffffffffffffffffffffffff16815260200190815260200160002060009054906101000a900460ff16905092915050565b60095481565b610eec61146e565b600073ffffffffffffffffffffffffffffffffffffffff168173ffffffffffffffffffffffffffffffffffffffff1603610f5b576040517f08c379a0000000000000000000000000000000000000000000000000000000008152600401610f5290612e37565b60405180910390fd5b610f64816116a6565b50565b60007f01ffc9a7000000000000000000000000000000000000000000000000000000007bffffffffffffffffffffffffffffffffffffffffffffffffffffffff1916827bffffffffffffffffffffffffffffffffffffffffffffffffffffffff1916149050919050565b610fda81611a6a565b611019576040517f08c379a000000000000000000000000000000000000000000000000000000000815260040161101090612cef565b60405180910390fd5b50565b600033905090565b816004600083815260200190815260200160002060006101000a81548173ffffffffffffffffffffffffffffffffffffffff021916908373ffffffffffffffffffffffffffffffffffffffff160217905550808273ffffffffffffffffffffffffffffffffffffffff1661109783610ab3565b73ffffffffffffffffffffffffffffffffffffffff167f8c5be1e5ebec7d5bd14f71427d1e84f3dd0314c0f7b2291e5b200ac8c7c3b92560405160405180910390a45050565b6000806110e983610ab3565b90508073ffffffffffffffffffffffffffffffffffffffff168473ffffffffffffffffffffffffffffffffffffffff16148061112b575061112a8185610e4a565b5b8061116957508373ffffffffffffffffffffffffffffffffffffffff1661115184610588565b73ffffffffffffffffffffffffffffffffffffffff16145b91505092915050565b8273ffffffffffffffffffffffffffffffffffffffff1661119282610ab3565b73ffffffffffffffffffffffffffffffffffffffff16146111e8576040517f08c379a00000000000000000000000000000000000000000000000000000000081526004016111df90612ec9565b60405180910390fd5b600073ffffffffffffffffffffffffffffffffffffffff168273ffffffffffffffffffffffffffffffffffffffff1603611257576040517f08c379a000000000000000000000000000000000000000000000000000000000815260040161124e90612f5b565b60405180910390fd5b6112648383836001611aab565b8273ffffffffffffffffffffffffffffffffffffffff1661128482610ab3565b73ffffffffffffffffffffffffffffffffffffffff16146112da576040517f08c379a00000000000000000000000000000000000000000000000000000000081526004016112d190612ec9565b60405180910390fd5b6004600082815260200190815260200160002060006101000a81549073ffffffffffffffffffffffffffffffffffffffff02191690556001600360008573ffffffffffffffffffffffffffffffffffffffff1673ffffffffffffffffffffffffffffffffffffffff168152602001908152602001600020600082825403925050819055506001600360008473ffffffffffffffffffffffffffffffffffffffff1673ffffffffffffffffffffffffffffffffffffffff16815260200190815260200160002060008282540192505081905550816002600083815260200190815260200160002060006101000a81548173ffffffffffffffffffffffffffffffffffffffff021916908373ffffffffffffffffffffffffffffffffffffffff160217905550808273ffffffffffffffffffffffffffffffffffffffff168473ffffffffffffffffffffffffffffffffffffffff167fddf252ad1be2c89b69c2b068fc378daa952ba7f163c4a11628f55a4df523b3ef60405160405180910390a46114668383836001611ab1565b505050565b50565b61147661101c565b73ffffffffffffffffffffffffffffffffffffffff16611494610c04565b73ffffffffffffffffffffffffffffffffffffffff16146114ea576040517f08c379a00000000000000000000000000000000000000000000000000000000081526004016114e190612fc7565b60405180910390fd5b565b600081600001549050919050565b6001816000016000828254019250508190555050565b61152a828260405180602001604052806000815250611ab7565b5050565b60606000600161153d84611b12565b01905060008167ffffffffffffffff81111561155c5761155b61238c565b5b6040519080825280601f01601f19166020018201604052801561158e5781602001600182028036833780820191505090505b509050600082602001820190505b6001156115f1578080600190039150507f3031323334353637383961626364656600000000000000000000000000000000600a86061a8153600a85816115e5576115e4612fe7565b5b0494506000850361159c575b819350505050919050565b61160582611a6a565b611644576040517f08c379a000000000000000000000000000000000000000000000000000000000815260040161163b90613088565b60405180910390fd5b806006600084815260200190815260200160002090816116649190612bd1565b505050565b60006002600083815260200190815260200160002060009054906101000a900473ffffffffffffffffffffffffffffffffffffffff169050919050565b6000600760009054906101000a900473ffffffffffffffffffffffffffffffffffffffff16905081600760006101000a81548173ffffffffffffffffffffffffffffffffffffffff021916908373ffffffffffffffffffffffffffffffffffffffff1602179055508173ffffffffffffffffffffffffffffffffffffffff168173ffffffffffffffffffffffffffffffffffffffff167f8be0079c531659141344cd1fd0a4f28419497f9722a3daafe3b4186f6b6457e060405160405180910390a35050565b8173ffffffffffffffffffffffffffffffffffffffff168373ffffffffffffffffffffffffffffffffffffffff16036117da576040517f08c379a00000000000000000000000000000000000000000000000000000000081526004016117d1906130f4565b60405180910390fd5b80600560008573ffffffffffffffffffffffffffffffffffffffff1673ffffffffffffffffffffffffffffffffffffffff16815260200190815260200160002060008473ffffffffffffffffffffffffffffffffffffffff1673ffffffffffffffffffffffffffffffffffffffff16815260200190815260200160002060006101000a81548160ff0219169083151502179055508173ffffffffffffffffffffffffffffffffffffffff168373ffffffffffffffffffffffffffffffffffffffff167f17307eab39ab6107e8899845ad3d59bd9653f200f220920489ca2b5937696c31836040516118cb91906120e0565b60405180910390a3505050565b6118e3848484611172565b6118ef84848484611c65565b61192e576040517f08c379a000000000000000000000000000000000000000000000000000000000815260040161192590613186565b60405180910390fd5b50505050565b606061194a6704dc842fa361b04a60c01b61146b565b61195e67cdf8f576f8d857b960c01b61146b565b611972670379cc4cd5d735dc60c01b61146b565b600b805461197f906126ff565b80601f01602080910402602001604051908101604052809291908181526020018280546119ab906126ff565b80156119f85780601f106119cd576101008083540402835291602001916119f8565b820191906000526020600020905b8154815290600101906020018083116119db57829003601f168201915b5050505050905090565b6060611a0d82610fd1565b6000611a17611934565b90506000815111611a375760405180602001604052806000815250611a62565b80611a418461152e565b604051602001611a52929190612da1565b6040516020818303038152906040525b915050919050565b60008073ffffffffffffffffffffffffffffffffffffffff16611a8c83611669565b73ffffffffffffffffffffffffffffffffffffffff1614159050919050565b50505050565b50505050565b611ac18383611dec565b611ace6000848484611c65565b611b0d576040517f08c379a0000000000000000000000000000000000000000000000000000000008152600401611b0490613186565b60405180910390fd5b505050565b600080600090507a184f03e93ff9f4daa797ed6e38ed64bf6a1f0100000000000000008310611b70577a184f03e93ff9f4daa797ed6e38ed64bf6a1f0100000000000000008381611b6657611b65612fe7565b5b0492506040810190505b6d04ee2d6d415b85acef81000000008310611bad576d04ee2d6d415b85acef81000000008381611ba357611ba2612fe7565b5b0492506020810190505b662386f26fc100008310611bdc57662386f26fc100008381611bd257611bd1612fe7565b5b0492506010810190505b6305f5e1008310611c05576305f5e1008381611bfb57611bfa612fe7565b5b0492506008810190505b6127108310611c2a576127108381611c2057611c1f612fe7565b5b0492506004810190505b60648310611c4d5760648381611c4357611c42612fe7565b5b0492506002810190505b600a8310611c5c576001810190505b80915050919050565b6000611c868473ffffffffffffffffffffffffffffffffffffffff16612009565b15611ddf578373ffffffffffffffffffffffffffffffffffffffff1663150b7a02611caf61101c565b8786866040518563ffffffff1660e01b8152600401611cd194939291906131fb565b6020604051808303816000875af1925050508015611d0d57506040513d601f19601f82011682018060405250810190611d0a919061325c565b60015b611d8f573d8060008114611d3d576040519150601f19603f3d011682016040523d82523d6000602084013e611d42565b606091505b506000815103611d87576040517f08c379a0000000000000000000000000000000000000000000000000000000008152600401611d7e90613186565b60405180910390fd5b805181602001fd5b63150b7a0260e01b7bffffffffffffffffffffffffffffffffffffffffffffffffffffffff1916817bffffffffffffffffffffffffffffffffffffffffffffffffffffffff191614915050611de4565b600190505b949350505050565b600073ffffffffffffffffffffffffffffffffffffffff168273ffffffffffffffffffffffffffffffffffffffff1603611e5b576040517f08c379a0000000000000000000000000000000000000000000000000000000008152600401611e52906132d5565b60405180910390fd5b611e6481611a6a565b15611ea4576040517f08c379a0000000000000000000000000000000000000000000000000000000008152600401611e9b90613341565b60405180910390fd5b611eb2600083836001611aab565b611ebb81611a6a565b15611efb576040517f08c379a0000000000000000000000000000000000000000000000000000000008152600401611ef290613341565b60405180910390fd5b6001600360008473ffffffffffffffffffffffffffffffffffffffff1673ffffffffffffffffffffffffffffffffffffffff16815260200190815260200160002060008282540192505081905550816002600083815260200190815260200160002060006101000a81548173ffffffffffffffffffffffffffffffffffffffff021916908373ffffffffffffffffffffffffffffffffffffffff160217905550808273ffffffffffffffffffffffffffffffffffffffff16600073ffffffffffffffffffffffffffffffffffffffff167fddf252ad1be2c89b69c2b068fc378daa952ba7f163c4a11628f55a4df523b3ef60405160405180910390a4612005600083836001611ab1565b5050565b6000808273ffffffffffffffffffffffffffffffffffffffff163b119050919050565b6000604051905090565b600080fd5b600080fd5b60007fffffffff0000000000000000000000000000000000000000000000000000000082169050919050565b61207581612040565b811461208057600080fd5b50565b6000813590506120928161206c565b92915050565b6000602082840312156120ae576120ad612036565b5b60006120bc84828501612083565b91505092915050565b60008115159050919050565b6120da816120c5565b82525050565b60006020820190506120f560008301846120d1565b92915050565b6000819050919050565b61210e816120fb565b82525050565b60006020820190506121296000830184612105565b92915050565b600081519050919050565b600082825260208201905092915050565b60005b8381101561216957808201518184015260208101905061214e565b60008484015250505050565b6000601f19601f8301169050919050565b60006121918261212f565b61219b818561213a565b93506121ab81856020860161214b565b6121b481612175565b840191505092915050565b600060208201905081810360008301526121d98184612186565b905092915050565b6121ea816120fb565b81146121f557600080fd5b50565b600081359050612207816121e1565b92915050565b60006020828403121561222357612222612036565b5b6000612231848285016121f8565b91505092915050565b600073ffffffffffffffffffffffffffffffffffffffff82169050919050565b60006122658261223a565b9050919050565b6122758161225a565b82525050565b6000602082019050612290600083018461226c565b92915050565b61229f8161225a565b81146122aa57600080fd5b50565b6000813590506122bc81612296565b92915050565b600080604083850312156122d9576122d8612036565b5b60006122e7858286016122ad565b92505060206122f8858286016121f8565b9150509250929050565b60008060006060848603121561231b5761231a612036565b5b6000612329868287016122ad565b935050602061233a868287016122ad565b925050604061234b868287016121f8565b9150509250925092565b60006020828403121561236b5761236a612036565b5b6000612379848285016122ad565b91505092915050565b600080fd5b600080fd5b7f4e487b7100000000000000000000000000000000000000000000000000000000600052604160045260246000fd5b6123c482612175565b810181811067ffffffffffffffff821117156123e3576123e261238c565b5b80604052505050565b60006123f661202c565b905061240282826123bb565b919050565b600067ffffffffffffffff8211156124225761242161238c565b5b61242b82612175565b9050602081019050919050565b82818337600083830152505050565b600061245a61245584612407565b6123ec565b90508281526020810184848401111561247657612475612387565b5b612481848285612438565b509392505050565b600082601f83011261249e5761249d612382565b5b81356124ae848260208601612447565b91505092915050565b6000602082840312156124cd576124cc612036565b5b600082013567ffffffffffffffff8111156124eb576124ea61203b565b5b6124f784828501612489565b91505092915050565b612509816120c5565b811461251457600080fd5b50565b60008135905061252681612500565b92915050565b6000806040838503121561254357612542612036565b5b6000612551858286016122ad565b925050602061256285828601612517565b9150509250929050565b600067ffffffffffffffff8211156125875761258661238c565b5b61259082612175565b9050602081019050919050565b60006125b06125ab8461256c565b6123ec565b9050828152602081018484840111156125cc576125cb612387565b5b6125d7848285612438565b509392505050565b600082601f8301126125f4576125f3612382565b5b813561260484826020860161259d565b91505092915050565b6000806000806080858703121561262757612626612036565b5b6000612635878288016122ad565b9450506020612646878288016122ad565b9350506040612657878288016121f8565b925050606085013567ffffffffffffffff8111156126785761267761203b565b5b612684878288016125df565b91505092959194509250565b600080604083850312156126a7576126a6612036565b5b60006126b5858286016122ad565b92505060206126c6858286016122ad565b9150509250929050565b7f4e487b7100000000000000000000000000000000000000000000000000000000600052602260045260246000fd5b6000600282049050600182168061271757607f821691505b60208210810361272a576127296126d0565b5b50919050565b7f4552433732313a20617070726f76616c20746f2063757272656e74206f776e6560008201527f7200000000000000000000000000000000000000000000000000000000000000602082015250565b600061278c60218361213a565b915061279782612730565b604082019050919050565b600060208201905081810360008301526127bb8161277f565b9050919050565b7f4552433732313a20617070726f76652063616c6c6572206973206e6f7420746f60008201527f6b656e206f776e6572206f7220617070726f76656420666f7220616c6c000000602082015250565b600061281e603d8361213a565b9150612829826127c2565b604082019050919050565b6000602082019050818103600083015261284d81612811565b9050919050565b7f4552433732313a2063616c6c6572206973206e6f7420746f6b656e206f776e6560008201527f72206f7220617070726f76656400000000000000000000000000000000000000602082015250565b60006128b0602d8361213a565b91506128bb82612854565b604082019050919050565b600060208201905081810360008301526128df816128a3565b9050919050565b7f457665727920746f6b656e73206d696e74656420210000000000000000000000600082015250565b600061291c60158361213a565b9150612927826128e6565b602082019050919050565b6000602082019050818103600083015261294b8161290f565b9050919050565b600081905092915050565b60006129688261212f565b6129728185612952565b935061298281856020860161214b565b80840191505092915050565b7f2e6a736f6e000000000000000000000000000000000000000000000000000000600082015250565b60006129c4600583612952565b91506129cf8261298e565b600582019050919050565b60006129e6828461295d565b91506129f1826129b7565b915081905092915050565b6000604082019050612a11600083018561226c565b612a1e6020830184612105565b9392505050565b60008190508160005260206000209050919050565b60006020601f8301049050919050565b600082821b905092915050565b600060088302612a877fffffffffffffffffffffffffffffffffffffffffffffffffffffffffffffffff82612a4a565b612a918683612a4a565b95508019841693508086168417925050509392505050565b6000819050919050565b6000612ace612ac9612ac4846120fb565b612aa9565b6120fb565b9050919050565b6000819050919050565b612ae883612ab3565b612afc612af482612ad5565b848454612a57565b825550505050565b600090565b612b11612b04565b612b1c818484612adf565b505050565b5b81811015612b4057612b35600082612b09565b600181019050612b22565b5050565b601f821115612b8557612b5681612a25565b612b5f84612a3a565b81016020851015612b6e578190505b612b82612b7a85612a3a565b830182612b21565b50505b505050565b600082821c905092915050565b6000612ba860001984600802612b8a565b1980831691505092915050565b6000612bc18383612b97565b9150826002028217905092915050565b612bda8261212f565b67ffffffffffffffff811115612bf357612bf261238c565b5b612bfd82546126ff565b612c08828285612b44565b600060209050601f831160018114612c3b5760008415612c29578287015190505b612c338582612bb5565b865550612c9b565b601f198416612c4986612a25565b60005b82811015612c7157848901518255600182019150602085019450602081019050612c4c565b86831015612c8e5784890151612c8a601f891682612b97565b8355505b6001600288020188555050505b505050505050565b7f4552433732313a20696e76616c696420746f6b656e2049440000000000000000600082015250565b6000612cd960188361213a565b9150612ce482612ca3565b602082019050919050565b60006020820190508181036000830152612d0881612ccc565b9050919050565b7f4552433732313a2061646472657373207a65726f206973206e6f74206120766160008201527f6c6964206f776e65720000000000000000000000000000000000000000000000602082015250565b6000612d6b60298361213a565b9150612d7682612d0f565b604082019050919050565b60006020820190508181036000830152612d9a81612d5e565b9050919050565b6000612dad828561295d565b9150612db9828461295d565b91508190509392505050565b7f4f776e61626c653a206e6577206f776e657220697320746865207a65726f206160008201527f6464726573730000000000000000000000000000000000000000000000000000602082015250565b6000612e2160268361213a565b9150612e2c82612dc5565b604082019050919050565b60006020820190508181036000830152612e5081612e14565b9050919050565b7f4552433732313a207472616e736665722066726f6d20696e636f72726563742060008201527f6f776e6572000000000000000000000000000000000000000000000000000000602082015250565b6000612eb360258361213a565b9150612ebe82612e57565b604082019050919050565b60006020820190508181036000830152612ee281612ea6565b9050919050565b7f4552433732313a207472616e7366657220746f20746865207a65726f2061646460008201527f7265737300000000000000000000000000000000000000000000000000000000602082015250565b6000612f4560248361213a565b9150612f5082612ee9565b604082019050919050565b60006020820190508181036000830152612f7481612f38565b9050919050565b7f4f776e61626c653a2063616c6c6572206973206e6f7420746865206f776e6572600082015250565b6000612fb160208361213a565b9150612fbc82612f7b565b602082019050919050565b60006020820190508181036000830152612fe081612fa4565b9050919050565b7f4e487b7100000000000000000000000000000000000000000000000000000000600052601260045260246000fd5b7f45524337323155524953746f726167653a2055524920736574206f66206e6f6e60008201527f6578697374656e7420746f6b656e000000000000000000000000000000000000602082015250565b6000613072602e8361213a565b915061307d82613016565b604082019050919050565b600060208201905081810360008301526130a181613065565b9050919050565b7f4552433732313a20617070726f766520746f2063616c6c657200000000000000600082015250565b60006130de60198361213a565b91506130e9826130a8565b602082019050919050565b6000602082019050818103600083015261310d816130d1565b9050919050565b7f4552433732313a207472616e7366657220746f206e6f6e20455243373231526560008201527f63656976657220696d706c656d656e7465720000000000000000000000000000602082015250565b600061317060328361213a565b915061317b82613114565b604082019050919050565b6000602082019050818103600083015261319f81613163565b9050919050565b600081519050919050565b600082825260208201905092915050565b60006131cd826131a6565b6131d781856131b1565b93506131e781856020860161214b565b6131f081612175565b840191505092915050565b6000608082019050613210600083018761226c565b61321d602083018661226c565b61322a6040830185612105565b818103606083015261323c81846131c2565b905095945050505050565b6000815190506132568161206c565b92915050565b60006020828403121561327257613271612036565b5b600061328084828501613247565b91505092915050565b7f4552433732313a206d696e7420746f20746865207a65726f2061646472657373600082015250565b60006132bf60208361213a565b91506132ca82613289565b602082019050919050565b600060208201905081810360008301526132ee816132b2565b9050919050565b7f4552433732313a20746f6b656e20616c7265616479206d696e74656400000000600082015250565b600061332b601c8361213a565b9150613336826132f5565b602082019050919050565b6000602082019050818103600083015261335a8161331e565b905091905056fea2646970667358221220bb299f841d5833eb36013a9ea9c8bdc64177fd3ca983dd2fe0d4dbff743b475e64736f6c63430008120033",
  "linkReferences": {},
  "deployedLinkReferences": {}
}