{
  "_format": "hh-sol-artifact-1",
  "contractName": "TheSourceMemberToken",
  "sourceName": "contracts/TheSourceMemberToken.sol",
  "abi": [
    {
      "inputs": [
        {
          "internalType": "address",
          "name": "_marketPlaceAddr",
          "type": "address"
        },
        {
          "internalType": "uint256",
          "name": "_royalties",
          "type": "uint256"
        },
        {
          "internalType": "string",
          "name": "baseURI_",
          "type": "string"
        }
      ],
      "stateMutability": "nonpayable",
      "type": "constructor"
    },
    {
      "anonymous": false,
      "inputs": [
        {
          "indexed": true,
          "internalType": "address",
          "name": "owner",
          "type": "address"
        },
        {
          "indexed": true,
          "internalType": "address",
          "name": "approved",
          "type": "address"
        },
        {
          "indexed": true,
          "internalType": "uint256",
          "name": "tokenId",
          "type": "uint256"
        }
      ],
      "name": "Approval",
      "type": "event"
    },
    {
      "anonymous": false,
      "inputs": [
        {
          "indexed": true,
          "internalType": "address",
          "name": "owner",
          "type": "address"
        },
        {
          "indexed": true,
          "internalType": "address",
          "name": "operator",
          "type": "address"
        },
        {
          "indexed": false,
          "internalType": "bool",
          "name": "approved",
          "type": "bool"
        }
      ],
      "name": "ApprovalForAll",
      "type": "event"
    },
    {
      "anonymous": false,
      "inputs": [
        {
          "indexed": true,
          "internalType": "address",
          "name": "previousOwner",
          "type": "address"
        },
        {
          "indexed": true,
          "internalType": "address",
          "name": "newOwner",
          "type": "address"
        }
      ],
      "name": "OwnershipTransferred",
      "type": "event"
    },
    {
      "anonymous": false,
      "inputs": [
        {
          "indexed": true,
          "internalType": "address",
          "name": "from",
          "type": "address"
        },
        {
          "indexed": true,
          "internalType": "address",
          "name": "to",
          "type": "address"
        },
        {
          "indexed": true,
          "internalType": "uint256",
          "name": "tokenId",
          "type": "uint256"
        }
      ],
      "name": "Transfer",
      "type": "event"
    },
    {
      "anonymous": false,
      "inputs": [
        {
          "indexed": false,
          "internalType": "address",
          "name": "_to",
          "type": "address"
        },
        {
          "indexed": false,
          "internalType": "uint256",
          "name": "tokenId",
          "type": "uint256"
        }
      ],
      "name": "mint",
      "type": "event"
    },
    {
      "inputs": [
        {
          "internalType": "address",
          "name": "to",
          "type": "address"
        },
        {
          "internalType": "uint256",
          "name": "tokenId",
          "type": "uint256"
        }
      ],
      "name": "approve",
      "outputs": [],
      "stateMutability": "nonpayable",
      "type": "function"
    },
    {
      "inputs": [
        {
          "internalType": "address",
          "name": "owner",
          "type": "address"
        }
      ],
      "name": "balanceOf",
      "outputs": [
        {
          "internalType": "uint256",
          "name": "",
          "type": "uint256"
        }
      ],
      "stateMutability": "view",
      "type": "function"
    },
    {
      "inputs": [
        {
          "internalType": "uint256",
          "name": "tokenId",
          "type": "uint256"
        }
      ],
      "name": "getApproved",
      "outputs": [
        {
          "internalType": "address",
          "name": "",
          "type": "address"
        }
      ],
      "stateMutability": "view",
      "type": "function"
    },
    {
      "inputs": [],
      "name": "getNumberOfMemberToken",
      "outputs": [
        {
          "internalType": "uint256",
          "name": "",
          "type": "uint256"
        }
      ],
      "stateMutability": "view",
      "type": "function"
    },
    {
      "inputs": [
        {
          "internalType": "address",
          "name": "owner",
          "type": "address"
        },
        {
          "internalType": "address",
          "name": "operator",
          "type": "address"
        }
      ],
      "name": "isApprovedForAll",
      "outputs": [
        {
          "internalType": "bool",
          "name": "",
          "type": "bool"
        }
      ],
      "stateMutability": "view",
      "type": "function"
    },
    {
      "inputs": [],
      "name": "name",
      "outputs": [
        {
          "internalType": "string",
          "name": "",
          "type": "string"
        }
      ],
      "stateMutability": "view",
      "type": "function"
    },
    {
      "inputs": [],
      "name": "owner",
      "outputs": [
        {
          "internalType": "address",
          "name": "",
          "type": "address"
        }
      ],
      "stateMutability": "view",
      "type": "function"
    },
    {
      "inputs": [
        {
          "internalType": "uint256",
          "name": "tokenId",
          "type": "uint256"
        }
      ],
      "name": "ownerOf",
      "outputs": [
        {
          "internalType": "address",
          "name": "",
          "type": "address"
        }
      ],
      "stateMutability": "view",
      "type": "function"
    },
    {
      "inputs": [],
      "name": "renounceOwnership",
      "outputs": [],
      "stateMutability": "nonpayable",
      "type": "function"
    },
    {
      "inputs": [],
      "name": "royalties",
      "outputs": [
        {
          "internalType": "uint256",
          "name": "",
          "type": "uint256"
        }
      ],
      "stateMutability": "view",
      "type": "function"
    },
    {
      "inputs": [
        {
          "internalType": "address",
          "name": "_to",
          "type": "address"
        }
      ],
      "name": "safeMint",
      "outputs": [
        {
          "internalType": "uint256",
          "name": "",
          "type": "uint256"
        }
      ],
      "stateMutability": "nonpayable",
      "type": "function"
    },
    {
      "inputs": [
        {
          "internalType": "address",
          "name": "from",
          "type": "address"
        },
        {
          "internalType": "address",
          "name": "to",
          "type": "address"
        },
        {
          "internalType": "uint256",
          "name": "tokenId",
          "type": "uint256"
        }
      ],
      "name": "safeTransferFrom",
      "outputs": [],
      "stateMutability": "nonpayable",
      "type": "function"
    },
    {
      "inputs": [
        {
          "internalType": "address",
          "name": "from",
          "type": "address"
        },
        {
          "internalType": "address",
          "name": "to",
          "type": "address"
        },
        {
          "internalType": "uint256",
          "name": "tokenId",
          "type": "uint256"
        },
        {
          "internalType": "bytes",
          "name": "data",
          "type": "bytes"
        }
      ],
      "name": "safeTransferFrom",
      "outputs": [],
      "stateMutability": "nonpayable",
      "type": "function"
    },
    {
      "inputs": [
        {
          "internalType": "address",
          "name": "operator",
          "type": "address"
        },
        {
          "internalType": "bool",
          "name": "approved",
          "type": "bool"
        }
      ],
      "name": "setApprovalForAll",
      "outputs": [],
      "stateMutability": "nonpayable",
      "type": "function"
    },
    {
      "inputs": [
        {
          "internalType": "bytes4",
          "name": "interfaceId",
          "type": "bytes4"
        }
      ],
      "name": "supportsInterface",
      "outputs": [
        {
          "internalType": "bool",
          "name": "",
          "type": "bool"
        }
      ],
      "stateMutability": "view",
      "type": "function"
    },
    {
      "inputs": [],
      "name": "symbol",
      "outputs": [
        {
          "internalType": "string",
          "name": "",
          "type": "string"
        }
      ],
      "stateMutability": "view",
      "type": "function"
    },
    {
      "inputs": [
        {
          "internalType": "uint256",
          "name": "tokenId",
          "type": "uint256"
        }
      ],
      "name": "tokenURI",
      "outputs": [
        {
          "internalType": "string",
          "name": "",
          "type": "string"
        }
      ],
      "stateMutability": "view",
      "type": "function"
    },
    {
      "inputs": [
        {
          "internalType": "address",
          "name": "from",
          "type": "address"
        },
        {
          "internalType": "address",
          "name": "to",
          "type": "address"
        },
        {
          "internalType": "uint256",
          "name": "tokenId",
          "type": "uint256"
        }
      ],
      "name": "transferFrom",
      "outputs": [],
      "stateMutability": "nonpayable",
      "type": "function"
    },
    {
      "inputs": [
        {
          "internalType": "address",
          "name": "newOwner",
          "type": "address"
        }
      ],
      "name": "transferOwnership",
      "outputs": [],
      "stateMutability": "nonpayable",
      "type": "function"
    }
  ],
  "bytecode": "0x60806040523480156200001157600080fd5b5060405162003bae38038062003bae8339818101604052810190620000379190620005fd565b6040518060400160405280601481526020017f546865536f757263654d656d627265546f6b656e0000000000000000000000008152506040518060400160405280600481526020017f54534d54000000000000000000000000000000000000000000000000000000008152508160009081620000b49190620008b9565b508060019081620000c69190620008b9565b505050620000e9620000dd620001a860201b60201c565b620001b060201b60201c565b6200010567653ca49e54020c7d60c01b6200027660201b60201c565b6200012167395c5349fdd268a960c01b6200027660201b60201c565b6200013d67a266a18ba0e970fd60c01b6200027660201b60201c565b6200014e836200027960201b60201c565b6200016a677e4c38d86a566f0460c01b6200027660201b60201c565b816009819055506200018d67b18cc91bb3016c4b60c01b6200027660201b60201c565b80600a90816200019e9190620008b9565b5050505062000abb565b600033905090565b6000600760009054906101000a900473ffffffffffffffffffffffffffffffffffffffff16905081600760006101000a81548173ffffffffffffffffffffffffffffffffffffffff021916908373ffffffffffffffffffffffffffffffffffffffff1602179055508173ffffffffffffffffffffffffffffffffffffffff168173ffffffffffffffffffffffffffffffffffffffff167f8be0079c531659141344cd1fd0a4f28419497f9722a3daafe3b4186f6b6457e060405160405180910390a35050565b50565b620002896200030f60201b60201c565b600073ffffffffffffffffffffffffffffffffffffffff168173ffffffffffffffffffffffffffffffffffffffff1603620002fb576040517f08c379a0000000000000000000000000000000000000000000000000000000008152600401620002f29062000a27565b60405180910390fd5b6200030c81620001b060201b60201c565b50565b6200031f620001a860201b60201c565b73ffffffffffffffffffffffffffffffffffffffff1662000345620003a060201b60201c565b73ffffffffffffffffffffffffffffffffffffffff16146200039e576040517f08c379a0000000000000000000000000000000000000000000000000000000008152600401620003959062000a99565b60405180910390fd5b565b6000600760009054906101000a900473ffffffffffffffffffffffffffffffffffffffff16905090565b6000604051905090565b600080fd5b600080fd5b600073ffffffffffffffffffffffffffffffffffffffff82169050919050565b60006200040b82620003de565b9050919050565b6200041d81620003fe565b81146200042957600080fd5b50565b6000815190506200043d8162000412565b92915050565b6000819050919050565b620004588162000443565b81146200046457600080fd5b50565b60008151905062000478816200044d565b92915050565b600080fd5b600080fd5b6000601f19601f8301169050919050565b7f4e487b7100000000000000000000000000000000000000000000000000000000600052604160045260246000fd5b620004d38262000488565b810181811067ffffffffffffffff82111715620004f557620004f462000499565b5b80604052505050565b60006200050a620003ca565b9050620005188282620004c8565b919050565b600067ffffffffffffffff8211156200053b576200053a62000499565b5b620005468262000488565b9050602081019050919050565b60005b838110156200057357808201518184015260208101905062000556565b60008484015250505050565b60006200059662000590846200051d565b620004fe565b905082815260208101848484011115620005b557620005b462000483565b5b620005c284828562000553565b509392505050565b600082601f830112620005e257620005e16200047e565b5b8151620005f48482602086016200057f565b91505092915050565b600080600060608486031215620006195762000618620003d4565b5b600062000629868287016200042c565b93505060206200063c8682870162000467565b925050604084015167ffffffffffffffff81111562000660576200065f620003d9565b5b6200066e86828701620005ca565b9150509250925092565b600081519050919050565b7f4e487b7100000000000000000000000000000000000000000000000000000000600052602260045260246000fd5b60006002820490506001821680620006cb57607f821691505b602082108103620006e157620006e062000683565b5b50919050565b60008190508160005260206000209050919050565b60006020601f8301049050919050565b600082821b905092915050565b6000600883026200074b7fffffffffffffffffffffffffffffffffffffffffffffffffffffffffffffffff826200070c565b6200075786836200070c565b95508019841693508086168417925050509392505050565b6000819050919050565b60006200079a620007946200078e8462000443565b6200076f565b62000443565b9050919050565b6000819050919050565b620007b68362000779565b620007ce620007c582620007a1565b84845462000719565b825550505050565b600090565b620007e5620007d6565b620007f2818484620007ab565b505050565b5b818110156200081a576200080e600082620007db565b600181019050620007f8565b5050565b601f82111562000869576200083381620006e7565b6200083e84620006fc565b810160208510156200084e578190505b620008666200085d85620006fc565b830182620007f7565b50505b505050565b600082821c905092915050565b60006200088e600019846008026200086e565b1980831691505092915050565b6000620008a983836200087b565b9150826002028217905092915050565b620008c48262000678565b67ffffffffffffffff811115620008e057620008df62000499565b5b620008ec8254620006b2565b620008f98282856200081e565b600060209050601f8311600181146200093157600084156200091c578287015190505b6200092885826200089b565b86555062000998565b601f1984166200094186620006e7565b60005b828110156200096b5784890151825560018201915060208501945060208101905062000944565b868310156200098b578489015162000987601f8916826200087b565b8355505b6001600288020188555050505b505050505050565b600082825260208201905092915050565b7f4f776e61626c653a206e6577206f776e657220697320746865207a65726f206160008201527f6464726573730000000000000000000000000000000000000000000000000000602082015250565b600062000a0f602683620009a0565b915062000a1c82620009b1565b604082019050919050565b6000602082019050818103600083015262000a428162000a00565b9050919050565b7f4f776e61626c653a2063616c6c6572206973206e6f7420746865206f776e6572600082015250565b600062000a81602083620009a0565b915062000a8e8262000a49565b602082019050919050565b6000602082019050818103600083015262000ab48162000a72565b9050919050565b6130e38062000acb6000396000f3fe608060405234801561001057600080fd5b50600436106101215760003560e01c806370a08231116100ad578063b88d4fde11610071578063b88d4fde14610308578063c87b56dd14610324578063e985e9c514610354578063f053dc5c14610384578063f2fde38b146103a257610121565b806370a0823114610276578063715018a6146102a65780638da5cb5b146102b057806395d89b41146102ce578063a22cb465146102ec57610121565b806323b872dd116100f457806323b872dd146101c057806340d097c3146101dc57806342842e0e1461020c5780635fad4666146102285780636352211e1461024657610121565b806301ffc9a71461012657806306fdde0314610156578063081812fc14610174578063095ea7b3146101a4575b600080fd5b610140600480360381019061013b9190611f3a565b6103be565b60405161014d9190611f82565b60405180910390f35b61015e6104a0565b60405161016b919061202d565b60405180910390f35b61018e60048036038101906101899190612085565b610532565b60405161019b91906120f3565b60405180910390f35b6101be60048036038101906101b9919061213a565b610578565b005b6101da60048036038101906101d5919061217a565b61068f565b005b6101f660048036038101906101f191906121cd565b6106ef565b6040516102039190612209565b60405180910390f35b6102266004803603810190610221919061217a565b6108e8565b005b610230610908565b60405161023d9190612209565b60405180910390f35b610260600480360381019061025b9190612085565b610955565b60405161026d91906120f3565b60405180910390f35b610290600480360381019061028b91906121cd565b6109db565b60405161029d9190612209565b60405180910390f35b6102ae610a92565b005b6102b8610aa6565b6040516102c591906120f3565b60405180910390f35b6102d6610ad0565b6040516102e3919061202d565b60405180910390f35b61030660048036038101906103019190612250565b610b62565b005b610322600480360381019061031d91906123c5565b610b78565b005b61033e60048036038101906103399190612085565b610bda565b60405161034b919061202d565b60405180910390f35b61036e60048036038101906103699190612448565b610cec565b60405161037b9190611f82565b60405180910390f35b61038c610d80565b6040516103999190612209565b60405180910390f35b6103bc60048036038101906103b791906121cd565b610d86565b005b60007f80ac58cd000000000000000000000000000000000000000000000000000000007bffffffffffffffffffffffffffffffffffffffffffffffffffffffff1916827bffffffffffffffffffffffffffffffffffffffffffffffffffffffff1916148061048957507f5b5e139f000000000000000000000000000000000000000000000000000000007bffffffffffffffffffffffffffffffffffffffffffffffffffffffff1916827bffffffffffffffffffffffffffffffffffffffffffffffffffffffff1916145b80610499575061049882610e09565b5b9050919050565b6060600080546104af906124b7565b80601f01602080910402602001604051908101604052809291908181526020018280546104db906124b7565b80156105285780601f106104fd57610100808354040283529160200191610528565b820191906000526020600020905b81548152906001019060200180831161050b57829003601f168201915b5050505050905090565b600061053d82610e73565b6004600083815260200190815260200160002060009054906101000a900473ffffffffffffffffffffffffffffffffffffffff169050919050565b600061058382610955565b90508073ffffffffffffffffffffffffffffffffffffffff168373ffffffffffffffffffffffffffffffffffffffff16036105f3576040517f08c379a00000000000000000000000000000000000000000000000000000000081526004016105ea9061255a565b60405180910390fd5b8073ffffffffffffffffffffffffffffffffffffffff16610612610ebe565b73ffffffffffffffffffffffffffffffffffffffff16148061064157506106408161063b610ebe565b610cec565b5b610680576040517f08c379a0000000000000000000000000000000000000000000000000000000008152600401610677906125ec565b60405180910390fd5b61068a8383610ec6565b505050565b6106a061069a610ebe565b82610f7f565b6106df576040517f08c379a00000000000000000000000000000000000000000000000000000000081526004016106d69061267e565b60405180910390fd5b6106ea838383611014565b505050565b60006107056741b8f7c9107660dc60c01b61130d565b61070d611310565b61072167e0b51655da24b15e60c01b61130d565b610735677427669f7926f50860c01b61130d565b61074967dbeb09e32141056060c01b61130d565b61075d679696b923e9b1d54160c01b61130d565b610767600861138e565b61077b678f4b55e0b11cfe0060c01b61130d565b61078f6731d413fc0cccbd6460c01b61130d565b600061079b60086113a4565b90506107b167064f7c60b7a800e360c01b61130d565b6107c567d7697c74a6b9b98660c01b61130d565b6107cf83826113b2565b6107e36778e707128e3d44c260c01b61130d565b6107f767f7f944da633990ab60c01b61130d565b6000610802826113d0565b6040516020016108129190612726565b604051602081830303815290604052905061083767c7fc1e0ac98f412960c01b61130d565b61084b6750f0758068b96ade60c01b61130d565b610855828261149e565b610869675f7e7172c86585b660c01b61130d565b61087d67f0567cf8c31dfe6d60c01b61130d565b7f40c10f19c047ae7dfa66d6312b683d2ea3dfbcb4159e96b967c5f4b0a86f284284836040516108ae929190612748565b60405180910390a16108ca671615fee6f8b82abc60c01b61130d565b6108de678ad0a8cb9a9cbc0d60c01b61130d565b8192505050919050565b61090383838360405180602001604052806000815250610b78565b505050565b600061091e67c85937343cc1c1ef60c01b61130d565b61093267b4878ccc6701b09860c01b61130d565b610946678bd888d537ff289960c01b61130d565b61095060086113a4565b905090565b6000806109618361150b565b9050600073ffffffffffffffffffffffffffffffffffffffff168173ffffffffffffffffffffffffffffffffffffffff16036109d2576040517f08c379a00000000000000000000000000000000000000000000000000000000081526004016109c9906127bd565b60405180910390fd5b80915050919050565b60008073ffffffffffffffffffffffffffffffffffffffff168273ffffffffffffffffffffffffffffffffffffffff1603610a4b576040517f08c379a0000000000000000000000000000000000000000000000000000000008152600401610a429061284f565b60405180910390fd5b600360008373ffffffffffffffffffffffffffffffffffffffff1673ffffffffffffffffffffffffffffffffffffffff168152602001908152602001600020549050919050565b610a9a611310565b610aa46000611548565b565b6000600760009054906101000a900473ffffffffffffffffffffffffffffffffffffffff16905090565b606060018054610adf906124b7565b80601f0160208091040260200160405190810160405280929190818152602001828054610b0b906124b7565b8015610b585780601f10610b2d57610100808354040283529160200191610b58565b820191906000526020600020905b815481529060010190602001808311610b3b57829003601f168201915b5050505050905090565b610b74610b6d610ebe565b838361160e565b5050565b610b89610b83610ebe565b83610f7f565b610bc8576040517f08c379a0000000000000000000000000000000000000000000000000000000008152600401610bbf9061267e565b60405180910390fd5b610bd48484848461177a565b50505050565b6060610be582610e73565b6000600660008481526020019081526020016000208054610c05906124b7565b80601f0160208091040260200160405190810160405280929190818152602001828054610c31906124b7565b8015610c7e5780601f10610c5357610100808354040283529160200191610c7e565b820191906000526020600020905b815481529060010190602001808311610c6157829003601f168201915b505050505090506000610c8f6117d6565b90506000815103610ca4578192505050610ce7565b600082511115610cd9578082604051602001610cc192919061286f565b60405160208183030381529060405292505050610ce7565b610ce2846118a4565b925050505b919050565b6000600560008473ffffffffffffffffffffffffffffffffffffffff1673ffffffffffffffffffffffffffffffffffffffff16815260200190815260200160002060008373ffffffffffffffffffffffffffffffffffffffff1673ffffffffffffffffffffffffffffffffffffffff16815260200190815260200160002060009054906101000a900460ff16905092915050565b60095481565b610d8e611310565b600073ffffffffffffffffffffffffffffffffffffffff168173ffffffffffffffffffffffffffffffffffffffff1603610dfd576040517f08c379a0000000000000000000000000000000000000000000000000000000008152600401610df490612905565b60405180910390fd5b610e0681611548565b50565b60007f01ffc9a7000000000000000000000000000000000000000000000000000000007bffffffffffffffffffffffffffffffffffffffffffffffffffffffff1916827bffffffffffffffffffffffffffffffffffffffffffffffffffffffff1916149050919050565b610e7c8161190c565b610ebb576040517f08c379a0000000000000000000000000000000000000000000000000000000008152600401610eb2906127bd565b60405180910390fd5b50565b600033905090565b816004600083815260200190815260200160002060006101000a81548173ffffffffffffffffffffffffffffffffffffffff021916908373ffffffffffffffffffffffffffffffffffffffff160217905550808273ffffffffffffffffffffffffffffffffffffffff16610f3983610955565b73ffffffffffffffffffffffffffffffffffffffff167f8c5be1e5ebec7d5bd14f71427d1e84f3dd0314c0f7b2291e5b200ac8c7c3b92560405160405180910390a45050565b600080610f8b83610955565b90508073ffffffffffffffffffffffffffffffffffffffff168473ffffffffffffffffffffffffffffffffffffffff161480610fcd5750610fcc8185610cec565b5b8061100b57508373ffffffffffffffffffffffffffffffffffffffff16610ff384610532565b73ffffffffffffffffffffffffffffffffffffffff16145b91505092915050565b8273ffffffffffffffffffffffffffffffffffffffff1661103482610955565b73ffffffffffffffffffffffffffffffffffffffff161461108a576040517f08c379a000000000000000000000000000000000000000000000000000000000815260040161108190612997565b60405180910390fd5b600073ffffffffffffffffffffffffffffffffffffffff168273ffffffffffffffffffffffffffffffffffffffff16036110f9576040517f08c379a00000000000000000000000000000000000000000000000000000000081526004016110f090612a29565b60405180910390fd5b611106838383600161194d565b8273ffffffffffffffffffffffffffffffffffffffff1661112682610955565b73ffffffffffffffffffffffffffffffffffffffff161461117c576040517f08c379a000000000000000000000000000000000000000000000000000000000815260040161117390612997565b60405180910390fd5b6004600082815260200190815260200160002060006101000a81549073ffffffffffffffffffffffffffffffffffffffff02191690556001600360008573ffffffffffffffffffffffffffffffffffffffff1673ffffffffffffffffffffffffffffffffffffffff168152602001908152602001600020600082825403925050819055506001600360008473ffffffffffffffffffffffffffffffffffffffff1673ffffffffffffffffffffffffffffffffffffffff16815260200190815260200160002060008282540192505081905550816002600083815260200190815260200160002060006101000a81548173ffffffffffffffffffffffffffffffffffffffff021916908373ffffffffffffffffffffffffffffffffffffffff160217905550808273ffffffffffffffffffffffffffffffffffffffff168473ffffffffffffffffffffffffffffffffffffffff167fddf252ad1be2c89b69c2b068fc378daa952ba7f163c4a11628f55a4df523b3ef60405160405180910390a46113088383836001611953565b505050565b50565b611318610ebe565b73ffffffffffffffffffffffffffffffffffffffff16611336610aa6565b73ffffffffffffffffffffffffffffffffffffffff161461138c576040517f08c379a000000000000000000000000000000000000000000000000000000000815260040161138390612a95565b60405180910390fd5b565b6001816000016000828254019250508190555050565b600081600001549050919050565b6113cc828260405180602001604052806000815250611959565b5050565b6060600060016113df846119b4565b01905060008167ffffffffffffffff8111156113fe576113fd61229a565b5b6040519080825280601f01601f1916602001820160405280156114305781602001600182028036833780820191505090505b509050600082602001820190505b600115611493578080600190039150507f3031323334353637383961626364656600000000000000000000000000000000600a86061a8153600a858161148757611486612ab5565b5b0494506000850361143e575b819350505050919050565b6114a78261190c565b6114e6576040517f08c379a00000000000000000000000000000000000000000000000000000000081526004016114dd90612b56565b60405180910390fd5b806006600084815260200190815260200160002090816115069190612d22565b505050565b60006002600083815260200190815260200160002060009054906101000a900473ffffffffffffffffffffffffffffffffffffffff169050919050565b6000600760009054906101000a900473ffffffffffffffffffffffffffffffffffffffff16905081600760006101000a81548173ffffffffffffffffffffffffffffffffffffffff021916908373ffffffffffffffffffffffffffffffffffffffff1602179055508173ffffffffffffffffffffffffffffffffffffffff168173ffffffffffffffffffffffffffffffffffffffff167f8be0079c531659141344cd1fd0a4f28419497f9722a3daafe3b4186f6b6457e060405160405180910390a35050565b8173ffffffffffffffffffffffffffffffffffffffff168373ffffffffffffffffffffffffffffffffffffffff160361167c576040517f08c379a000000000000000000000000000000000000000000000000000000000815260040161167390612e40565b60405180910390fd5b80600560008573ffffffffffffffffffffffffffffffffffffffff1673ffffffffffffffffffffffffffffffffffffffff16815260200190815260200160002060008473ffffffffffffffffffffffffffffffffffffffff1673ffffffffffffffffffffffffffffffffffffffff16815260200190815260200160002060006101000a81548160ff0219169083151502179055508173ffffffffffffffffffffffffffffffffffffffff168373ffffffffffffffffffffffffffffffffffffffff167f17307eab39ab6107e8899845ad3d59bd9653f200f220920489ca2b5937696c318360405161176d9190611f82565b60405180910390a3505050565b611785848484611014565b61179184848484611b07565b6117d0576040517f08c379a00000000000000000000000000000000000000000000000000000000081526004016117c790612ed2565b60405180910390fd5b50505050565b60606117ec670ec45d73d8b080b860c01b61130d565b611800670b8f2ae79218310f60c01b61130d565b611814674be35ff86a7f21bb60c01b61130d565b600a8054611821906124b7565b80601f016020809104026020016040519081016040528092919081815260200182805461184d906124b7565b801561189a5780601f1061186f5761010080835404028352916020019161189a565b820191906000526020600020905b81548152906001019060200180831161187d57829003601f168201915b5050505050905090565b60606118af82610e73565b60006118b96117d6565b905060008151116118d95760405180602001604052806000815250611904565b806118e3846113d0565b6040516020016118f492919061286f565b6040516020818303038152906040525b915050919050565b60008073ffffffffffffffffffffffffffffffffffffffff1661192e8361150b565b73ffffffffffffffffffffffffffffffffffffffff1614159050919050565b50505050565b50505050565b6119638383611c8e565b6119706000848484611b07565b6119af576040517f08c379a00000000000000000000000000000000000000000000000000000000081526004016119a690612ed2565b60405180910390fd5b505050565b600080600090507a184f03e93ff9f4daa797ed6e38ed64bf6a1f0100000000000000008310611a12577a184f03e93ff9f4daa797ed6e38ed64bf6a1f0100000000000000008381611a0857611a07612ab5565b5b0492506040810190505b6d04ee2d6d415b85acef81000000008310611a4f576d04ee2d6d415b85acef81000000008381611a4557611a44612ab5565b5b0492506020810190505b662386f26fc100008310611a7e57662386f26fc100008381611a7457611a73612ab5565b5b0492506010810190505b6305f5e1008310611aa7576305f5e1008381611a9d57611a9c612ab5565b5b0492506008810190505b6127108310611acc576127108381611ac257611ac1612ab5565b5b0492506004810190505b60648310611aef5760648381611ae557611ae4612ab5565b5b0492506002810190505b600a8310611afe576001810190505b80915050919050565b6000611b288473ffffffffffffffffffffffffffffffffffffffff16611eab565b15611c81578373ffffffffffffffffffffffffffffffffffffffff1663150b7a02611b51610ebe565b8786866040518563ffffffff1660e01b8152600401611b739493929190612f47565b6020604051808303816000875af1925050508015611baf57506040513d601f19601f82011682018060405250810190611bac9190612fa8565b60015b611c31573d8060008114611bdf576040519150601f19603f3d011682016040523d82523d6000602084013e611be4565b606091505b506000815103611c29576040517f08c379a0000000000000000000000000000000000000000000000000000000008152600401611c2090612ed2565b60405180910390fd5b805181602001fd5b63150b7a0260e01b7bffffffffffffffffffffffffffffffffffffffffffffffffffffffff1916817bffffffffffffffffffffffffffffffffffffffffffffffffffffffff191614915050611c86565b600190505b949350505050565b600073ffffffffffffffffffffffffffffffffffffffff168273ffffffffffffffffffffffffffffffffffffffff1603611cfd576040517f08c379a0000000000000000000000000000000000000000000000000000000008152600401611cf490613021565b60405180910390fd5b611d068161190c565b15611d46576040517f08c379a0000000000000000000000000000000000000000000000000000000008152600401611d3d9061308d565b60405180910390fd5b611d5460008383600161194d565b611d5d8161190c565b15611d9d576040517f08c379a0000000000000000000000000000000000000000000000000000000008152600401611d949061308d565b60405180910390fd5b6001600360008473ffffffffffffffffffffffffffffffffffffffff1673ffffffffffffffffffffffffffffffffffffffff16815260200190815260200160002060008282540192505081905550816002600083815260200190815260200160002060006101000a81548173ffffffffffffffffffffffffffffffffffffffff021916908373ffffffffffffffffffffffffffffffffffffffff160217905550808273ffffffffffffffffffffffffffffffffffffffff16600073ffffffffffffffffffffffffffffffffffffffff167fddf252ad1be2c89b69c2b068fc378daa952ba7f163c4a11628f55a4df523b3ef60405160405180910390a4611ea7600083836001611953565b5050565b6000808273ffffffffffffffffffffffffffffffffffffffff163b119050919050565b6000604051905090565b600080fd5b600080fd5b60007fffffffff0000000000000000000000000000000000000000000000000000000082169050919050565b611f1781611ee2565b8114611f2257600080fd5b50565b600081359050611f3481611f0e565b92915050565b600060208284031215611f5057611f4f611ed8565b5b6000611f5e84828501611f25565b91505092915050565b60008115159050919050565b611f7c81611f67565b82525050565b6000602082019050611f976000830184611f73565b92915050565b600081519050919050565b600082825260208201905092915050565b60005b83811015611fd7578082015181840152602081019050611fbc565b60008484015250505050565b6000601f19601f8301169050919050565b6000611fff82611f9d565b6120098185611fa8565b9350612019818560208601611fb9565b61202281611fe3565b840191505092915050565b600060208201905081810360008301526120478184611ff4565b905092915050565b6000819050919050565b6120628161204f565b811461206d57600080fd5b50565b60008135905061207f81612059565b92915050565b60006020828403121561209b5761209a611ed8565b5b60006120a984828501612070565b91505092915050565b600073ffffffffffffffffffffffffffffffffffffffff82169050919050565b60006120dd826120b2565b9050919050565b6120ed816120d2565b82525050565b600060208201905061210860008301846120e4565b92915050565b612117816120d2565b811461212257600080fd5b50565b6000813590506121348161210e565b92915050565b6000806040838503121561215157612150611ed8565b5b600061215f85828601612125565b925050602061217085828601612070565b9150509250929050565b60008060006060848603121561219357612192611ed8565b5b60006121a186828701612125565b93505060206121b286828701612125565b92505060406121c386828701612070565b9150509250925092565b6000602082840312156121e3576121e2611ed8565b5b60006121f184828501612125565b91505092915050565b6122038161204f565b82525050565b600060208201905061221e60008301846121fa565b92915050565b61222d81611f67565b811461223857600080fd5b50565b60008135905061224a81612224565b92915050565b6000806040838503121561226757612266611ed8565b5b600061227585828601612125565b92505060206122868582860161223b565b9150509250929050565b600080fd5b600080fd5b7f4e487b7100000000000000000000000000000000000000000000000000000000600052604160045260246000fd5b6122d282611fe3565b810181811067ffffffffffffffff821117156122f1576122f061229a565b5b80604052505050565b6000612304611ece565b905061231082826122c9565b919050565b600067ffffffffffffffff8211156123305761232f61229a565b5b61233982611fe3565b9050602081019050919050565b82818337600083830152505050565b600061236861236384612315565b6122fa565b90508281526020810184848401111561238457612383612295565b5b61238f848285612346565b509392505050565b600082601f8301126123ac576123ab612290565b5b81356123bc848260208601612355565b91505092915050565b600080600080608085870312156123df576123de611ed8565b5b60006123ed87828801612125565b94505060206123fe87828801612125565b935050604061240f87828801612070565b925050606085013567ffffffffffffffff8111156124305761242f611edd565b5b61243c87828801612397565b91505092959194509250565b6000806040838503121561245f5761245e611ed8565b5b600061246d85828601612125565b925050602061247e85828601612125565b9150509250929050565b7f4e487b7100000000000000000000000000000000000000000000000000000000600052602260045260246000fd5b600060028204905060018216806124cf57607f821691505b6020821081036124e2576124e1612488565b5b50919050565b7f4552433732313a20617070726f76616c20746f2063757272656e74206f776e6560008201527f7200000000000000000000000000000000000000000000000000000000000000602082015250565b6000612544602183611fa8565b915061254f826124e8565b604082019050919050565b6000602082019050818103600083015261257381612537565b9050919050565b7f4552433732313a20617070726f76652063616c6c6572206973206e6f7420746f60008201527f6b656e206f776e6572206f7220617070726f76656420666f7220616c6c000000602082015250565b60006125d6603d83611fa8565b91506125e18261257a565b604082019050919050565b60006020820190508181036000830152612605816125c9565b9050919050565b7f4552433732313a2063616c6c6572206973206e6f7420746f6b656e206f776e6560008201527f72206f7220617070726f76656400000000000000000000000000000000000000602082015250565b6000612668602d83611fa8565b91506126738261260c565b604082019050919050565b600060208201905081810360008301526126978161265b565b9050919050565b600081905092915050565b60006126b482611f9d565b6126be818561269e565b93506126ce818560208601611fb9565b80840191505092915050565b7f2e6a736f6e000000000000000000000000000000000000000000000000000000600082015250565b600061271060058361269e565b915061271b826126da565b600582019050919050565b600061273282846126a9565b915061273d82612703565b915081905092915050565b600060408201905061275d60008301856120e4565b61276a60208301846121fa565b9392505050565b7f4552433732313a20696e76616c696420746f6b656e2049440000000000000000600082015250565b60006127a7601883611fa8565b91506127b282612771565b602082019050919050565b600060208201905081810360008301526127d68161279a565b9050919050565b7f4552433732313a2061646472657373207a65726f206973206e6f74206120766160008201527f6c6964206f776e65720000000000000000000000000000000000000000000000602082015250565b6000612839602983611fa8565b9150612844826127dd565b604082019050919050565b600060208201905081810360008301526128688161282c565b9050919050565b600061287b82856126a9565b915061288782846126a9565b91508190509392505050565b7f4f776e61626c653a206e6577206f776e657220697320746865207a65726f206160008201527f6464726573730000000000000000000000000000000000000000000000000000602082015250565b60006128ef602683611fa8565b91506128fa82612893565b604082019050919050565b6000602082019050818103600083015261291e816128e2565b9050919050565b7f4552433732313a207472616e736665722066726f6d20696e636f72726563742060008201527f6f776e6572000000000000000000000000000000000000000000000000000000602082015250565b6000612981602583611fa8565b915061298c82612925565b604082019050919050565b600060208201905081810360008301526129b081612974565b9050919050565b7f4552433732313a207472616e7366657220746f20746865207a65726f2061646460008201527f7265737300000000000000000000000000000000000000000000000000000000602082015250565b6000612a13602483611fa8565b9150612a1e826129b7565b604082019050919050565b60006020820190508181036000830152612a4281612a06565b9050919050565b7f4f776e61626c653a2063616c6c6572206973206e6f7420746865206f776e6572600082015250565b6000612a7f602083611fa8565b9150612a8a82612a49565b602082019050919050565b60006020820190508181036000830152612aae81612a72565b9050919050565b7f4e487b7100000000000000000000000000000000000000000000000000000000600052601260045260246000fd5b7f45524337323155524953746f726167653a2055524920736574206f66206e6f6e60008201527f6578697374656e7420746f6b656e000000000000000000000000000000000000602082015250565b6000612b40602e83611fa8565b9150612b4b82612ae4565b604082019050919050565b60006020820190508181036000830152612b6f81612b33565b9050919050565b60008190508160005260206000209050919050565b60006020601f8301049050919050565b600082821b905092915050565b600060088302612bd87fffffffffffffffffffffffffffffffffffffffffffffffffffffffffffffffff82612b9b565b612be28683612b9b565b95508019841693508086168417925050509392505050565b6000819050919050565b6000612c1f612c1a612c158461204f565b612bfa565b61204f565b9050919050565b6000819050919050565b612c3983612c04565b612c4d612c4582612c26565b848454612ba8565b825550505050565b600090565b612c62612c55565b612c6d818484612c30565b505050565b5b81811015612c9157612c86600082612c5a565b600181019050612c73565b5050565b601f821115612cd657612ca781612b76565b612cb084612b8b565b81016020851015612cbf578190505b612cd3612ccb85612b8b565b830182612c72565b50505b505050565b600082821c905092915050565b6000612cf960001984600802612cdb565b1980831691505092915050565b6000612d128383612ce8565b9150826002028217905092915050565b612d2b82611f9d565b67ffffffffffffffff811115612d4457612d4361229a565b5b612d4e82546124b7565b612d59828285612c95565b600060209050601f831160018114612d8c5760008415612d7a578287015190505b612d848582612d06565b865550612dec565b601f198416612d9a86612b76565b60005b82811015612dc257848901518255600182019150602085019450602081019050612d9d565b86831015612ddf5784890151612ddb601f891682612ce8565b8355505b6001600288020188555050505b505050505050565b7f4552433732313a20617070726f766520746f2063616c6c657200000000000000600082015250565b6000612e2a601983611fa8565b9150612e3582612df4565b602082019050919050565b60006020820190508181036000830152612e5981612e1d565b9050919050565b7f4552433732313a207472616e7366657220746f206e6f6e20455243373231526560008201527f63656976657220696d706c656d656e7465720000000000000000000000000000602082015250565b6000612ebc603283611fa8565b9150612ec782612e60565b604082019050919050565b60006020820190508181036000830152612eeb81612eaf565b9050919050565b600081519050919050565b600082825260208201905092915050565b6000612f1982612ef2565b612f238185612efd565b9350612f33818560208601611fb9565b612f3c81611fe3565b840191505092915050565b6000608082019050612f5c60008301876120e4565b612f6960208301866120e4565b612f7660408301856121fa565b8181036060830152612f888184612f0e565b905095945050505050565b600081519050612fa281611f0e565b92915050565b600060208284031215612fbe57612fbd611ed8565b5b6000612fcc84828501612f93565b91505092915050565b7f4552433732313a206d696e7420746f20746865207a65726f2061646472657373600082015250565b600061300b602083611fa8565b915061301682612fd5565b602082019050919050565b6000602082019050818103600083015261303a81612ffe565b9050919050565b7f4552433732313a20746f6b656e20616c7265616479206d696e74656400000000600082015250565b6000613077601c83611fa8565b915061308282613041565b602082019050919050565b600060208201905081810360008301526130a68161306a565b905091905056fea2646970667358221220117c514ff4e35fa7a9bab429b9f65fda8149fd52798aa8d43405f9e2a0f4746964736f6c63430008120033",
  "linkReferences": {},
  "deployedLinkReferences": {}
}