{
  "_format": "hh-sol-artifact-1",
  "contractName": "TheSourceMembreToken",
  "sourceName": "contracts/TheSourceMembreToken.sol",
  "abi": [
    {
      "inputs": [
        {
          "internalType": "address",
          "name": "_marketPlaceAddr",
          "type": "address"
        },
        {
          "internalType": "uint256",
          "name": "_royalties",
          "type": "uint256"
        },
        {
          "internalType": "string",
          "name": "baseURI_",
          "type": "string"
        }
      ],
      "stateMutability": "nonpayable",
      "type": "constructor"
    },
    {
      "anonymous": false,
      "inputs": [
        {
          "indexed": true,
          "internalType": "address",
          "name": "owner",
          "type": "address"
        },
        {
          "indexed": true,
          "internalType": "address",
          "name": "approved",
          "type": "address"
        },
        {
          "indexed": true,
          "internalType": "uint256",
          "name": "tokenId",
          "type": "uint256"
        }
      ],
      "name": "Approval",
      "type": "event"
    },
    {
      "anonymous": false,
      "inputs": [
        {
          "indexed": true,
          "internalType": "address",
          "name": "owner",
          "type": "address"
        },
        {
          "indexed": true,
          "internalType": "address",
          "name": "operator",
          "type": "address"
        },
        {
          "indexed": false,
          "internalType": "bool",
          "name": "approved",
          "type": "bool"
        }
      ],
      "name": "ApprovalForAll",
      "type": "event"
    },
    {
      "anonymous": false,
      "inputs": [
        {
          "indexed": true,
          "internalType": "address",
          "name": "previousOwner",
          "type": "address"
        },
        {
          "indexed": true,
          "internalType": "address",
          "name": "newOwner",
          "type": "address"
        }
      ],
      "name": "OwnershipTransferred",
      "type": "event"
    },
    {
      "anonymous": false,
      "inputs": [
        {
          "indexed": true,
          "internalType": "address",
          "name": "from",
          "type": "address"
        },
        {
          "indexed": true,
          "internalType": "address",
          "name": "to",
          "type": "address"
        },
        {
          "indexed": true,
          "internalType": "uint256",
          "name": "tokenId",
          "type": "uint256"
        }
      ],
      "name": "Transfer",
      "type": "event"
    },
    {
      "anonymous": false,
      "inputs": [
        {
          "indexed": false,
          "internalType": "address",
          "name": "_to",
          "type": "address"
        },
        {
          "indexed": false,
          "internalType": "uint256",
          "name": "tokenId",
          "type": "uint256"
        }
      ],
      "name": "mint",
      "type": "event"
    },
    {
      "inputs": [
        {
          "internalType": "address",
          "name": "to",
          "type": "address"
        },
        {
          "internalType": "uint256",
          "name": "tokenId",
          "type": "uint256"
        }
      ],
      "name": "approve",
      "outputs": [],
      "stateMutability": "nonpayable",
      "type": "function"
    },
    {
      "inputs": [
        {
          "internalType": "address",
          "name": "owner",
          "type": "address"
        }
      ],
      "name": "balanceOf",
      "outputs": [
        {
          "internalType": "uint256",
          "name": "",
          "type": "uint256"
        }
      ],
      "stateMutability": "view",
      "type": "function"
    },
    {
      "inputs": [
        {
          "internalType": "uint256",
          "name": "tokenId",
          "type": "uint256"
        }
      ],
      "name": "getApproved",
      "outputs": [
        {
          "internalType": "address",
          "name": "",
          "type": "address"
        }
      ],
      "stateMutability": "view",
      "type": "function"
    },
    {
      "inputs": [
        {
          "internalType": "address",
          "name": "owner",
          "type": "address"
        },
        {
          "internalType": "address",
          "name": "operator",
          "type": "address"
        }
      ],
      "name": "isApprovedForAll",
      "outputs": [
        {
          "internalType": "bool",
          "name": "",
          "type": "bool"
        }
      ],
      "stateMutability": "view",
      "type": "function"
    },
    {
      "inputs": [],
      "name": "name",
      "outputs": [
        {
          "internalType": "string",
          "name": "",
          "type": "string"
        }
      ],
      "stateMutability": "view",
      "type": "function"
    },
    {
      "inputs": [],
      "name": "owner",
      "outputs": [
        {
          "internalType": "address",
          "name": "",
          "type": "address"
        }
      ],
      "stateMutability": "view",
      "type": "function"
    },
    {
      "inputs": [
        {
          "internalType": "uint256",
          "name": "tokenId",
          "type": "uint256"
        }
      ],
      "name": "ownerOf",
      "outputs": [
        {
          "internalType": "address",
          "name": "",
          "type": "address"
        }
      ],
      "stateMutability": "view",
      "type": "function"
    },
    {
      "inputs": [],
      "name": "renounceOwnership",
      "outputs": [],
      "stateMutability": "nonpayable",
      "type": "function"
    },
    {
      "inputs": [],
      "name": "royalties",
      "outputs": [
        {
          "internalType": "uint256",
          "name": "",
          "type": "uint256"
        }
      ],
      "stateMutability": "view",
      "type": "function"
    },
    {
      "inputs": [
        {
          "internalType": "uint256",
          "name": "tokenId",
          "type": "uint256"
        },
        {
          "internalType": "uint256",
          "name": "value",
          "type": "uint256"
        }
      ],
      "name": "royaltyInfo",
      "outputs": [
        {
          "internalType": "address",
          "name": "receiver",
          "type": "address"
        },
        {
          "internalType": "uint256",
          "name": "royaltyAmount",
          "type": "uint256"
        }
      ],
      "stateMutability": "view",
      "type": "function"
    },
    {
      "inputs": [
        {
          "internalType": "address",
          "name": "_to",
          "type": "address"
        }
      ],
      "name": "safeMint",
      "outputs": [
        {
          "internalType": "uint256",
          "name": "",
          "type": "uint256"
        }
      ],
      "stateMutability": "nonpayable",
      "type": "function"
    },
    {
      "inputs": [
        {
          "internalType": "address",
          "name": "from",
          "type": "address"
        },
        {
          "internalType": "address",
          "name": "to",
          "type": "address"
        },
        {
          "internalType": "uint256",
          "name": "tokenId",
          "type": "uint256"
        }
      ],
      "name": "safeTransferFrom",
      "outputs": [],
      "stateMutability": "nonpayable",
      "type": "function"
    },
    {
      "inputs": [
        {
          "internalType": "address",
          "name": "from",
          "type": "address"
        },
        {
          "internalType": "address",
          "name": "to",
          "type": "address"
        },
        {
          "internalType": "uint256",
          "name": "tokenId",
          "type": "uint256"
        },
        {
          "internalType": "bytes",
          "name": "data",
          "type": "bytes"
        }
      ],
      "name": "safeTransferFrom",
      "outputs": [],
      "stateMutability": "nonpayable",
      "type": "function"
    },
    {
      "inputs": [
        {
          "internalType": "address",
          "name": "operator",
          "type": "address"
        },
        {
          "internalType": "bool",
          "name": "approved",
          "type": "bool"
        }
      ],
      "name": "setApprovalForAll",
      "outputs": [],
      "stateMutability": "nonpayable",
      "type": "function"
    },
    {
      "inputs": [
        {
          "internalType": "bytes4",
          "name": "interfaceId",
          "type": "bytes4"
        }
      ],
      "name": "supportsInterface",
      "outputs": [
        {
          "internalType": "bool",
          "name": "",
          "type": "bool"
        }
      ],
      "stateMutability": "view",
      "type": "function"
    },
    {
      "inputs": [],
      "name": "symbol",
      "outputs": [
        {
          "internalType": "string",
          "name": "",
          "type": "string"
        }
      ],
      "stateMutability": "view",
      "type": "function"
    },
    {
      "inputs": [
        {
          "internalType": "uint256",
          "name": "tokenId",
          "type": "uint256"
        }
      ],
      "name": "tokenURI",
      "outputs": [
        {
          "internalType": "string",
          "name": "",
          "type": "string"
        }
      ],
      "stateMutability": "view",
      "type": "function"
    },
    {
      "inputs": [
        {
          "internalType": "address",
          "name": "from",
          "type": "address"
        },
        {
          "internalType": "address",
          "name": "to",
          "type": "address"
        },
        {
          "internalType": "uint256",
          "name": "tokenId",
          "type": "uint256"
        }
      ],
      "name": "transferFrom",
      "outputs": [],
      "stateMutability": "nonpayable",
      "type": "function"
    },
    {
      "inputs": [
        {
          "internalType": "address",
          "name": "newOwner",
          "type": "address"
        }
      ],
      "name": "transferOwnership",
      "outputs": [],
      "stateMutability": "nonpayable",
      "type": "function"
    }
  ],
  "bytecode": "0x60806040523480156200001157600080fd5b5060405162003ed538038062003ed58339818101604052810190620000379190620005fd565b6040518060400160405280601481526020017f546865536f757263654d656d627265546f6b656e0000000000000000000000008152506040518060400160405280600481526020017f54534d54000000000000000000000000000000000000000000000000000000008152508160009081620000b49190620008b9565b508060019081620000c69190620008b9565b505050620000e9620000dd620001a860201b60201c565b620001b060201b60201c565b6200010567094c2e36d9cf5efa60c01b6200027660201b60201c565b6200012167a63697c7ed2d9b8160c01b6200027660201b60201c565b6200013d67607a123f7205273260c01b6200027660201b60201c565b6200014e836200027960201b60201c565b6200016a676385d838fb41c9b460c01b6200027660201b60201c565b81600a819055506200018d67ad7095f85997f76b60c01b6200027660201b60201c565b80600b90816200019e9190620008b9565b5050505062000abb565b600033905090565b6000600860009054906101000a900473ffffffffffffffffffffffffffffffffffffffff16905081600860006101000a81548173ffffffffffffffffffffffffffffffffffffffff021916908373ffffffffffffffffffffffffffffffffffffffff1602179055508173ffffffffffffffffffffffffffffffffffffffff168173ffffffffffffffffffffffffffffffffffffffff167f8be0079c531659141344cd1fd0a4f28419497f9722a3daafe3b4186f6b6457e060405160405180910390a35050565b50565b620002896200030f60201b60201c565b600073ffffffffffffffffffffffffffffffffffffffff168173ffffffffffffffffffffffffffffffffffffffff1603620002fb576040517f08c379a0000000000000000000000000000000000000000000000000000000008152600401620002f29062000a27565b60405180910390fd5b6200030c81620001b060201b60201c565b50565b6200031f620001a860201b60201c565b73ffffffffffffffffffffffffffffffffffffffff1662000345620003a060201b60201c565b73ffffffffffffffffffffffffffffffffffffffff16146200039e576040517f08c379a0000000000000000000000000000000000000000000000000000000008152600401620003959062000a99565b60405180910390fd5b565b6000600860009054906101000a900473ffffffffffffffffffffffffffffffffffffffff16905090565b6000604051905090565b600080fd5b600080fd5b600073ffffffffffffffffffffffffffffffffffffffff82169050919050565b60006200040b82620003de565b9050919050565b6200041d81620003fe565b81146200042957600080fd5b50565b6000815190506200043d8162000412565b92915050565b6000819050919050565b620004588162000443565b81146200046457600080fd5b50565b60008151905062000478816200044d565b92915050565b600080fd5b600080fd5b6000601f19601f8301169050919050565b7f4e487b7100000000000000000000000000000000000000000000000000000000600052604160045260246000fd5b620004d38262000488565b810181811067ffffffffffffffff82111715620004f557620004f462000499565b5b80604052505050565b60006200050a620003ca565b9050620005188282620004c8565b919050565b600067ffffffffffffffff8211156200053b576200053a62000499565b5b620005468262000488565b9050602081019050919050565b60005b838110156200057357808201518184015260208101905062000556565b60008484015250505050565b60006200059662000590846200051d565b620004fe565b905082815260208101848484011115620005b557620005b462000483565b5b620005c284828562000553565b509392505050565b600082601f830112620005e257620005e16200047e565b5b8151620005f48482602086016200057f565b91505092915050565b600080600060608486031215620006195762000618620003d4565b5b600062000629868287016200042c565b93505060206200063c8682870162000467565b925050604084015167ffffffffffffffff81111562000660576200065f620003d9565b5b6200066e86828701620005ca565b9150509250925092565b600081519050919050565b7f4e487b7100000000000000000000000000000000000000000000000000000000600052602260045260246000fd5b60006002820490506001821680620006cb57607f821691505b602082108103620006e157620006e062000683565b5b50919050565b60008190508160005260206000209050919050565b60006020601f8301049050919050565b600082821b905092915050565b6000600883026200074b7fffffffffffffffffffffffffffffffffffffffffffffffffffffffffffffffff826200070c565b6200075786836200070c565b95508019841693508086168417925050509392505050565b6000819050919050565b60006200079a620007946200078e8462000443565b6200076f565b62000443565b9050919050565b6000819050919050565b620007b68362000779565b620007ce620007c582620007a1565b84845462000719565b825550505050565b600090565b620007e5620007d6565b620007f2818484620007ab565b505050565b5b818110156200081a576200080e600082620007db565b600181019050620007f8565b5050565b601f82111562000869576200083381620006e7565b6200083e84620006fc565b810160208510156200084e578190505b620008666200085d85620006fc565b830182620007f7565b50505b505050565b600082821c905092915050565b60006200088e600019846008026200086e565b1980831691505092915050565b6000620008a983836200087b565b9150826002028217905092915050565b620008c48262000678565b67ffffffffffffffff811115620008e057620008df62000499565b5b620008ec8254620006b2565b620008f98282856200081e565b600060209050601f8311600181146200093157600084156200091c578287015190505b6200092885826200089b565b86555062000998565b601f1984166200094186620006e7565b60005b828110156200096b5784890151825560018201915060208501945060208101905062000944565b868310156200098b578489015162000987601f8916826200087b565b8355505b6001600288020188555050505b505050505050565b600082825260208201905092915050565b7f4f776e61626c653a206e6577206f776e657220697320746865207a65726f206160008201527f6464726573730000000000000000000000000000000000000000000000000000602082015250565b600062000a0f602683620009a0565b915062000a1c82620009b1565b604082019050919050565b6000602082019050818103600083015262000a428162000a00565b9050919050565b7f4f776e61626c653a2063616c6c6572206973206e6f7420746865206f776e6572600082015250565b600062000a81602083620009a0565b915062000a8e8262000a49565b602082019050919050565b6000602082019050818103600083015262000ab48162000a72565b9050919050565b61340a8062000acb6000396000f3fe608060405234801561001057600080fd5b50600436106101215760003560e01c806370a08231116100ad578063b88d4fde11610071578063b88d4fde1461031b578063c87b56dd14610337578063e985e9c514610367578063f053dc5c14610397578063f2fde38b146103b557610121565b806370a0823114610289578063715018a6146102b95780638da5cb5b146102c357806395d89b41146102e1578063a22cb465146102ff57610121565b806323b872dd116100f457806323b872dd146101c05780632a55205a146101dc57806340d097c31461020d57806342842e0e1461023d5780636352211e1461025957610121565b806301ffc9a71461012657806306fdde0314610156578063081812fc14610174578063095ea7b3146101a4575b600080fd5b610140600480360381019061013b919061217f565b6103d1565b60405161014d91906121c7565b60405180910390f35b61015e61041f565b60405161016b9190612272565b60405180910390f35b61018e600480360381019061018991906122ca565b6104b1565b60405161019b9190612338565b60405180910390f35b6101be60048036038101906101b9919061237f565b6104f7565b005b6101da60048036038101906101d591906123bf565b61060e565b005b6101f660048036038101906101f19190612412565b61066e565b604051610204929190612461565b60405180910390f35b6102276004803603810190610222919061248a565b6107a3565b60405161023491906124b7565b60405180910390f35b610257600480360381019061025291906123bf565b61099c565b005b610273600480360381019061026e91906122ca565b6109bc565b6040516102809190612338565b60405180910390f35b6102a3600480360381019061029e919061248a565b610a42565b6040516102b091906124b7565b60405180910390f35b6102c1610af9565b005b6102cb610b0d565b6040516102d89190612338565b60405180910390f35b6102e9610b37565b6040516102f69190612272565b60405180910390f35b610319600480360381019061031491906124fe565b610bc9565b005b61033560048036038101906103309190612673565b610bdf565b005b610351600480360381019061034c91906122ca565b610c41565b60405161035e9190612272565b60405180910390f35b610381600480360381019061037c91906126f6565b610d53565b60405161038e91906121c7565b60405180910390f35b61039f610de7565b6040516103ac91906124b7565b60405180910390f35b6103cf60048036038101906103ca919061248a565b610ded565b005b60006103e76774f3673695259df660c01b610e70565b6103fb6766436a5fbd07f62f60c01b610e70565b61040f67d654cbb5f183c42760c01b610e70565b61041882610e73565b9050919050565b60606000805461042e90612765565b80601f016020809104026020016040519081016040528092919081815260200182805461045a90612765565b80156104a75780601f1061047c576101008083540402835291602001916104a7565b820191906000526020600020905b81548152906001019060200180831161048a57829003601f168201915b5050505050905090565b60006104bc82610f61565b6004600083815260200190815260200160002060009054906101000a900473ffffffffffffffffffffffffffffffffffffffff169050919050565b6000610502826109bc565b90508073ffffffffffffffffffffffffffffffffffffffff168373ffffffffffffffffffffffffffffffffffffffff1603610572576040517f08c379a000000000000000000000000000000000000000000000000000000000815260040161056990612808565b60405180910390fd5b8073ffffffffffffffffffffffffffffffffffffffff16610591610fac565b73ffffffffffffffffffffffffffffffffffffffff1614806105c057506105bf816105ba610fac565b610d53565b5b6105ff576040517f08c379a00000000000000000000000000000000000000000000000000000000081526004016105f69061289a565b60405180910390fd5b6106098383610fb4565b505050565b61061f610619610fac565b8261106d565b61065e576040517f08c379a00000000000000000000000000000000000000000000000000000000081526004016106559061292c565b60405180910390fd5b610669838383611102565b505050565b600080610685679438a3efbd0e887e60c01b6113fb565b6106996711f8f8a0a23cc24e60c01b6113fb565b6106ad67d0e40ef52d3ef50c60c01b6113fb565b6000600760008681526020019081526020016000206040518060400160405290816000820160009054906101000a900473ffffffffffffffffffffffffffffffffffffffff1673ffffffffffffffffffffffffffffffffffffffff1673ffffffffffffffffffffffffffffffffffffffff1681526020016000820160149054906101000a900462ffffff1662ffffff1662ffffff1681525050905061075c677912640e17d9b16060c01b6113fb565b8060000151925061077767471d19cf7ae8dff860c01b6113fb565b612710816020015162ffffff168561078f919061297b565b61079991906129ec565b9150509250929050565b60006107b967e0c477fe9b4ebbb960c01b610e70565b6107c16113fe565b6107d567743730e1d5f0fe4660c01b610e70565b6107e967d64654b3fd39110260c01b610e70565b6107fd67d1595fe646f3ec1b60c01b610e70565b610811670d5f2b45224d487c60c01b610e70565b61081b600961147c565b61082f6771f5bde6de332d7160c01b610e70565b6108436797e8f96d38dce30160c01b610e70565b600061084f6009611492565b90506108656729b0621a9957fb9560c01b610e70565b61087967d902269963fa1ec460c01b610e70565b61088383826114a0565b6108976734fd65fb7950af7260c01b610e70565b6108ab67ff46e4b8ef7132a960c01b610e70565b60006108b6826114be565b6040516020016108c69190612aa5565b60405160208183030381529060405290506108eb67876261603b3eb67760c01b610e70565b6108ff6786d82701ea05d7a460c01b610e70565b610909828261158c565b61091d67d489824bf783250960c01b610e70565b6109316739ce6fcdc85f779660c01b610e70565b7f40c10f19c047ae7dfa66d6312b683d2ea3dfbcb4159e96b967c5f4b0a86f28428483604051610962929190612461565b60405180910390a161097e675e51fac5ebe4214760c01b610e70565b610992672e90deedcde6e26460c01b610e70565b8192505050919050565b6109b783838360405180602001604052806000815250610bdf565b505050565b6000806109c8836115f9565b9050600073ffffffffffffffffffffffffffffffffffffffff168173ffffffffffffffffffffffffffffffffffffffff1603610a39576040517f08c379a0000000000000000000000000000000000000000000000000000000008152600401610a3090612b13565b60405180910390fd5b80915050919050565b60008073ffffffffffffffffffffffffffffffffffffffff168273ffffffffffffffffffffffffffffffffffffffff1603610ab2576040517f08c379a0000000000000000000000000000000000000000000000000000000008152600401610aa990612ba5565b60405180910390fd5b600360008373ffffffffffffffffffffffffffffffffffffffff1673ffffffffffffffffffffffffffffffffffffffff168152602001908152602001600020549050919050565b610b016113fe565b610b0b6000611636565b565b6000600860009054906101000a900473ffffffffffffffffffffffffffffffffffffffff16905090565b606060018054610b4690612765565b80601f0160208091040260200160405190810160405280929190818152602001828054610b7290612765565b8015610bbf5780601f10610b9457610100808354040283529160200191610bbf565b820191906000526020600020905b815481529060010190602001808311610ba257829003601f168201915b5050505050905090565b610bdb610bd4610fac565b83836116fc565b5050565b610bf0610bea610fac565b8361106d565b610c2f576040517f08c379a0000000000000000000000000000000000000000000000000000000008152600401610c269061292c565b60405180910390fd5b610c3b84848484611868565b50505050565b6060610c4c82610f61565b6000600660008481526020019081526020016000208054610c6c90612765565b80601f0160208091040260200160405190810160405280929190818152602001828054610c9890612765565b8015610ce55780601f10610cba57610100808354040283529160200191610ce5565b820191906000526020600020905b815481529060010190602001808311610cc857829003601f168201915b505050505090506000610cf66118c4565b90506000815103610d0b578192505050610d4e565b600082511115610d40578082604051602001610d28929190612bc5565b60405160208183030381529060405292505050610d4e565b610d4984611992565b925050505b919050565b6000600560008473ffffffffffffffffffffffffffffffffffffffff1673ffffffffffffffffffffffffffffffffffffffff16815260200190815260200160002060008373ffffffffffffffffffffffffffffffffffffffff1673ffffffffffffffffffffffffffffffffffffffff16815260200190815260200160002060009054906101000a900460ff16905092915050565b600a5481565b610df56113fe565b600073ffffffffffffffffffffffffffffffffffffffff168173ffffffffffffffffffffffffffffffffffffffff1603610e64576040517f08c379a0000000000000000000000000000000000000000000000000000000008152600401610e5b90612c5b565b60405180910390fd5b610e6d81611636565b50565b50565b6000610e89673fe9c526598008f360c01b6113fb565b610e9d67a82e0fa46d43847860c01b6113fb565b610eb167981553e253f2d63e60c01b6113fb565b7f2a55205a000000000000000000000000000000000000000000000000000000007bffffffffffffffffffffffffffffffffffffffffffffffffffffffff1916827bffffffffffffffffffffffffffffffffffffffffffffffffffffffff1916148015610f2e5750610f2d67ff6ce5a6c8164a4560c01b6119fa565b5b80610f5a5750610f3d82611a05565b8015610f595750610f58678124a86a32825ef560c01b6119fa565b5b5b9050919050565b610f6a81611ae7565b610fa9576040517f08c379a0000000000000000000000000000000000000000000000000000000008152600401610fa090612b13565b60405180910390fd5b50565b600033905090565b816004600083815260200190815260200160002060006101000a81548173ffffffffffffffffffffffffffffffffffffffff021916908373ffffffffffffffffffffffffffffffffffffffff160217905550808273ffffffffffffffffffffffffffffffffffffffff16611027836109bc565b73ffffffffffffffffffffffffffffffffffffffff167f8c5be1e5ebec7d5bd14f71427d1e84f3dd0314c0f7b2291e5b200ac8c7c3b92560405160405180910390a45050565b600080611079836109bc565b90508073ffffffffffffffffffffffffffffffffffffffff168473ffffffffffffffffffffffffffffffffffffffff1614806110bb57506110ba8185610d53565b5b806110f957508373ffffffffffffffffffffffffffffffffffffffff166110e1846104b1565b73ffffffffffffffffffffffffffffffffffffffff16145b91505092915050565b8273ffffffffffffffffffffffffffffffffffffffff16611122826109bc565b73ffffffffffffffffffffffffffffffffffffffff1614611178576040517f08c379a000000000000000000000000000000000000000000000000000000000815260040161116f90612ced565b60405180910390fd5b600073ffffffffffffffffffffffffffffffffffffffff168273ffffffffffffffffffffffffffffffffffffffff16036111e7576040517f08c379a00000000000000000000000000000000000000000000000000000000081526004016111de90612d7f565b60405180910390fd5b6111f48383836001611b28565b8273ffffffffffffffffffffffffffffffffffffffff16611214826109bc565b73ffffffffffffffffffffffffffffffffffffffff161461126a576040517f08c379a000000000000000000000000000000000000000000000000000000000815260040161126190612ced565b60405180910390fd5b6004600082815260200190815260200160002060006101000a81549073ffffffffffffffffffffffffffffffffffffffff02191690556001600360008573ffffffffffffffffffffffffffffffffffffffff1673ffffffffffffffffffffffffffffffffffffffff168152602001908152602001600020600082825403925050819055506001600360008473ffffffffffffffffffffffffffffffffffffffff1673ffffffffffffffffffffffffffffffffffffffff16815260200190815260200160002060008282540192505081905550816002600083815260200190815260200160002060006101000a81548173ffffffffffffffffffffffffffffffffffffffff021916908373ffffffffffffffffffffffffffffffffffffffff160217905550808273ffffffffffffffffffffffffffffffffffffffff168473ffffffffffffffffffffffffffffffffffffffff167fddf252ad1be2c89b69c2b068fc378daa952ba7f163c4a11628f55a4df523b3ef60405160405180910390a46113f68383836001611b2e565b505050565b50565b611406610fac565b73ffffffffffffffffffffffffffffffffffffffff16611424610b0d565b73ffffffffffffffffffffffffffffffffffffffff161461147a576040517f08c379a000000000000000000000000000000000000000000000000000000000815260040161147190612deb565b60405180910390fd5b565b6001816000016000828254019250508190555050565b600081600001549050919050565b6114ba828260405180602001604052806000815250611b34565b5050565b6060600060016114cd84611b8f565b01905060008167ffffffffffffffff8111156114ec576114eb612548565b5b6040519080825280601f01601f19166020018201604052801561151e5781602001600182028036833780820191505090505b509050600082602001820190505b600115611581578080600190039150507f3031323334353637383961626364656600000000000000000000000000000000600a86061a8153600a8581611575576115746129bd565b5b0494506000850361152c575b819350505050919050565b61159582611ae7565b6115d4576040517f08c379a00000000000000000000000000000000000000000000000000000000081526004016115cb90612e7d565b60405180910390fd5b806006600084815260200190815260200160002090816115f49190613049565b505050565b60006002600083815260200190815260200160002060009054906101000a900473ffffffffffffffffffffffffffffffffffffffff169050919050565b6000600860009054906101000a900473ffffffffffffffffffffffffffffffffffffffff16905081600860006101000a81548173ffffffffffffffffffffffffffffffffffffffff021916908373ffffffffffffffffffffffffffffffffffffffff1602179055508173ffffffffffffffffffffffffffffffffffffffff168173ffffffffffffffffffffffffffffffffffffffff167f8be0079c531659141344cd1fd0a4f28419497f9722a3daafe3b4186f6b6457e060405160405180910390a35050565b8173ffffffffffffffffffffffffffffffffffffffff168373ffffffffffffffffffffffffffffffffffffffff160361176a576040517f08c379a000000000000000000000000000000000000000000000000000000000815260040161176190613167565b60405180910390fd5b80600560008573ffffffffffffffffffffffffffffffffffffffff1673ffffffffffffffffffffffffffffffffffffffff16815260200190815260200160002060008473ffffffffffffffffffffffffffffffffffffffff1673ffffffffffffffffffffffffffffffffffffffff16815260200190815260200160002060006101000a81548160ff0219169083151502179055508173ffffffffffffffffffffffffffffffffffffffff168373ffffffffffffffffffffffffffffffffffffffff167f17307eab39ab6107e8899845ad3d59bd9653f200f220920489ca2b5937696c318360405161185b91906121c7565b60405180910390a3505050565b611873848484611102565b61187f84848484611ce2565b6118be576040517f08c379a00000000000000000000000000000000000000000000000000000000081526004016118b5906131f9565b60405180910390fd5b50505050565b60606118da6777ccb967a08d381860c01b610e70565b6118ee678256b9f6618b118060c01b610e70565b61190267555afd2131f5b4c460c01b610e70565b600b805461190f90612765565b80601f016020809104026020016040519081016040528092919081815260200182805461193b90612765565b80156119885780601f1061195d57610100808354040283529160200191611988565b820191906000526020600020905b81548152906001019060200180831161196b57829003601f168201915b5050505050905090565b606061199d82610f61565b60006119a76118c4565b905060008151116119c757604051806020016040528060008152506119f2565b806119d1846114be565b6040516020016119e2929190612bc5565b6040516020818303038152906040525b915050919050565b600060019050919050565b60007f80ac58cd000000000000000000000000000000000000000000000000000000007bffffffffffffffffffffffffffffffffffffffffffffffffffffffff1916827bffffffffffffffffffffffffffffffffffffffffffffffffffffffff19161480611ad057507f5b5e139f000000000000000000000000000000000000000000000000000000007bffffffffffffffffffffffffffffffffffffffffffffffffffffffff1916827bffffffffffffffffffffffffffffffffffffffffffffffffffffffff1916145b80611ae05750611adf82611e69565b5b9050919050565b60008073ffffffffffffffffffffffffffffffffffffffff16611b09836115f9565b73ffffffffffffffffffffffffffffffffffffffff1614159050919050565b50505050565b50505050565b611b3e8383611ed3565b611b4b6000848484611ce2565b611b8a576040517f08c379a0000000000000000000000000000000000000000000000000000000008152600401611b81906131f9565b60405180910390fd5b505050565b600080600090507a184f03e93ff9f4daa797ed6e38ed64bf6a1f0100000000000000008310611bed577a184f03e93ff9f4daa797ed6e38ed64bf6a1f0100000000000000008381611be357611be26129bd565b5b0492506040810190505b6d04ee2d6d415b85acef81000000008310611c2a576d04ee2d6d415b85acef81000000008381611c2057611c1f6129bd565b5b0492506020810190505b662386f26fc100008310611c5957662386f26fc100008381611c4f57611c4e6129bd565b5b0492506010810190505b6305f5e1008310611c82576305f5e1008381611c7857611c776129bd565b5b0492506008810190505b6127108310611ca7576127108381611c9d57611c9c6129bd565b5b0492506004810190505b60648310611cca5760648381611cc057611cbf6129bd565b5b0492506002810190505b600a8310611cd9576001810190505b80915050919050565b6000611d038473ffffffffffffffffffffffffffffffffffffffff166120f0565b15611e5c578373ffffffffffffffffffffffffffffffffffffffff1663150b7a02611d2c610fac565b8786866040518563ffffffff1660e01b8152600401611d4e949392919061326e565b6020604051808303816000875af1925050508015611d8a57506040513d601f19601f82011682018060405250810190611d8791906132cf565b60015b611e0c573d8060008114611dba576040519150601f19603f3d011682016040523d82523d6000602084013e611dbf565b606091505b506000815103611e04576040517f08c379a0000000000000000000000000000000000000000000000000000000008152600401611dfb906131f9565b60405180910390fd5b805181602001fd5b63150b7a0260e01b7bffffffffffffffffffffffffffffffffffffffffffffffffffffffff1916817bffffffffffffffffffffffffffffffffffffffffffffffffffffffff191614915050611e61565b600190505b949350505050565b60007f01ffc9a7000000000000000000000000000000000000000000000000000000007bffffffffffffffffffffffffffffffffffffffffffffffffffffffff1916827bffffffffffffffffffffffffffffffffffffffffffffffffffffffff1916149050919050565b600073ffffffffffffffffffffffffffffffffffffffff168273ffffffffffffffffffffffffffffffffffffffff1603611f42576040517f08c379a0000000000000000000000000000000000000000000000000000000008152600401611f3990613348565b60405180910390fd5b611f4b81611ae7565b15611f8b576040517f08c379a0000000000000000000000000000000000000000000000000000000008152600401611f82906133b4565b60405180910390fd5b611f99600083836001611b28565b611fa281611ae7565b15611fe2576040517f08c379a0000000000000000000000000000000000000000000000000000000008152600401611fd9906133b4565b60405180910390fd5b6001600360008473ffffffffffffffffffffffffffffffffffffffff1673ffffffffffffffffffffffffffffffffffffffff16815260200190815260200160002060008282540192505081905550816002600083815260200190815260200160002060006101000a81548173ffffffffffffffffffffffffffffffffffffffff021916908373ffffffffffffffffffffffffffffffffffffffff160217905550808273ffffffffffffffffffffffffffffffffffffffff16600073ffffffffffffffffffffffffffffffffffffffff167fddf252ad1be2c89b69c2b068fc378daa952ba7f163c4a11628f55a4df523b3ef60405160405180910390a46120ec600083836001611b2e565b5050565b6000808273ffffffffffffffffffffffffffffffffffffffff163b119050919050565b6000604051905090565b600080fd5b600080fd5b60007fffffffff0000000000000000000000000000000000000000000000000000000082169050919050565b61215c81612127565b811461216757600080fd5b50565b60008135905061217981612153565b92915050565b6000602082840312156121955761219461211d565b5b60006121a38482850161216a565b91505092915050565b60008115159050919050565b6121c1816121ac565b82525050565b60006020820190506121dc60008301846121b8565b92915050565b600081519050919050565b600082825260208201905092915050565b60005b8381101561221c578082015181840152602081019050612201565b60008484015250505050565b6000601f19601f8301169050919050565b6000612244826121e2565b61224e81856121ed565b935061225e8185602086016121fe565b61226781612228565b840191505092915050565b6000602082019050818103600083015261228c8184612239565b905092915050565b6000819050919050565b6122a781612294565b81146122b257600080fd5b50565b6000813590506122c48161229e565b92915050565b6000602082840312156122e0576122df61211d565b5b60006122ee848285016122b5565b91505092915050565b600073ffffffffffffffffffffffffffffffffffffffff82169050919050565b6000612322826122f7565b9050919050565b61233281612317565b82525050565b600060208201905061234d6000830184612329565b92915050565b61235c81612317565b811461236757600080fd5b50565b60008135905061237981612353565b92915050565b600080604083850312156123965761239561211d565b5b60006123a48582860161236a565b92505060206123b5858286016122b5565b9150509250929050565b6000806000606084860312156123d8576123d761211d565b5b60006123e68682870161236a565b93505060206123f78682870161236a565b9250506040612408868287016122b5565b9150509250925092565b600080604083850312156124295761242861211d565b5b6000612437858286016122b5565b9250506020612448858286016122b5565b9150509250929050565b61245b81612294565b82525050565b60006040820190506124766000830185612329565b6124836020830184612452565b9392505050565b6000602082840312156124a05761249f61211d565b5b60006124ae8482850161236a565b91505092915050565b60006020820190506124cc6000830184612452565b92915050565b6124db816121ac565b81146124e657600080fd5b50565b6000813590506124f8816124d2565b92915050565b600080604083850312156125155761251461211d565b5b60006125238582860161236a565b9250506020612534858286016124e9565b9150509250929050565b600080fd5b600080fd5b7f4e487b7100000000000000000000000000000000000000000000000000000000600052604160045260246000fd5b61258082612228565b810181811067ffffffffffffffff8211171561259f5761259e612548565b5b80604052505050565b60006125b2612113565b90506125be8282612577565b919050565b600067ffffffffffffffff8211156125de576125dd612548565b5b6125e782612228565b9050602081019050919050565b82818337600083830152505050565b6000612616612611846125c3565b6125a8565b90508281526020810184848401111561263257612631612543565b5b61263d8482856125f4565b509392505050565b600082601f83011261265a5761265961253e565b5b813561266a848260208601612603565b91505092915050565b6000806000806080858703121561268d5761268c61211d565b5b600061269b8782880161236a565b94505060206126ac8782880161236a565b93505060406126bd878288016122b5565b925050606085013567ffffffffffffffff8111156126de576126dd612122565b5b6126ea87828801612645565b91505092959194509250565b6000806040838503121561270d5761270c61211d565b5b600061271b8582860161236a565b925050602061272c8582860161236a565b9150509250929050565b7f4e487b7100000000000000000000000000000000000000000000000000000000600052602260045260246000fd5b6000600282049050600182168061277d57607f821691505b6020821081036127905761278f612736565b5b50919050565b7f4552433732313a20617070726f76616c20746f2063757272656e74206f776e6560008201527f7200000000000000000000000000000000000000000000000000000000000000602082015250565b60006127f26021836121ed565b91506127fd82612796565b604082019050919050565b60006020820190508181036000830152612821816127e5565b9050919050565b7f4552433732313a20617070726f76652063616c6c6572206973206e6f7420746f60008201527f6b656e206f776e6572206f7220617070726f76656420666f7220616c6c000000602082015250565b6000612884603d836121ed565b915061288f82612828565b604082019050919050565b600060208201905081810360008301526128b381612877565b9050919050565b7f4552433732313a2063616c6c6572206973206e6f7420746f6b656e206f776e6560008201527f72206f7220617070726f76656400000000000000000000000000000000000000602082015250565b6000612916602d836121ed565b9150612921826128ba565b604082019050919050565b6000602082019050818103600083015261294581612909565b9050919050565b7f4e487b7100000000000000000000000000000000000000000000000000000000600052601160045260246000fd5b600061298682612294565b915061299183612294565b925082820261299f81612294565b915082820484148315176129b6576129b561294c565b5b5092915050565b7f4e487b7100000000000000000000000000000000000000000000000000000000600052601260045260246000fd5b60006129f782612294565b9150612a0283612294565b925082612a1257612a116129bd565b5b828204905092915050565b600081905092915050565b6000612a33826121e2565b612a3d8185612a1d565b9350612a4d8185602086016121fe565b80840191505092915050565b7f2e6a736f6e000000000000000000000000000000000000000000000000000000600082015250565b6000612a8f600583612a1d565b9150612a9a82612a59565b600582019050919050565b6000612ab18284612a28565b9150612abc82612a82565b915081905092915050565b7f4552433732313a20696e76616c696420746f6b656e2049440000000000000000600082015250565b6000612afd6018836121ed565b9150612b0882612ac7565b602082019050919050565b60006020820190508181036000830152612b2c81612af0565b9050919050565b7f4552433732313a2061646472657373207a65726f206973206e6f74206120766160008201527f6c6964206f776e65720000000000000000000000000000000000000000000000602082015250565b6000612b8f6029836121ed565b9150612b9a82612b33565b604082019050919050565b60006020820190508181036000830152612bbe81612b82565b9050919050565b6000612bd18285612a28565b9150612bdd8284612a28565b91508190509392505050565b7f4f776e61626c653a206e6577206f776e657220697320746865207a65726f206160008201527f6464726573730000000000000000000000000000000000000000000000000000602082015250565b6000612c456026836121ed565b9150612c5082612be9565b604082019050919050565b60006020820190508181036000830152612c7481612c38565b9050919050565b7f4552433732313a207472616e736665722066726f6d20696e636f72726563742060008201527f6f776e6572000000000000000000000000000000000000000000000000000000602082015250565b6000612cd76025836121ed565b9150612ce282612c7b565b604082019050919050565b60006020820190508181036000830152612d0681612cca565b9050919050565b7f4552433732313a207472616e7366657220746f20746865207a65726f2061646460008201527f7265737300000000000000000000000000000000000000000000000000000000602082015250565b6000612d696024836121ed565b9150612d7482612d0d565b604082019050919050565b60006020820190508181036000830152612d9881612d5c565b9050919050565b7f4f776e61626c653a2063616c6c6572206973206e6f7420746865206f776e6572600082015250565b6000612dd56020836121ed565b9150612de082612d9f565b602082019050919050565b60006020820190508181036000830152612e0481612dc8565b9050919050565b7f45524337323155524953746f726167653a2055524920736574206f66206e6f6e60008201527f6578697374656e7420746f6b656e000000000000000000000000000000000000602082015250565b6000612e67602e836121ed565b9150612e7282612e0b565b604082019050919050565b60006020820190508181036000830152612e9681612e5a565b9050919050565b60008190508160005260206000209050919050565b60006020601f8301049050919050565b600082821b905092915050565b600060088302612eff7fffffffffffffffffffffffffffffffffffffffffffffffffffffffffffffffff82612ec2565b612f098683612ec2565b95508019841693508086168417925050509392505050565b6000819050919050565b6000612f46612f41612f3c84612294565b612f21565b612294565b9050919050565b6000819050919050565b612f6083612f2b565b612f74612f6c82612f4d565b848454612ecf565b825550505050565b600090565b612f89612f7c565b612f94818484612f57565b505050565b5b81811015612fb857612fad600082612f81565b600181019050612f9a565b5050565b601f821115612ffd57612fce81612e9d565b612fd784612eb2565b81016020851015612fe6578190505b612ffa612ff285612eb2565b830182612f99565b50505b505050565b600082821c905092915050565b600061302060001984600802613002565b1980831691505092915050565b6000613039838361300f565b9150826002028217905092915050565b613052826121e2565b67ffffffffffffffff81111561306b5761306a612548565b5b6130758254612765565b613080828285612fbc565b600060209050601f8311600181146130b357600084156130a1578287015190505b6130ab858261302d565b865550613113565b601f1984166130c186612e9d565b60005b828110156130e9578489015182556001820191506020850194506020810190506130c4565b868310156131065784890151613102601f89168261300f565b8355505b6001600288020188555050505b505050505050565b7f4552433732313a20617070726f766520746f2063616c6c657200000000000000600082015250565b60006131516019836121ed565b915061315c8261311b565b602082019050919050565b6000602082019050818103600083015261318081613144565b9050919050565b7f4552433732313a207472616e7366657220746f206e6f6e20455243373231526560008201527f63656976657220696d706c656d656e7465720000000000000000000000000000602082015250565b60006131e36032836121ed565b91506131ee82613187565b604082019050919050565b60006020820190508181036000830152613212816131d6565b9050919050565b600081519050919050565b600082825260208201905092915050565b600061324082613219565b61324a8185613224565b935061325a8185602086016121fe565b61326381612228565b840191505092915050565b60006080820190506132836000830187612329565b6132906020830186612329565b61329d6040830185612452565b81810360608301526132af8184613235565b905095945050505050565b6000815190506132c981612153565b92915050565b6000602082840312156132e5576132e461211d565b5b60006132f3848285016132ba565b91505092915050565b7f4552433732313a206d696e7420746f20746865207a65726f2061646472657373600082015250565b60006133326020836121ed565b915061333d826132fc565b602082019050919050565b6000602082019050818103600083015261336181613325565b9050919050565b7f4552433732313a20746f6b656e20616c7265616479206d696e74656400000000600082015250565b600061339e601c836121ed565b91506133a982613368565b602082019050919050565b600060208201905081810360008301526133cd81613391565b905091905056fea2646970667358221220ae2fcec610785728eb4dd1126ab1543de939301e806e89d8d5ce33adb40a4c6b64736f6c63430008130033",
  "linkReferences": {},
  "deployedLinkReferences": {}
}