{
  "_format": "hh-sol-artifact-1",
  "contractName": "TheSourceMembreToken",
  "sourceName": "contracts/TheSourceMembreToken.sol",
  "abi": [
    {
      "inputs": [],
      "stateMutability": "nonpayable",
      "type": "constructor"
    },
    {
      "anonymous": false,
      "inputs": [
        {
          "indexed": true,
          "internalType": "address",
          "name": "owner",
          "type": "address"
        },
        {
          "indexed": true,
          "internalType": "address",
          "name": "approved",
          "type": "address"
        },
        {
          "indexed": true,
          "internalType": "uint256",
          "name": "tokenId",
          "type": "uint256"
        }
      ],
      "name": "Approval",
      "type": "event"
    },
    {
      "anonymous": false,
      "inputs": [
        {
          "indexed": true,
          "internalType": "address",
          "name": "owner",
          "type": "address"
        },
        {
          "indexed": true,
          "internalType": "address",
          "name": "operator",
          "type": "address"
        },
        {
          "indexed": false,
          "internalType": "bool",
          "name": "approved",
          "type": "bool"
        }
      ],
      "name": "ApprovalForAll",
      "type": "event"
    },
    {
      "anonymous": false,
      "inputs": [
        {
          "indexed": true,
          "internalType": "address",
          "name": "previousOwner",
          "type": "address"
        },
        {
          "indexed": true,
          "internalType": "address",
          "name": "newOwner",
          "type": "address"
        }
      ],
      "name": "OwnershipTransferred",
      "type": "event"
    },
    {
      "anonymous": false,
      "inputs": [
        {
          "indexed": true,
          "internalType": "address",
          "name": "from",
          "type": "address"
        },
        {
          "indexed": true,
          "internalType": "address",
          "name": "to",
          "type": "address"
        },
        {
          "indexed": true,
          "internalType": "uint256",
          "name": "tokenId",
          "type": "uint256"
        }
      ],
      "name": "Transfer",
      "type": "event"
    },
    {
      "anonymous": false,
      "inputs": [
        {
          "indexed": false,
          "internalType": "address",
          "name": "_to",
          "type": "address"
        },
        {
          "indexed": false,
          "internalType": "uint256",
          "name": "tokenId",
          "type": "uint256"
        },
        {
          "indexed": false,
          "internalType": "string",
          "name": "_tag",
          "type": "string"
        }
      ],
      "name": "mint",
      "type": "event"
    },
    {
      "inputs": [
        {
          "internalType": "address",
          "name": "to",
          "type": "address"
        },
        {
          "internalType": "uint256",
          "name": "tokenId",
          "type": "uint256"
        }
      ],
      "name": "approve",
      "outputs": [],
      "stateMutability": "nonpayable",
      "type": "function"
    },
    {
      "inputs": [
        {
          "internalType": "address",
          "name": "owner",
          "type": "address"
        }
      ],
      "name": "balanceOf",
      "outputs": [
        {
          "internalType": "uint256",
          "name": "",
          "type": "uint256"
        }
      ],
      "stateMutability": "view",
      "type": "function"
    },
    {
      "inputs": [
        {
          "internalType": "uint256",
          "name": "tokenId",
          "type": "uint256"
        }
      ],
      "name": "getApproved",
      "outputs": [
        {
          "internalType": "address",
          "name": "",
          "type": "address"
        }
      ],
      "stateMutability": "view",
      "type": "function"
    },
    {
      "inputs": [
        {
          "internalType": "uint256",
          "name": "_tokenId",
          "type": "uint256"
        }
      ],
      "name": "getTag",
      "outputs": [
        {
          "internalType": "string",
          "name": "",
          "type": "string"
        }
      ],
      "stateMutability": "view",
      "type": "function"
    },
    {
      "inputs": [
        {
          "internalType": "address",
          "name": "owner",
          "type": "address"
        },
        {
          "internalType": "address",
          "name": "operator",
          "type": "address"
        }
      ],
      "name": "isApprovedForAll",
      "outputs": [
        {
          "internalType": "bool",
          "name": "",
          "type": "bool"
        }
      ],
      "stateMutability": "view",
      "type": "function"
    },
    {
      "inputs": [],
      "name": "name",
      "outputs": [
        {
          "internalType": "string",
          "name": "",
          "type": "string"
        }
      ],
      "stateMutability": "view",
      "type": "function"
    },
    {
      "inputs": [],
      "name": "owner",
      "outputs": [
        {
          "internalType": "address",
          "name": "",
          "type": "address"
        }
      ],
      "stateMutability": "view",
      "type": "function"
    },
    {
      "inputs": [
        {
          "internalType": "uint256",
          "name": "tokenId",
          "type": "uint256"
        }
      ],
      "name": "ownerOf",
      "outputs": [
        {
          "internalType": "address",
          "name": "",
          "type": "address"
        }
      ],
      "stateMutability": "view",
      "type": "function"
    },
    {
      "inputs": [],
      "name": "renounceOwnership",
      "outputs": [],
      "stateMutability": "nonpayable",
      "type": "function"
    },
    {
      "inputs": [
        {
          "internalType": "address",
          "name": "_to",
          "type": "address"
        },
        {
          "internalType": "string",
          "name": "_tag",
          "type": "string"
        },
        {
          "internalType": "string",
          "name": "_tokenURI",
          "type": "string"
        }
      ],
      "name": "safeMint",
      "outputs": [
        {
          "internalType": "uint256",
          "name": "",
          "type": "uint256"
        }
      ],
      "stateMutability": "nonpayable",
      "type": "function"
    },
    {
      "inputs": [
        {
          "internalType": "address",
          "name": "from",
          "type": "address"
        },
        {
          "internalType": "address",
          "name": "to",
          "type": "address"
        },
        {
          "internalType": "uint256",
          "name": "tokenId",
          "type": "uint256"
        }
      ],
      "name": "safeTransferFrom",
      "outputs": [],
      "stateMutability": "nonpayable",
      "type": "function"
    },
    {
      "inputs": [
        {
          "internalType": "address",
          "name": "from",
          "type": "address"
        },
        {
          "internalType": "address",
          "name": "to",
          "type": "address"
        },
        {
          "internalType": "uint256",
          "name": "tokenId",
          "type": "uint256"
        },
        {
          "internalType": "bytes",
          "name": "data",
          "type": "bytes"
        }
      ],
      "name": "safeTransferFrom",
      "outputs": [],
      "stateMutability": "nonpayable",
      "type": "function"
    },
    {
      "inputs": [
        {
          "internalType": "address",
          "name": "operator",
          "type": "address"
        },
        {
          "internalType": "bool",
          "name": "approved",
          "type": "bool"
        }
      ],
      "name": "setApprovalForAll",
      "outputs": [],
      "stateMutability": "nonpayable",
      "type": "function"
    },
    {
      "inputs": [
        {
          "internalType": "string",
          "name": "_base",
          "type": "string"
        }
      ],
      "name": "setBaseURI",
      "outputs": [],
      "stateMutability": "nonpayable",
      "type": "function"
    },
    {
      "inputs": [
        {
          "internalType": "bytes4",
          "name": "interfaceId",
          "type": "bytes4"
        }
      ],
      "name": "supportsInterface",
      "outputs": [
        {
          "internalType": "bool",
          "name": "",
          "type": "bool"
        }
      ],
      "stateMutability": "view",
      "type": "function"
    },
    {
      "inputs": [],
      "name": "symbol",
      "outputs": [
        {
          "internalType": "string",
          "name": "",
          "type": "string"
        }
      ],
      "stateMutability": "view",
      "type": "function"
    },
    {
      "inputs": [
        {
          "internalType": "uint256",
          "name": "tokenId",
          "type": "uint256"
        }
      ],
      "name": "tokenURI",
      "outputs": [
        {
          "internalType": "string",
          "name": "",
          "type": "string"
        }
      ],
      "stateMutability": "view",
      "type": "function"
    },
    {
      "inputs": [
        {
          "internalType": "address",
          "name": "from",
          "type": "address"
        },
        {
          "internalType": "address",
          "name": "to",
          "type": "address"
        },
        {
          "internalType": "uint256",
          "name": "tokenId",
          "type": "uint256"
        }
      ],
      "name": "transferFrom",
      "outputs": [],
      "stateMutability": "nonpayable",
      "type": "function"
    },
    {
      "inputs": [
        {
          "internalType": "address",
          "name": "newOwner",
          "type": "address"
        }
      ],
      "name": "transferOwnership",
      "outputs": [],
      "stateMutability": "nonpayable",
      "type": "function"
    }
  ],
  "bytecode": "0x60806040523480156200001157600080fd5b506040518060400160405280601481526020017f546865536f757263654d656d627265546f6b656e000000000000000000000000815250604051806040016040528060048152602001631514d35560e21b8152508160009081620000769190620001a3565b506001620000858282620001a3565b505050620000a26200009c620000a860201b60201c565b620000ac565b6200026f565b3390565b600780546001600160a01b038381166001600160a01b0319831681179093556040519116919082907f8be0079c531659141344cd1fd0a4f28419497f9722a3daafe3b4186f6b6457e090600090a35050565b634e487b7160e01b600052604160045260246000fd5b600181811c908216806200012957607f821691505b6020821081036200014a57634e487b7160e01b600052602260045260246000fd5b50919050565b601f8211156200019e57600081815260208120601f850160051c81016020861015620001795750805b601f850160051c820191505b818110156200019a5782815560010162000185565b5050505b505050565b81516001600160401b03811115620001bf57620001bf620000fe565b620001d781620001d0845462000114565b8462000150565b602080601f8311600181146200020f5760008415620001f65750858301515b600019600386901b1c1916600185901b1785556200019a565b600085815260208120601f198616915b8281101562000240578886015182559484019460019091019084016200021f565b50858210156200025f5787850151600019600388901b60f8161c191681555b5050505050600190811b01905550565b611b61806200027f6000396000f3fe608060405234801561001057600080fd5b50600436106101215760003560e01c806370a08231116100ad578063b88d4fde11610071578063b88d4fde14610257578063c87b56dd1461026a578063e985e9c51461027d578063eca81d42146102b9578063f2fde38b146102cc57600080fd5b806370a0823114610202578063715018a6146102235780638da5cb5b1461022b57806395d89b411461023c578063a22cb4651461024457600080fd5b806323b872dd116100f457806323b872dd146101a357806342842e0e146101b657806355f804b3146101c95780636352211e146101dc578063691bbb69146101ef57600080fd5b806301ffc9a71461012657806306fdde031461014e578063081812fc14610163578063095ea7b31461018e575b600080fd5b6101396101343660046113a9565b6102df565b60405190151581526020015b60405180910390f35b610156610331565b6040516101459190611416565b610176610171366004611429565b6103c3565b6040516001600160a01b039091168152602001610145565b6101a161019c36600461145e565b6103ea565b005b6101a16101b1366004611488565b610504565b6101a16101c4366004611488565b610535565b6101a16101d736600461150d565b610550565b6101766101ea366004611429565b610565565b6101566101fd366004611429565b6105c5565b61021561021036600461154f565b610677565b604051908152602001610145565b6101a16106fd565b6007546001600160a01b0316610176565b610156610711565b6101a161025236600461156a565b610720565b6101a1610265366004611632565b61072f565b610156610278366004611429565b610767565b61013961028b3660046116ae565b6001600160a01b03918216600090815260056020908152604080832093909416825291909152205460ff1690565b6102156102c73660046116e1565b61086a565b6101a16102da36600461154f565b610974565b60006001600160e01b031982166380ac58cd60e01b148061031057506001600160e01b03198216635b5e139f60e01b145b8061032b57506301ffc9a760e01b6001600160e01b03198316145b92915050565b6060600080546103409061176f565b80601f016020809104026020016040519081016040528092919081815260200182805461036c9061176f565b80156103b95780601f1061038e576101008083540402835291602001916103b9565b820191906000526020600020905b81548152906001019060200180831161039c57829003601f168201915b5050505050905090565b60006103ce826109ed565b506000908152600460205260409020546001600160a01b031690565b60006103f582610565565b9050806001600160a01b0316836001600160a01b0316036104675760405162461bcd60e51b815260206004820152602160248201527f4552433732313a20617070726f76616c20746f2063757272656e74206f776e656044820152603960f91b60648201526084015b60405180910390fd5b336001600160a01b03821614806104835750610483813361028b565b6104f55760405162461bcd60e51b815260206004820152603d60248201527f4552433732313a20617070726f76652063616c6c6572206973206e6f7420746f60448201527f6b656e206f776e6572206f7220617070726f76656420666f7220616c6c000000606482015260840161045e565b6104ff8383610a4c565b505050565b61050e3382610aba565b61052a5760405162461bcd60e51b815260040161045e906117a9565b6104ff838383610b38565b6104ff8383836040518060200160405280600081525061072f565b610558610c9c565b60096104ff828483611844565b6000818152600260205260408120546001600160a01b03168061032b5760405162461bcd60e51b8152602060048201526018602482015277115490cdcc8c4e881a5b9d985b1a59081d1bdad95b88125160421b604482015260640161045e565b6060600a82815481106105da576105da611905565b9060005260206000200160000180546105f29061176f565b80601f016020809104026020016040519081016040528092919081815260200182805461061e9061176f565b801561066b5780601f106106405761010080835404028352916020019161066b565b820191906000526020600020905b81548152906001019060200180831161064e57829003601f168201915b50505050509050919050565b60006001600160a01b0382166106e15760405162461bcd60e51b815260206004820152602960248201527f4552433732313a2061646472657373207a65726f206973206e6f7420612076616044820152683634b21037bbb732b960b91b606482015260840161045e565b506001600160a01b031660009081526003602052604090205490565b610705610c9c565b61070f6000610cf6565b565b6060600180546103409061176f565b61072b338383610d48565b5050565b6107393383610aba565b6107555760405162461bcd60e51b815260040161045e906117a9565b61076184848484610e16565b50505050565b6060610772826109ed565b6000828152600660205260408120805461078b9061176f565b80601f01602080910402602001604051908101604052809291908181526020018280546107b79061176f565b80156108045780601f106107d957610100808354040283529160200191610804565b820191906000526020600020905b8154815290600101906020018083116107e757829003601f168201915b505050505090506000610815610e49565b90508051600003610827575092915050565b81511561085957808260405160200161084192919061191b565b60405160208183030381529060405292505050919050565b61086284610e58565b949350505050565b6000610874610c9c565b610882600880546001019055565b600061088d60085490565b6040805160208101909152868152600a8054600181018255600091909152815192935090917fc65a7bb8d6351c1cf70c95a316cc6a92839c986682d98bc35f958f4883f9d2a89091019081906108e3908261194a565b5050506108f08682610ebf565b6109308185858080601f016020809104026020016040519081016040528093929190818152602001838380828437600092019190915250610ed992505050565b7fd3fc9864faa02642f71dd9b0b1ad99c6139591b8a2cf1add7f1970a4d243556a86828760405161096393929190611a0a565b60405180910390a195945050505050565b61097c610c9c565b6001600160a01b0381166109e15760405162461bcd60e51b815260206004820152602660248201527f4f776e61626c653a206e6577206f776e657220697320746865207a65726f206160448201526564647265737360d01b606482015260840161045e565b6109ea81610cf6565b50565b6000818152600260205260409020546001600160a01b03166109ea5760405162461bcd60e51b8152602060048201526018602482015277115490cdcc8c4e881a5b9d985b1a59081d1bdad95b88125160421b604482015260640161045e565b600081815260046020526040902080546001600160a01b0319166001600160a01b0384169081179091558190610a8182610565565b6001600160a01b03167f8c5be1e5ebec7d5bd14f71427d1e84f3dd0314c0f7b2291e5b200ac8c7c3b92560405160405180910390a45050565b600080610ac683610565565b9050806001600160a01b0316846001600160a01b03161480610b0d57506001600160a01b0380821660009081526005602090815260408083209388168352929052205460ff165b806108625750836001600160a01b0316610b26846103c3565b6001600160a01b031614949350505050565b826001600160a01b0316610b4b82610565565b6001600160a01b031614610b715760405162461bcd60e51b815260040161045e90611a3a565b6001600160a01b038216610bd35760405162461bcd60e51b8152602060048201526024808201527f4552433732313a207472616e7366657220746f20746865207a65726f206164646044820152637265737360e01b606482015260840161045e565b826001600160a01b0316610be682610565565b6001600160a01b031614610c0c5760405162461bcd60e51b815260040161045e90611a3a565b600081815260046020908152604080832080546001600160a01b03199081169091556001600160a01b0387811680865260038552838620805460001901905590871680865283862080546001019055868652600290945282852080549092168417909155905184937fddf252ad1be2c89b69c2b068fc378daa952ba7f163c4a11628f55a4df523b3ef91a4505050565b6007546001600160a01b0316331461070f5760405162461bcd60e51b815260206004820181905260248201527f4f776e61626c653a2063616c6c6572206973206e6f7420746865206f776e6572604482015260640161045e565b600780546001600160a01b038381166001600160a01b0319831681179093556040519116919082907f8be0079c531659141344cd1fd0a4f28419497f9722a3daafe3b4186f6b6457e090600090a35050565b816001600160a01b0316836001600160a01b031603610da95760405162461bcd60e51b815260206004820152601960248201527f4552433732313a20617070726f766520746f2063616c6c657200000000000000604482015260640161045e565b6001600160a01b03838116600081815260056020908152604080832094871680845294825291829020805460ff191686151590811790915591519182527f17307eab39ab6107e8899845ad3d59bd9653f200f220920489ca2b5937696c31910160405180910390a3505050565b610e21848484610b38565b610e2d84848484610f6c565b6107615760405162461bcd60e51b815260040161045e90611a7f565b6060600980546103409061176f565b6060610e63826109ed565b6000610e6d610e49565b90506000815111610e8d5760405180602001604052806000815250610eb8565b80610e978461106a565b604051602001610ea892919061191b565b6040516020818303038152906040525b9392505050565b61072b8282604051806020016040528060008152506110fd565b6000828152600260205260409020546001600160a01b0316610f545760405162461bcd60e51b815260206004820152602e60248201527f45524337323155524953746f726167653a2055524920736574206f66206e6f6e60448201526d32bc34b9ba32b73a103a37b5b2b760911b606482015260840161045e565b60008281526006602052604090206104ff828261194a565b60006001600160a01b0384163b1561106257604051630a85bd0160e11b81526001600160a01b0385169063150b7a0290610fb0903390899088908890600401611ad1565b6020604051808303816000875af1925050508015610feb575060408051601f3d908101601f19168201909252610fe891810190611b0e565b60015b611048573d808015611019576040519150601f19603f3d011682016040523d82523d6000602084013e61101e565b606091505b5080516000036110405760405162461bcd60e51b815260040161045e90611a7f565b805181602001fd5b6001600160e01b031916630a85bd0160e11b149050610862565b506001610862565b6060600061107783611130565b600101905060008167ffffffffffffffff811115611097576110976115a6565b6040519080825280601f01601f1916602001820160405280156110c1576020820181803683370190505b5090508181016020015b600019016f181899199a1a9b1b9c1cb0b131b232b360811b600a86061a8153600a85049450846110cb57509392505050565b6111078383611208565b6111146000848484610f6c565b6104ff5760405162461bcd60e51b815260040161045e90611a7f565b60008072184f03e93ff9f4daa797ed6e38ed64bf6a1f0160401b831061116f5772184f03e93ff9f4daa797ed6e38ed64bf6a1f0160401b830492506040015b6d04ee2d6d415b85acef8100000000831061119b576d04ee2d6d415b85acef8100000000830492506020015b662386f26fc1000083106111b957662386f26fc10000830492506010015b6305f5e10083106111d1576305f5e100830492506008015b61271083106111e557612710830492506004015b606483106111f7576064830492506002015b600a831061032b5760010192915050565b6001600160a01b03821661125e5760405162461bcd60e51b815260206004820181905260248201527f4552433732313a206d696e7420746f20746865207a65726f2061646472657373604482015260640161045e565b6000818152600260205260409020546001600160a01b0316156112c35760405162461bcd60e51b815260206004820152601c60248201527f4552433732313a20746f6b656e20616c7265616479206d696e74656400000000604482015260640161045e565b6000818152600260205260409020546001600160a01b0316156113285760405162461bcd60e51b815260206004820152601c60248201527f4552433732313a20746f6b656e20616c7265616479206d696e74656400000000604482015260640161045e565b6001600160a01b038216600081815260036020908152604080832080546001019055848352600290915280822080546001600160a01b0319168417905551839291907fddf252ad1be2c89b69c2b068fc378daa952ba7f163c4a11628f55a4df523b3ef908290a45050565b6001600160e01b0319811681146109ea57600080fd5b6000602082840312156113bb57600080fd5b8135610eb881611393565b60005b838110156113e15781810151838201526020016113c9565b50506000910152565b600081518084526114028160208601602086016113c6565b601f01601f19169290920160200192915050565b602081526000610eb860208301846113ea565b60006020828403121561143b57600080fd5b5035919050565b80356001600160a01b038116811461145957600080fd5b919050565b6000806040838503121561147157600080fd5b61147a83611442565b946020939093013593505050565b60008060006060848603121561149d57600080fd5b6114a684611442565b92506114b460208501611442565b9150604084013590509250925092565b60008083601f8401126114d657600080fd5b50813567ffffffffffffffff8111156114ee57600080fd5b60208301915083602082850101111561150657600080fd5b9250929050565b6000806020838503121561152057600080fd5b823567ffffffffffffffff81111561153757600080fd5b611543858286016114c4565b90969095509350505050565b60006020828403121561156157600080fd5b610eb882611442565b6000806040838503121561157d57600080fd5b61158683611442565b91506020830135801515811461159b57600080fd5b809150509250929050565b634e487b7160e01b600052604160045260246000fd5b600067ffffffffffffffff808411156115d7576115d76115a6565b604051601f8501601f19908116603f011681019082821181831017156115ff576115ff6115a6565b8160405280935085815286868601111561161857600080fd5b858560208301376000602087830101525050509392505050565b6000806000806080858703121561164857600080fd5b61165185611442565b935061165f60208601611442565b925060408501359150606085013567ffffffffffffffff81111561168257600080fd5b8501601f8101871361169357600080fd5b6116a2878235602084016115bc565b91505092959194509250565b600080604083850312156116c157600080fd5b6116ca83611442565b91506116d860208401611442565b90509250929050565b600080600080606085870312156116f757600080fd5b61170085611442565b9350602085013567ffffffffffffffff8082111561171d57600080fd5b818701915087601f83011261173157600080fd5b611740888335602085016115bc565b9450604087013591508082111561175657600080fd5b50611763878288016114c4565b95989497509550505050565b600181811c9082168061178357607f821691505b6020821081036117a357634e487b7160e01b600052602260045260246000fd5b50919050565b6020808252602d908201527f4552433732313a2063616c6c6572206973206e6f7420746f6b656e206f776e6560408201526c1c881bdc88185c1c1c9bdd9959609a1b606082015260800190565b601f8211156104ff57600081815260208120601f850160051c8101602086101561181d5750805b601f850160051c820191505b8181101561183c57828155600101611829565b505050505050565b67ffffffffffffffff83111561185c5761185c6115a6565b6118708361186a835461176f565b836117f6565b6000601f8411600181146118a4576000851561188c5750838201355b600019600387901b1c1916600186901b1783556118fe565b600083815260209020601f19861690835b828110156118d557868501358255602094850194600190920191016118b5565b50868210156118f25760001960f88860031b161c19848701351681555b505060018560011b0183555b5050505050565b634e487b7160e01b600052603260045260246000fd5b6000835161192d8184602088016113c6565b8351908301906119418183602088016113c6565b01949350505050565b815167ffffffffffffffff811115611964576119646115a6565b61197881611972845461176f565b846117f6565b602080601f8311600181146119ad57600084156119955750858301515b600019600386901b1c1916600185901b17855561183c565b600085815260208120601f198616915b828110156119dc578886015182559484019460019091019084016119bd565b50858210156119fa5787850151600019600388901b60f8161c191681555b5050505050600190811b01905550565b60018060a01b0384168152826020820152606060408201526000611a3160608301846113ea565b95945050505050565b60208082526025908201527f4552433732313a207472616e736665722066726f6d20696e636f72726563742060408201526437bbb732b960d91b606082015260800190565b60208082526032908201527f4552433732313a207472616e7366657220746f206e6f6e20455243373231526560408201527131b2b4bb32b91034b6b83632b6b2b73a32b960711b606082015260800190565b6001600160a01b0385811682528416602082015260408101839052608060608201819052600090611b04908301846113ea565b9695505050505050565b600060208284031215611b2057600080fd5b8151610eb88161139356fea2646970667358221220925bd0eb3d1e6991b90c55db03dbefe79a8ff97a3229cf0d570f8043a9526d0664736f6c63430008130033",
  "linkReferences": {},
  "deployedLinkReferences": {}
}